:100000000C9480000C949D000C949D000C949D0019
:100010000C949D000C949D000C949D000C949D00EC
:100020000C949D000C949D000C949D000C94F9037D
:100030000C949D000C949D000C949D000C949D00CC
:100040000C949D000C949D000C9434050C949D0020
:100050000C949D000C949D000C949D000C949D00AC
:100060000C9403010C949D000C949D000C949D0035
:100070000C949D000810204030313233343536372F
:10008000383961626364656600C900B1009F009100
:10009000000C035600200031002E0030000000103C
:1000A0000354006500730074005500730062000083
:1000B000001603420061006C0061004700690020E7
:1000C0000049006E006300000004030904090220D7
:1000D00000010100C0190904000002FFFFFF000732
:1000E0000581032000C8070502032000C812011083
:1000F00001FFFFFF2023F1010001000102030100C5
:1001000011241FBECFEFD2E0DEBFCDBF11E0A0E0D3
:10011000B1E0EAE1FBE002C005900D92AC31B1071D
:10012000D9F712E0ACE1B1E001C01D92A932B107EC
:10013000E1F70E9446050C948B050C94000004C066
:1001400080911E028C7131F08091E80080FFF8CF21
:1001500080E0089583E008950E949F008111089532
:100160008091E8008E7F8093E8000C949F00A89512
:1001700088E10FB6F89480936000109260000FBE83
:100180008FEF85B988B98BB980E284B917B81AB8EE
:10019000E1E6F0E080E880831082089510921C016F
:1001A00010921D018EEF80931E0110921F0110927C
:1001B000CD008CE08093CC0080E48093C80086E082
:1001C0008093CA001092CB0088E08093C900089504
:1001D000FC0110821182628313820895FC018381E5
:1001E000882379F0815083839081DF01A90FB11DAD
:1001F00014968C919F5F90832281921718F0108241
:10020000089580E008951F920F920FB60F92112467
:100210002F933F934F935F936F937F938F939F930E
:10022000AF93BF93EF93FF9380911F01811116C08D
:100230008091C9008F7D8093C900FF91EF91BF919C
:10024000AF919F918F917F916F915F914F913F916E
:100250002F910F900FBE0F901F9018958CE191E099
:100260000E94EE008093CE00E8CFCF93CFB7F894F2
:100270008091C80085FF04C080911F01811103C0D7
:10028000CFBFCF9108958CE191E00E94EE00809362
:10029000CE00CFBFCF910895FC0193818281981742
:1002A00068F49F5F93839181DF01A90FB11D1496BC
:1002B0006C939F5F9183981708F0118208951F93A4
:1002C000CF93DF931F92CDB7DEB7682F1FB7F89497
:1002D0008091C80085FD1CC020911F0190911E01D6
:1002E000921759F0921B913001F18CE191E00E943C
:1002F0004C018091C80085FD11C01FBF8091C900CD
:1003000080628093C9000F90DF91CF911F91089573
:1003100080911F0181110BC020E0E0CF8CE191E0C2
:100320000E94EE008093CE00E8CF64E2DECF8CE145
:1003300091E069830E94EE008093CE0020911F011E
:100340006981CCCFCF93DF93EC01FC0184918823AA
:1003500039F00E945F012196FE0184918111F9CF4D
:10036000DF91CF910895CF93C82FE82FE295EF70DA
:10037000F0E0E858FF4F84910E945F01CF70EC2FAE
:10038000F0E0E858FF4F8491CF910C945F01CF9338
:10039000C82F892F0E94B3018C2FCF910C94B301E9
:1003A000662331F0FC018091F10081936150D9F70F
:1003B0000895613039F0623011F40C946D05FC0140
:1003C00080810895FC0184910895E091ED00E2950B
:1003D000E370F0E0EC58FF4F84910895EF92FF92A4
:1003E0000F931F93CF93DF93EB01F42E20911E0206
:1003F0002C7109F449C02091E80023FD5EC02091D2
:10040000E800322F3470E32E22FD48C02091E8002E
:1004100020FFECCF2097A9F02091E80025FD06C031
:1004200022C09091E80095FF1FC0C8018C010F5FAA
:100430001F4F6F2D0E94D9018093F10021972097C3
:1004400081F78091E8008E7F8093E8008091E8003A
:100450008F778093E8008E2DDF91CF911F910F91C0
:10046000FF90EF9008958C018091E8008E7F80933B
:10047000E8008091E8008F778093E800C801209120
:100480001E022C7109F0B7CF83E0E82E8E2DDF918C
:10049000CF911F910F91FF90EF9008958091E80008
:1004A0008B7F8093E80092E0E92E8E2DDF91CF9133
:1004B0001F910F91FF90EF900895EE24E3948E2DFD
:1004C000DF91CF911F910F91FF90EF900895AF9220
:1004D000BF92CF92DF92EF92FF920F931F93CF9331
:1004E000DF93EC016B01A42E79010E94E501B82E87
:1004F0008701CE14DF0408F4860180911E028C71FE
:1005000081F18091E80083FD4FC09091E800892F30
:100510008470C82E92FD56C09091E80090FFEDCFF8
:10052000D090F2000115110589F41EC0CE0121966C
:100530006A2D0E94D9018093F1000150110981E0D8
:10054000E81AF108D3940115110571F0DB1470F36A
:100550008091E8008E7F8093E80080911E028C716C
:1005600081F633E0C32E22C08091E8008E7F809315
:10057000E800DB1478F0EF2869F0E12CF12C00E0C2
:1005800010E0BBCF80911E028C7159F38091E8007E
:1005900083FD0AC08091E80082FFF4CF8091E800DB
:1005A0008B7F8093E80002C0CC24C3948C2DDF9114
:1005B000CF911F910F91FF90EF90DF90CF90BF9060
:1005C000AF9008958091E8008B7F8093E80022E04F
:1005D000C22EECCF80911E02887109F4089580919B
:1005E000E800877F8093E80021E030E040E061E0B0
:1005F00070E08FE192E00C946702EF92FF920F930C
:100600001F93CF93DF931F92CDB7DEB77C01DC0140
:100610001296ED91FC9113972F2F3327223031053D
:1006200009F455C02330310529F12130310541F05D
:100630000F90DF91CF911F910F91FF90EF90089550
:100640008091E800877F8093E80016962D913C9179
:1006500017974091280262E170E08091200290910A
:1006600021020F90DF91CF911F910F91FF90EF909A
:100670000C94670280912702E817D0F68091E80079
:10068000877F8093E80040912802413009F43FC001
:10069000423089F5FF27EE0FFF1F809125029091D0
:1006A00026028E0F9F1F49830E9475058C01498188
:1006B000642FC80149830E94D901D70116962D9154
:1006C0003C911797682F70E04981C801CACFE111AA
:1006D000AFCF8091E800877F8093E800F701268103
:1006E00037816091240270E04091280280912202BB
:1006F00090912302B6CFFF27EE0FFF1FA091250296
:10070000B0912602AE0FBF1F0D911C91D1CFFF27D4
:10071000EE0FFF1F80912502909126028E0F9F1FE2
:10072000FC0105911491C4CFCF9320911E022C702F
:1007300011F4CF910895FC01C281CF778091E80038
:10074000877F8093E800C093E3000E94AC00809113
:10075000E30080688093E300C11105C084E08093CA
:100760001E02CF91089588E080931E02CF910895D4
:100770004850493128F5A42FB0E0AE5FBE4F3C9100
:10078000982F97709093E9009091EB00916090936F
:10079000EB006295660F660F607C881F8827881FB4
:1007A000682B6093EC00E22FE170F0E0EE0FFF1F8A
:1007B000EE0FFF1FE32BE093ED001092F000089581
:1007C00032E3DECF809120029091210260912802D5
:1007D00007960E94D90120E0482F60E080E00C9449
:1007E000B8030E94E20384E080931E0210921F026D
:1007F00008951F920F920FB60F9211241F932F93FB
:100800003F934F935F936F937F938F939F93AF9398
:10081000BF93EF93FF93CF93DF9300D0CDB7DEB7B5
:100820008091E1008A838091E20089831091E90040
:100830008A818A818A818A8183FF08C0898183FDB8
:1008400021C08091E100877F8093E1008A818A81C5
:100850001092E1001093E9000F900F90DF91CF917B
:10086000FF91EF91BF91AF919F918F917F916F9188
:100870005F914F913F912F911F910F900FBE0F905D
:100880001F9018950E94F103DCCFEF920F935BE06D
:10089000EEE1F2E0DF011D925A95E9F710921E0297
:1008A000909321028093200270932302609322028E
:1008B00040932402309326022093250200932702BE
:1008C000E092280280E28093D8001092FB0082E040
:1008D00089BD09B400FEFDCF80EA8093D80080E88E
:1008E0008093D8001092E2001092E10089E080939A
:1008F000E2001092E00084E080931E020F91EF90DE
:100900000895CF93DF9381E08093E9008091E80020
:1009100086FF11C08091E80080FF0DC0C0910001EA
:10092000D0910101C13F8FE3D80740F08091E800EA
:100930008F7B8093E800DF91CF91089541E060E1E3
:1009400070E0CE010E94EE016096D0930101C09349
:100950000001ECCF20E040E263E081E80C94B803B2
:10096000CF9320911E022871E1F0FC01C281C111D8
:100970000DC088E080931E0210921F028091E80053
:10098000877F8093E800CF910C94AC008091220285
:10099000909123026091280205960E94D901C81700
:1009A00011F0CF91089580E180931E02C0931F0241
:1009B0000E94AA041092E900E1CFCF93DF93CDB754
:1009C000DEB728970FB6F894DEBF0FBECDBF1092EA
:1009D000E9008091E80083FD09C028960FB6F894DD
:1009E000DEBF0FBECDBFDF91CF91089568E0CE018D
:1009F00001960E94D0018981982F907671F49A8196
:100A0000963051F1D8F0983011F1993031F48111CC
:100A100004C0CE0101960E94B0041092E9008091BA
:100A2000E80083FFDACF8091E800877F8093E800B9
:100A30008091EB0080628093EB00CFCF953069F717
:100A40008111EBCFCE0101960E949403E6CF80384E
:100A500021F70E94EA02E1CF8038F9F6CE01019633
:100A60000E94FD02DACF08951F920F920FB60F92E7
:100A700011248F939F9385B190E2892785B99F9127
:100A80008F910F900FBE0F901F901895F8940E94B1
:100A9000B7008FEF9FE790938500809384001092BA
:100AA00082001092800083E0809381008FEF86BBEC
:100AB00081E080936F00EE24E39404E029E830E0C5
:100AC00040E26DEC70E08DEE90E00E944504789479
:100AD0000E94DD040E948104FBCFF999FECF92BDF4
:100AE00081BDF89A992780B50895A8E1B0E042E069
:100AF00050E00C947D05DC01CB01FC01F999FECF9F
:100B000006C0F2BDE1BDF89A319600B40D92415095
:0A0B10005040B8F70895F894FFCFA5
:100B1A00003002323232323232321232323232322F
:0C0B2A00323232323232323232322200A9
:00000001FF
