S013000073626F786E6574327573622E7372656392
S11300000C94B2000C94DE000C94DE000C94DE0020
S11300100C94DE000C94DE000C94DE000C94DE00E4
S11300200C94DE000C94DE000C94DE000C944D0D58
S11300300C94DE000C94DE000C94DE000C94DE00C4
S11300400C94300C0C94DE000C9405160C94DE0019
S11300500C94DE000C94DE000C94DE000C94670813
S11300600C94DE000C9494080C94DE000C94DE00D6
S11300700C94DE0016121612161216121612041220
S1130080FB111612F4110D12161216121612171471
S11300908B14A2141215F915F915F915F915F9159A
S11300A0F915511566157B159015F915F915A51552
S11300B0F915F915F915F915F915F915F915F915CC
S11300C0F915F915F915F915F915F915F915F915BC
S11300D0C11512011001FFFFFF4023F102A001012D
S11300E00102030109021200010100801909040040
S11300F00000FFFFFF0004030904440354006800E8
S11301006F006D006100730020004D006100690004
S11301106500720020003C00620061006C00610018
S11301206700690040006A007500730074006D0088
S1130130610069006C002E00640065003E00000050
S11301401803730062006F0078006E00650074008D
S113015032007500730062000000F600FA004001EE
S11301600810204011241FBECFEFD4E0DEBFCDBF66
S113017011E0A0E0B1E0E4ECFFE202C005900D92D2
S1130180A230B107D9F723E0A2E0B1E001C01D928B
S1130190A834B207E1F708E413E007C0C8018C01F2
S11301A00F5F1F4F25EAFC012083F4E00F3F1F0778
S11301B0A8F300000E945A170C94E0170C94000056
S11301C0CF93DF9300D000D0CDB7DEB78B836C83A1
S11301D08B819C81892728E09CE8869508F48927EF
S11301E02A95D9F78B8329839A838B810F900F905B
S11301F00F900F90DF91CF910895CF93DF93CDB7F8
S1130200DEB7F89481E0DF91CF910895CF93DF9327
S113021000D0CDB7DEB79A8389838FE590E029813A
S11302203A81F9012081FC01208300000F900F9096
S1130230DF91CF910895CF93DF931F92CDB7DEB7AF
S113024089838981882F90E0880F991F982F89814D
S113025089278983898186959981892789838981D9
S1130260880F880F982F89818927898389810F9026
S1130270DF91CF910895CF93DF93CDB7DEB780910F
S11302802B0390912C03019690932C0380932B03C2
S11302900000DF91CF910895CF93DF93CDB7DEB700
S11302A080913103909132030196909332038093AD
S11302B031030000DF91CF910895CF93DF93CDB741
S11302C0DEB780911503909116030196909316035F
S11302D0809315030000DF91CF910895CF93DF93AE
S11302E0CDB7DEB78FEFDF91CF910895CF93DF9332
S11302F000D0CDB7DEB789836A836A8189810E9481
S1130300E0000F900F90DF91CF910895CF93DF938A
S11303101F92CDB7DEB7898381E09981992309F0D3
S113032080E00F90DF91CF910895CF93DF93CDB705
S1130330DEB7809110010E941B018093100180910F
S11303401001DF91CF910895CF93DF9300D01F92D6
S1130350CDB7DEB79A8389836B8389819A81FC0147
S1130360108289819A81FC01118289819A81FC0120
S1130370128289819A81FC01138289819A81FC010C
S1130380148289819A81FC01158289819A81FC01F8
S1130390168289819A812B81FC01278300000F90AA
S11303A00F900F90DF91CF910895CF93DF9300D0FA
S11303B0CDB7DEB79A83898389819A81FC018681CE
S11303C00F900F90DF91CF910895CF93DF9300D0DA
S11303D0CDB7DEB79A83898389819A81FC0127810D
S11303E089819A81FC018681281B89819A81FC017B
S11303F08481F22FF81B8F2F0F900F90DF91CF91F4
S11304000895CF93DF9300D0CDB7DEB79A83898365
S113041089819A81FC018681282F30E089819A8123
S1130420FC018481882F90E0280F391F89819A81EB
S1130430FC018781882F90E0821793072CF4809128
S1130440090184608093090189819A81FC012681D4
S113045089819A81FC018481280F89819A81FC0118
S1130460268389819A81FC01148289819A81FC0105
S1130470238189819A81FC01258300000F900F90CC
S1130480DF91CF910895CF93DF9300D0CDB7DEB73E
S11304909A83898389819A81FC01148289819A8152
S11304A0FC01258189819A81FC01238300000F903E
S11304B00F90DF91CF910895CF93DF9300D000D0B8
S11304C0CDB7DEB79B838A836C8319828A819B8133
S11304D0FC0126818A819B81FC018481280F8A8109
S11304E09B81FC018781281798F58A819B81FC01F7
S11304F0848121E0280F8A819B81FC0124838A81E5
S11305009B81FC018381882F90E02A813B81820FAB
S1130510931F08962C81FC0120838A819B81FC0116
S1130520838121E0280F8A819B81FC0123838A81B6
S11305309B81FC0123818A819B81FC01878128178F
S113054020F08A819B81FC01138281E0898306C0AB
S113055080910901846080930901198289810F9037
S11305600F900F900F90DF91CF910895CF93DF9369
S113057000D01F92CDB7DEB79A8389836B838981BC
S11305809A81FC018581882F90E029813A81820F2C
S1130590931F08962B81FC01208300000F900F907D
S11305A00F90DF91CF910895CF93DF9300D0CDB713
S11305B0DEB79A83898389819A81FC0184810F90B3
S11305C00F90DF91CF910895CF93DF9300D0CDB7F3
S11305D0DEB79A83898389819A81FC012681898186
S11305E09A81FC018181281728F480910901826095
S11305F08093090189819A81FC01268189819A81EC
S1130600FC018181281B89819A81FC0126838981CF
S11306109A81FC01118289819A81FC01208189815E
S11306209A81FC01228300000F900F90DF91CF91FB
S11306300895CF93DF9300D0CDB7DEB79A83898333
S113064089819A81FC01118289819A81FC0122812C
S113065089819A81FC01208300000F900F90DF9123
S1130660CF910895CF93DF9300D01F92CDB7DEB71B
S11306709B838A8319828A819B81FC0126818A81DA
S11306809B81FC018181821788F58A819B81FC0111
S1130690818121E0280F8A819B81FC0121838A8149
S11306A09B81FC018081882F90E02A813B81820F0D
S11306B0931F0896FC01808189838A819B81FC01B8
S11306C0808121E0280F8A819B81FC0120838A811B
S11306D09B81FC0120818A819B81FC0187812817F1
S11306E050F08A819B81FC01108205C08091090130
S11306F082608093090189810F900F900F90DF91A0
S1130700CF910895CF93DF9300D01F92CDB7DEB77A
S11307109B838A8319828A819B81FC0126818A8139
S11307209B81FC018181821778F48A819B81FC0181
S11307308081882F90E02A813B81820F931F089645
S1130740FC018081898305C08091090182608093C6
S1130750090189810F900F900F90DF91CF91089537
S1130760CF93DF9300D0CDB7DEB79A838983898195
S11307709A81FC01268189819A81FC018181F22F71
S1130780F81B8F2F0F900F90DF91CF910895CF9387
S1130790DF93CDB7DEB788EC90E028EC30E0F901C8
S11307A020812160FC01208389EC90E029EC30E079
S11307B0F90120812069FC0120830000DF91CF91A1
S11307C00895CF93DF9300D0CDB7DEB788E091E0F2
S11307D09A83898389819A8143E352E060E070E0DF
S11307E00E94931789819A81FC01108286E690E029
S11307F0FC01208189819A81FC01208789819A8169
S113080029E1FC01228389819A8109966AEF0E9479
S1130810A40189819A81855F9E4F6AEF0E94A40199
S11308208AE290E02AE230E0F90120812B7FFC018A
S113083020838BE290E02BE230E0F90120812460F8
S1130840FC0120838BE290E02BE230E0F90120816F
S11308502860FC0120838AE290E02AE230E0F9017A
S113086020812860FC0120838DE390E02DE330E0BB
S1130870F90120812B7FFC01208389E690E029E6A1
S113088030E0F90120812F7DFC01208389E690E08E
S113089029E630E0F90120812061FC0120838CE30A
S11308A090E024E0FC0120838DEC90E0FC011082B8
S11308B08CEC90E023E0FC01208388EC90E020E4C1
S11308C0FC0120838AEC90E026E2FC01208389EC81
S11308D090E024E0FC0120830E94C70300000F90F5
S11308E00F90DF91CF910895CF93DF9300D0CDB7D0
S11308F0DEB78FE590E0FC0180818A830E94FD00D1
S113090089832CC01092080189EC90E024E0FC015A
S113091020838AE290E02AE230E0F90120812B7FF3
S1130920FC0120838AE290E02AE230E0F901208190
S1130930277FFC0120838BE290E02BE230E0F90179
S113094020812860FC0120838DE390E02DE330E0DA
S1130950F90120812B7FFC0120831982898188235E
S113096089F6CE0102960E94060100000F900F90B6
S1130970DF91CF9108950F931F93CF93DF9300D00E
S1130980CDB7DEB79A83898384E890E0FC010081C7
S113099011818AE890E029813A81200F311FFC01FE
S11309A03183208386E390E024E0FC0120838FE6FA
S11309B090E02FE630E0F90120812460FC012083DF
S11309C000000F900F90DF91CF911F910F91089528
S11309D0CF93DF93CDB7DEB78CE390E024E0FC0146
S11309E020830000DF91CF910895CF93DF93CDB79B
S11309F0DEB78CE390E0FC0180818470DF91CF91BD
S1130A000895CF93DF9300D0CDB7DEB79A8389835F
S1130A100E94E80481E08093080189819A818858C2
S1130A209F4F0E94BB0400000F900F90DF91CF9165
S1130A300895CF93DF9300D000D000D0CDB7DEB7B8
S1130A4088E091E09A83898389819A819A83898352
S1130A5088EC90E0FC0180818B8389EC90E0FC01C0
S1130A60808182708C838EEC90E0FC0180818D8388
S1130A708B818C718B838B818823E9F10E943B01EC
S1130A808B81882F90E080719927892B89F0898147
S1130A909A818B5D9D4FFC01808191819C012F5F28
S1130AA03F4F89819A818B5D9D4FFC013183208367
S1130AB08B81882F90E088709927892B11F00E94F0
S1130AC04C018B81882F90E084709927892B09F43D
S1130AD0DFC089819A81895D9D4FFC01808191816C
S1130AE09C012F5F3F4F89819A81895D9D4FFC0155
S1130AF031832083CDC08C81882309F458C0898137
S1130B009A8109960E94D4028823C1F089819A812E
S1130B10855D9D4FFC01808191819C012F5F3F4F3A
S1130B2089819A81855D9D4FFC01318320830E94D8
S1130B303B0189819A8109960E94430280910701B1
S1130B409D81981779F08D818F3F61F089819A8119
S1130B500196FC018081882F90E081709927892B70
S1130B6009F497C088EC90E028EC30E0F90120818A
S1130B702E7FFC01208389819A81099660E00E947E
S1130B805C02882381F089819A8109966D810E9493
S1130B905C02882349F00E945D0189819A8126E0E4
S1130BA0FC01278389C000000E944C016EC089812A
S1130BB09A8109960E94D4028E8389819A81FC01CC
S1130BC097818E81981790F489819A81835D9D4FD6
S1130BD0FC01808191819C012F5F3F4F89819A8123
S1130BE0835D9D4FFC01318320834FC08E8184300F
S1130BF041F48D818F7326E0280F89819A81FC014D
S1130C00278389819A8109966D810E945C028823D9
S1130C1019F40E944C0139C00E945D0189819A81B6
S1130C2009960E94D402282F30E089819A81FC0120
S1130C308781882F90E0019628173907E9F5898183
S1130C409A81FC01278189819A810996622F0E94E9
S1130C50B60289819A81FC01178288EC90E028EC25
S1130C6030E0F90120812160FC01208389819A818F
S1130C7009960E940102809117039091180301962E
S1130C80909318038093170317C00E943B0101C07F
S1130C90000089819A81FC01178288EC90E028EC9D
S1130CA030E0F90120812160FC01208389819A814F
S1130CB009960E94430201C0000026960FB6F894DC
S1130CC0DEBF0FBECDBFDF91CF910895CF93DF93E9
S1130CD000D000D0CDB7DEB788E091E09A83898355
S1130CE089819A819A83898389819A81FC0184818B
S1130CF08823B9F489819A81855F9E4F0E94D5012A
S1130D00873078F089819A81FC01138289819A81E4
S1130D10855F9E4F0E943203282F89819A81FC01AE
S1130D20248389819A81FC018481882321F189812A
S1130D309A81FC0183818823F1F489819A81FC01E1
S1130D4080818823C1F40E949501882F90E08F73DD
S1130D5099279C838B8389819A81FC018281882FC6
S1130D6090E008969C01220F331F8B819C81820F97
S1130D70931F0E94010500000F900F900F900F9099
S1130D80DF91CF910895CF93DF93CDB7DEB7279747
S1130D900FB6F894DEBF0FBECDBF88E091E09A8312
S1130DA0898389819A819A83898388EC90E0FC0104
S1130DB080818B838B818095881F8827881F8C83F3
S1130DC08B8184718D838EEC90E0FC01208189817C
S1130DD09A81FC01958181E0291709F480E08E83D2
S1130DE08C81882339F48D81882321F48E81882392
S1130DF009F4DFC08C81882389F089819A81855E1A
S1130E009D4FFC01808191819C012F5F3F4F89811F
S1130E109A81855E9D4FFC01318320838D818823D7
S1130E2089F089819A81835E9D4FFC018081918143
S1130E309C012F5F3F4F89819A81835E9D4FFC0106
S1130E40318320838E81882389F089819A81815E10
S1130E509D4FFC01808191819C012F5F3F4F8981CF
S1130E609A81815E9D4FFC01318320838BE290E067
S1130E702BE230E0F9012081277FFC01208389ECFB
S1130E8090E029EC30E0F9012081277AFC012083ED
S1130E9089819A8122E0FC01208389819A81875E7D
S1130EA09D4FFC01808191819C012F5F3F4F89817F
S1130EB09A81875E9D4FFC013183208389819A81C9
S1130EC0FC018281882391F189819A81FC018281CC
S1130ED02FEF280F89819A81FC01228389819A81CD
S1130EE0855F9E4F0E94190389819A818F5D9D4F72
S1130EF0FC01808191819C012F5F3F4F89819A8100
S1130F008F5D9D4FFC013183208342C089819A818A
S1130F10855F9E4F0E94320389819A81FC018381FF
S1130F2021E0280F89819A81FC01238389819A8198
S1130F30FC01238189819A81FC018481281730F383
S1130F4089819A81FC01148289819A81FC0124811E
S1130F5089819A81FC01238389819A8129E1FC0199
S1130F60228389819A81855F9E4F0E94E402898150
S1130F709A818F5C9D4FFC01808191819C012F5F40
S1130F803F4F89819A818F5C9D4FFC01318320837F
S1130F9089819A81FC01148289819A81FC012481CE
S1130FA089819A81FC01238380E890E00E94BB043C
S1130FB085C089EC90E029EC30E0F90120812F769E
S1130FC0FC01208389EC90E029EC30E0F9012081D8
S1130FD02061FC01208389819A81FC01238189811C
S1130FE09A81FC018481281728F589819A81855F7B
S1130FF09E4F0E9432038F8389819A81FC018381F1
S113100021E0280F89819A81FC01238389819A81B7
S11310102F81FC01258389EC90E029EC30E0F90173
S113102020812E7FFC0120838EEC90E02F81FC0137
S1131030208333C089EC90E029EC30E0F901208171
S11310402F7BFC01208389819A81FC011482898190
S11310509A81FC01138289819A81855F9E4F0E9447
S1131060E40280911F039091200301969093200342
S113107080931F030E94C70389819A81FC018081A8
S1131080833021F489819A81FC01108289819A81BB
S113109029E1FC0122830E94660689819A818D5E82
S11310A09D4FFC01808191819C012F5F3F4F89817D
S11310B09A818D5E9D4FFC013183208327960FB664
S11310C0F894DEBF0FBECDBFDF91CF9108951F927C
S11310D00F9200905F000F9211242F933F934F9330
S11310E05F936F937F938F939F93AF93BF93EF938C
S11310F0FF93CF93DF93CDB7DEB70E9419050000AD
S1131100DF91CF91FF91EF91BF91AF919F918F911B
S11311107F916F915F914F913F912F910F9000922A
S11311205F000F901F9018951F920F9200905F0020
S11311300F9211242F933F934F935F936F937F9359
S11311408F939F93AF93BF93EF93FF93CF93DF93CB
S1131150CDB7DEB70E94C3060000DF91CF91FF91A7
S1131160EF91BF91AF919F918F917F916F915F911B
S11311704F913F912F910F9000925F000F901F901D
S11311801895CF93DF9300D000D01F92CDB7DEB770
S113119088E091E09A8389838FE690E02FE630E03F
S11311A0F90120812B7FFC01208389819A81FC0134
S11311B08081813009F08FC089819A81FC0184810A
S11311C0882309F482C089819A81FC018381882360
S11311D009F07BC089819A81855F9E4F0E948203BA
S11311E08B838BE290E02BE230E0F90120812860D0
S11311F0FC01208389EC90E029EC30E0F9012081A6
S11312002960FC0120830E94F504882351F489E2BB
S113121090E0FC018081882F90E084709927892BCD
S1131220C9F40E949501882F90E08F7399279D83BC
S11312308C8389819A81FC018281882F90E09C01B2
S1131240220F331F8C819D81820F931F0E94010501
S1131250000040C089EC90E029EC30E0F9012081E5
S11312602F76FC01208389EC90E029EC30E0F90131
S113127020812065FC0120838EEC90E02B81FC0111
S1131280208388EC90E028EC30E0F90120812E7F67
S1131290FC01208389819A81855F9E4F0E943203DD
S11312A089819A812B81FC01258389819A81FC01A2
S11312B0838121E0280F89819A81FC01238389811C
S11312C09A8123E0FC01208305C089819A81FC0175
S11312D0108240C03FC089819A81FC0180818230A4
S11312E0A9F48BE290E02BE230E0F9012081286040
S11312F0FC01208389819A8124E0FC01208380E21F
S113130090E00E94BB040E94E80424C089819A8171
S1131310FC0180818430F1F40E94F504882399F45F
S113132089E290E0FC018081882F90E08470992705
S1131330892B49F00E94C70389819A81FC0110829C
S11313400E94660606C00E94E80480E290E00E94C3
S1131350BB0400000F900F900F900F900F90DF913F
S1131360CF910895CF93DF93CDB7DEB765970FB6CE
S1131370F894DEBF0FBECDBF9C8B8B8B6D8B8D899C
S1131380863010F48DEFCCC088E091E09E878D8785
S1131390198286E08A838FE590E0FC0180818F8743
S11313A00E94FD008C8310C08D859E8509960E9445
S11313B0B0038B838B81873030F08D859E850996B1
S11313C00E94820389831C828C81882369F7CE0161
S11313D00F960E94060199818A81981710F48FEF65
S11313E09FC08981882F90E09C012F5F3F4F8B81A4
S11313F0882F90E08217930714F48FEF91C099819E
S11314008D89891710F48DEF8BC08981863410F093
S11314108CEF86C08FE590E0FC018081888B0E9470
S1131420FD008D8306C08D859E8509960E9432033A
S11314301D828D818823B9F7CE0140960E94060152
S11314408B899C899F838E830E946E01888719866D
S113145031C08FE590E0FC018081898B0E94FD0002
S11314608B8707C08D859E8509960E9432038A87E3
S11314701B868B858823B1F7CE0141960E94060115
S11314808985833029F48A858F739A81890F8A83A9
S11314906A8588850E94760188878E819F819C0158
S11314A02F5F3F4F3F832E832A85FC01208389854C
S11314B08F5F898799858981981758F28FE590E025
S11314C0FC0180818A8B0E94FD008C8706C08D857B
S11314D09E8509960E94E4021C868C858823B9F7B0
S11314E0CE0142960E94060188850E9486018823C7
S11314F069F40E943B01809137039091380301966F
S113150090933803809337038EEF0AC080911903B8
S113151090911A03019690931A0380931903898179
S113152065960FB6F894DEBF0FBECDBFDF91CF91A5
S11315300895CF93DF93CDB7DEB766970FB6F894CF
S1131540DEBF0FBECDBF9E8B8D8B88E091E09D8763
S11315508C878D899E89FC0183818F738A5F8E8736
S11315608FE590E0FC0180818F870E94FD008A83D3
S113157008C08C859D85855F9E4F0E94E501898307
S11315801A828A818823A9F7CE010F960E94060148
S113159099818E85891710F081E0BDC08FE590E0B8
S11315A0FC018081888B0E94FD008C8309C08C859E
S11315B09D85855F9E4F6E850E945C028B831C8295
S11315C08C818823A1F7CE0140960E9406018B816D
S11315D0882309F461C00E946E018D831E8235C088
S11315E08E81813021F4809107018F830AC08E811E
S11315F0882F90E02D893E89820F931FFC01808102
S11316008F836F818D810E9476018D838FE590E0B9
S1131610FC018081898B0E94FD00888709C08C852C
S11316209D85855F9E4F6F810E945C028B83188627
S113163088858823A1F7CE0141960E9406018B81FB
S1131640882361F18E818F5F8E838E81282F30E015
S11316508E85882F90E00197281739070CF28FE5C3
S113166090E0FC0180818A8B0E94FD00898709C07B
S11316708C859D85855F9E4F6D810E945C028B8366
S1131680198689858823A1F7CE0142960E94060116
S11316908B818823E9F403C0000001C000008FE5BA
S11316A090E0FC0180818B8B0E94FD008A8707C03B
S11316B08C859D85855F9E4F0E9443021A868A858C
S11316C08823B1F7CE0143960E94060181E023C02E
S11316D08FE590E0FC0180818C8B0E94FD008B875C
S11316E009C08C859D85855F9E4F0E9401020E94E2
S11316F066061B868B858823A1F7CE0144960E943B
S1131700060180911D0390911E03019690931E0380
S113171080931D0380E066960FB6F894DEBF0FBE7B
S1131720CDBFDF91CF910895CF93DF9300D000D048
S113173000D0CDB7DEB79E838D838D819E81FC0161
S113174083818F738A5F8B838FE590E0FC018081B6
S11317508C830E94FD008A8306C083E192E00E948C
S1131760E50189831A828A818823B9F7CE01049618
S11317700E94060181E029819B81921708F080E094
S113178026960FB6F894DEBF0FBECDBFDF91CF9182
S11317900895CF93DF9300D01F92CDB7DEB78FE5C6
S11317A090E0FC0180818B830E94FD008A8306C047
S11317B081E191E00E94B00389831A828A8188239F
S11317C0B9F7CE0103960E94060181E09981963013
S11317D008F480E00F900F900F90DF91CF9108955F
S11317E0CF93DF9300D01F92CDB7DEB78FE590E0A3
S11317F0FC0180818B830E94FD008A8306C083E103
S113180092E00E94E50189831A828A818823B9F7CC
S1131810CE0103960E94060181E09981973008F475
S113182080E00F900F900F90DF91CF910895CF93A8
S1131830DF931F92CDB7DEB789838981882331F086
S11318408091090181608093090105C0809109019B
S11318508E7F8093090100000F90DF91CF9108954E
S11318601F920F9200905F000F9211242F933F93C9
S11318704F935F936F937F938F939F93AF93BF9394
S1131880EF93FF93CF93DF93CDB7DEB70E94C108E8
S11318900000DF91CF91FF91EF91BF91AF919F91A4
S11318A08F917F916F915F914F913F912F910F9005
S11318B000925F000F901F901895CF93DF9300D094
S11318C0CDB7DEB78FE590E0FC0180818A830E946A
S11318D0FD0089830DC083E08093050185E290E0DB
S11318E025E230E0F90120812064FC012083198283
S11318F08981882381F7CE0102960E9406010000A7
S11319000F900F90DF91CF910895CF93DF9300D084
S1131910CDB7DEB78FE590E0FC0180818A830E9419
S1131920FD0089830DC083E08093060185E290E089
S113193025E230E0F90120812068FC01208319822E
S11319408981882381F7CE0102960E940601000056
S11319500F900F90DF91CF910895CF93DF9300D034
S1131960CDB7DEB788E493E09A8389830BC089817D
S11319709A81FC018081853A59F489819A81019682
S11319809A83898389819A818F5F944080F301C00F
S1131990000029813A8188E493E0A901481B590B8E
S11319A0CA010F900F90DF91CF910895CF93DF93E9
S11319B0CDB7DEB72FEF34E088E493E0A901481BEC
S11319C0590BCA01DF91CF910895CF93DF93CDB71F
S11319D0DEB788EE90E0FC0180818870DF91CF91C2
S11319E00895CF93DF93CDB7DEB788EE90E028EE6D
S11319F030E0F9012081277FFC0120830000DF9182
S1131A00CF910895CF93DF93CDB7DEB788EE90E002
S1131A10FC0180818170DF91CF910895CF93DF9392
S1131A20CDB7DEB788EE90E028EE30E0F9012081F2
S1131A302E7FFC0120830000DF91CF910895CF9386
S1131A40DF93CDB7DEB788EE90E0FC01808184702F
S1131A50DF91CF910895CF93DF93CDB7DEB788EEB2
S1131A6090E028EE30E0F90120812B7FFC012083F7
S1131A700000DF91CF910895CF93DF93CDB7DEB708
S1131A808BEE90E02BEE30E0F90120812062FC0126
S1131A9020830000DF91CF9108951F920F92009050
S1131AA05F000F9211242F933F934F935F936F9393
S1131AB07F938F939F93AF93BF93EF93FF93CF93B2
S1131AC0DF9300D01F92CDB7DEB781EE90E0FC012A
S1131AD080818A8382EE90E0FC0180818B8389EE91
S1131AE090E0FC0180818983CE010296FC01808113
S1131AF0CE010296FC018081CE010296FC01808118
S1131B00CE010296FC018081882F90E0887099278D
S1131B10892BA9F0CE010396FC018081882F90E0E7
S1131B2088709927892B11F00E94CA1281EE90E0E7
S1131B3021EE30E0F9012081277FFC012083CE01D2
S1131B400296FC018081CE010296FC01808181EE27
S1131B5090E0FC01108289EE90E02981FC01208351
S1131B6000000F900F900F90DF91CF91FF91EF91B4
S1131B70BF91AF919F918F917F916F915F914F91A1
S1131B803F912F910F9000925F000F901F90189536
S1131B90CF93DF9300D01F92CDB7DEB79A838983AA
S1131BA06B8310C089819A819C012F5F3F4F3A83D8
S1131BB0298321EF30E0F9012081FC0120838B810E
S1131BC081508B838B81882369F700000F900F90DD
S1131BD00F90DF91CF910895CF93DF93CDB7DEB708
S1131BE00AC080913B03882F90E08C719927892B40
S1131BF011F483E005C00E94020D882391F380E074
S1131C00DF91CF910895CF93DF931F92CDB7DEB7C5
S1131C100E94EC0D89838981882329F40E940E0D8A
S1131C200E94EC0D898389810F90DF91CF910895F3
S1131C30CF93DF9300D000D000D0CDB7DEB79D8323
S1131C408C836E838E81882F90E08130910519F00A
S1131C50029761F010C08C819D819A838983898168
S1131C609A81FC0184918B838B8109C08C819D8135
S1131C700E949A1704C08C819D81FC018081269664
S1131C800FB6F894DEBF0FBECDBFDF91CF9108959C
S1131C90CF93DF9300D01F92CDB7DEB78DEE90E0E7
S1131CA0FC01808182958F70882F90E08370992742
S1131CB0805A9E4F9A83898389819A81FC018491F9
S1131CC08B838B810F900F900F90DF91CF910895AC
S1131CD00F931F93CF93DF93CDB7DEB727970FB63C
S1131CE0F894DEBF0FBECDBF9C838B837E836D8350
S1131CF04F830E94480E8A8380913B03882F90E093
S1131D008C719927892B11F483E045C00E94E50C5E
S1131D10882311F081E03FC00E941F0D882321F029
S1131D200E942B0D82E037C00E94020D882379F1B6
S1131D3082EF90E0FC018081898316C001EF10E0FE
S1131D408B819C819C012F5F3F4F3C832B836F8150
S1131D500E94180EF80180838D819E8101979E83D5
S1131D608D8389818F5F89838D819E81892B21F069
S1131D7099818A81981710F399818A81981711F4AF
S1131D800E940E0D8D819E81892B19F0B5CF000024
S1131D90B3CF000080E027960FB6F894DEBF0FBEE5
S1131DA0CDBFDF91CF911F910F910895CF93DF9312
S1131DB0CDB7DEB780913B03882F90E08C719927D3
S1131DC0892B11F483E02EC00E94E50C882311F0C6
S1131DD081E028C00E941F0D882321F00E942B0D52
S1131DE082E020C00E94020D882309F4E3CF0E9400
S1131DF00E0D000010C080913B03882F90E08C7181
S1131E009927892B11F483E00DC00E94E50C8823E7
S1131E1011F081E007C00E941F0D882361F30E9426
S1131E202B0D80E0DF91CF910895CF93DF93CDB751
S1131E30DEB728970FB6F894DEBF0FBECDBF9B83E5
S1131E408A837D836C834E8338872F832C813D81E5
S1131E508F8198852817390708F4C9012A813B81A5
S1131E604E81BC01C9010E94680E8983898188233F
S1131E7019F40E94D60E8983898128960FB6F894A6
S1131E80DEBF0FBECDBFDF91CF910895CF93DF9317
S1131E90CDB7DEB728970FB6F894DEBF0FBECDBF1F
S1131EA09C838B837E836D8358874F831A82198228
S1131EB08D819E81FC01118210828F819885892BEE
S1131EC009F44EC080913B03882F90E08C719927D0
S1131ED0892B11F483E045C00E94E50C882311F09E
S1131EE081E03FC00E941F0D8823C1F112C08B8185
S1131EF09C819C012F5F3F4F3C832B8321EF30E07B
S1131F00F9012081FC01208389819A8101969A83B9
S1131F10898382EF90E0FC018081882339F0298154
S1131F203A818F8198852817390708F382EF90E06A
S1131F30FC018081882311F40E942B0D29813A81B0
S1131F408F8198852817390708F4BCCF8D819E812D
S1131F5029813A81FC013183208302C00000B2CF81
S1131F6080E028960FB6F894DEBF0FBECDBFDF9198
S1131F70CF910895CF93DF93CDB7DEB70E942B0D99
S1131F800E94030EDF91CF910895CF93DF93CDB7D5
S1131F90DEB727970FB6F894DEBF0FBECDBF9B8385
S1131FA08A837D836C835F834E834E815F812C8122
S1131FB03D818A819B81B9010E94460F8983898171
S1131FC0882319F40E94BA0F8983898127960FB652
S1131FD0F894DEBF0FBECDBFDF91CF910895CF93AC
S1131FE0DF9300D0CDB7DEB78BE393E09A83898388
S1131FF089819A81FC018081882F90E088719927DA
S1132000892B71F00E94F10C89819A81019621E05B
S113201030E040E061E070E00E94150F80E001C014
S113202081E00F900F90DF91CF910895FF920F936D
S11320301F93CF93DF93CDB7DEB72C970FB6F894E9
S1132040DEBF0FBECDBF9C878B878BE393E09C8361
S11320508B838B859C85FC0182819381892F9927B1
S113206082309105E1F083309105E9F1019709F09F
S1132070CEC00E94F10C8B859C85FC0126813781A2
S11320808B819C81FC0144858B819C81FC01828134
S1132090938162E170E00E94150F80E0B9C08B85E6
S11320A09C85FC01828193818D838D81882309F035
S11320B0ABC00E94F10C8B859C85FC012681378185
S11320C08B819C81FC0144858B819C81FC018681F0
S11320D0682F70E08B819C81FC01848195810E9432
S11320E0150F80E095C08B859C85FC0182819381CE
S11320F08E838B819C81FC0182859385892B71F071
S11321008B819C81FC01228533858B859C856E8126
S1132110F9010995882311F480E07AC08B819C81B0
S1132120FC0191858E81891708F070C08B819C8198
S1132130FC018485882F90E08130910519F0029785
S1132140F1F02EC08B819C81FC01278130858E812A
S1132150882F90E0880F991F820F931F98878F8391
S11321608F819885FC0125913491CF013A87298785
S113217098878F8389859A859A83898323C08B81E5
S11321809C81FC01278130858E81882F90E0880F07
S1132190991F820F931F0E94A2179A83898312C0EA
S11321A08B819C81FC01278130858E81882F90E072
S11321B0880F991F820F931FFC01808191819A835C
S11321C08983000089819A81892B01F10E94F10C95
S11321D08B859C85FC01068117818B819C81FC0188
S11321E0F4848B819C81FC01248589819A81622FEE
S11321F00E94180E682F70E089819A8198014F2DF2
S11322000E94150F80E004C0000001C0000081E0BE
S11322102C960FB6F894DEBF0FBECDBFDF91CF91E1
S11322201F910F91FF900895CF93DF9300D000D0BA
S11322301F92CDB7DEB79D838C838BE393E09A83A3
S1132240898389819A81FC018081882F90E08C7038
S11322509927892B49F18C819D81FC01828193818D
S11322608F778B830E94F10C83EE90E02B81FC012D
S113227020830E94030E83EE90E023EE30E0F90108
S113228020812068FC0120838B81882331F089819F
S11322909A8128E0FC01208305C089819A8124E089
S11322A0FC01208380E001C081E00F900F900F902B
S11322B00F900F90DF91CF910895CF93DF9300D0CB
S11322C000D000D0CDB7DEB79E838D838BE393E03F
S11322D09A83898389819A81FC018081882F90E087
S11322E088719927892B09F43EC08D819E81FC0158
S11322F0828193818B838B81882351F489819A8194
S113230028E0FC01208389819A81FC01118225C087
S113231089819A81FC01248589819A81FC018481C7
S113232095810596622F0E94180E8C839B818C8167
S1132330981789F489819A8120E1FC01208389819D
S11323409A812B81FC0121830E94AB1389EE90E0DA
S1132350FC01108202C081E007C00E94F10C0E94BF
S1132360030E80E001C081E026960FB6F894DEBF2C
S11323700FBECDBFDF91CF910895CF93DF93CDB73B
S1132380DEB729970FB6F894DEBF0FBECDBF89EE36
S113239090E0FC0110820E94E50C882309F462C0DD
S11323A0CE01029668E00E94C80D81E089838A818B
S11323B0882F90E080769927892B09F040C08B8183
S11323C0882F90E0092E000CAA0BBB0B40E050E0D4
S11323D02CE030E0841B950B2817390738F1865C14
S11323E09F4FFC010C948D178A81803809F50E9457
S11323F0EF0F89831DC08A818038E1F4CE010296F3
S11324000E941610898316C08A818823A9F4CE01FC
S113241002960E94141189830FC08A81882371F463
S1132420CE0102960E945D11898308C0000007C096
S1132430000005C0000003C0000001C00000898145
S1132440882329F0CE0102960E94D813898389EE4D
S113245090E0FC0110828981882321F00E94F10C14
S11324600E943C0D000029960FB6F894DEBF0FBE03
S1132470CDBFDF91CF910895CF93DF9300D000D0EB
S113248000D0CDB7DEB78B836C834D832E838D81D3
S1132490882F90E08031910541F08032910541F020
S11324A0089749F482E0898309C082E1898306C0E0
S11324B082E2898303C082E3898300008C81837074
S11324C08A8389EE90E02B812770FC0120838BEEB8
S11324D090E02BEE30E0F90120812160FC012083A3
S11324E08CEE90E02A81222F30E000243695279547
S11324F00794369527950794322F202D322F2B8160
S1132500221F2227221F232BFC0120838DEE90E023
S11325102E81222F30E021703327220F331F220F08
S1132520331F322F2981232BFC01208380EF90E07D
S1132530FC0110820000000026960FB6F894DEBF5E
S11325400FBECDBFDF91CF910895CF93DF9300D01D
S11325501F92CDB7DEB78BE393E09A838983898199
S11325609A81FC01248589819A81FC01828193816D
S11325700796622F0E94180E8B8320E04B8160E047
S113258080E00E943C1200000F900F900F90DF91AA
S1132590CF910895CF93DF93CDB7DEB70E94A512F4
S11325A084E080933B0310923C030000DF91CF91C1
S11325B00895CF92EF92FF920F93CF93DF93CDB70D
S11325C0DEB72D970FB6F894DEBF0FBECDBF9C8348
S11325D08B837E836D834F83398728870A87FC86A4
S11325E0EB86CD868BE393E09A83898389819A81F4
S11325F04DE050E060E070E00E94931789819A8179
S1132600FC01108289819A81FC01118289819A815D
S11326102B813C81FC013383228389819A812D8122
S11326203E81FC013583248389819A812F81FC01B9
S1132630268389819A8128853985FC0130872783FF
S113264089819A812A85FC01218789819A812B8538
S11326503C85FC013387228789819A812D85FC0181
S1132660248788ED90E020E2FC0120838BEF90E04A
S1132670FC01108289E490E024E0FC01208389E4D9
S113268090E026E0FC012083000089E490E0FC0156
S11326908081882F90E081709927892BB1F388ED90
S11326A090E020EAFC01208388ED90E020E8FC0122
S11326B0208382EE90E0FC01108281EE90E0FC0128
S11326C0108282EE90E029E0FC01208380EE90E00D
S11326D0FC01108289819A8124E0FC01208300009E
S11326E02D960FB6F894DEBF0FBECDBFDF91CF910C
S11326F00F91FF90EF90CF9008950F931F93CF9376
S1132700DF9300D01F92CDB7DEB79A8389836B83A2
S11327108B818330B9F40E94F10C89819A81FC0188
S11327200681178162E080E090E00E94180E882FF5
S113273090E0980142E0BC0180E090E00E94150F17
S113274080E001C081E00F900F900F90DF91CF9156
S11327501F910F910895CF93DF93CDB7DEB700009B
S1132760DF91CF910895CF93DF9300D0CDB7DEB73B
S113277080910301882F90E09A838983109203014A
S11327800E94C90B882329F089819A8182609A83E7
S113279089830E94F00B882329F089819A818061C2
S11327A09A83898389810F900F90DF91CF91089547
S11327B0CF93DF93CDB7DEB7C855D1090FB6F894E0
S11327C0DEBF0FBECDBF9E01295A3F4FF901918351
S11327D08083CE01895A9F4FFC0180819181FC0145
S11327E08081882F90E08F7799278134910511F0AB
S11327F081E001C2CE01895A9F4FFC018081918101
S1132800FC018181882F90E0092E000CAA0BBB0BE0
S113281040E350E021E230E0841B950B2817390790
S113282008F4E7C1895B9F4FFC010C948D170E944B
S1132830F10C8FE590E0FC0180818E830E94FD0005
S113284089835DC0CE01895A9F4FFC0180819181AB
S1132850FC018281938180789927892B61F0A89566
S113286080E690E028E1FC01208380E690E02CE003
S1132870FC01208343C0CE01895A9F4FFC01808113
S11328809181FC018281938181709927892B39F18F
S1132890CE01895A9F4FFC0180819181FC01848182
S11328A095818093070180910201882F90E08170C7
S11328B09927892B39F40E94E103809102018160F8
S11328C080930201CE01895A9F4FFC01808191813E
S11328D0FC018281938182700E94170C0FC0809149
S11328E00201882F90E081709927892B39F00E948A
S11328F07404809102018E7F809302011982898180
S1132900882309F09FCFCE0106960E9406010E94FB
S1132910030E80E070C10E94F10C0E94B3138F83F8
S1132920CE01895A9F4FFC0180819181FC0126814F
S11329303781CE01079640E061E070E00E94150FF8
S113294080E059C10E94F10CCE01895A9F4FFC01CD
S113295080819181FC01868197819B838A831C827B
S11329608A819B81892B81F08A819B8101979B833A
S11329708A830E94B3138887CE01089640E061E001
S113298070E00E94680E8C838C81882309F043C018
S11329903DC085E48D838A819B818130914018F408
S11329A08A8181508D83CE01419601966D810E946A
S11329B0B209898B8989181604F58989082E000CB7
S11329C0990B2A813B81A901481B590BCA01019724
S11329D09B838A830E945D0C8989082E000C990BC5
S11329E001969C01CE01419640E0B9010E94680E17
S11329F08C838C81882351F00EC0CE01419640E037
S1132A0061E070E00E94680E8C8305C08A819B811E
S1132A10029708F0BECF8C81882311F40E94D60E51
S1132A2080E0E9C00E94F10CCE01895A9F4FFC015D
S1132A3080819181FC01868197818634910510F013
S1132A4085E490E0BE01675F7F4F9E012F5E3F4F9C
S1132A50AC01C9010E94C50F89859A850597D0F0FC
S1132A60CE0141960E94940B882371F00E94850C3C
S1132A70CE0141960E94990A882389F0809103012E
S1132A808068809303010BC080910301806480936C
S1132A90030105C08091030180628093030180E0FB
S1132AA0AAC00E94F10CCE01895A9F4FFC0180817B
S1132AB09181FC01868197819C0140E066E270E08F
S1132AC085E193E00E94150F80E095C00E94F10C0F
S1132AD0CE01895A9F4FFC0180819181FC0186813E
S1132AE097819C0140E069E070E088E091E00E94F9
S1132AF0150F80E080C00E94F10CCE01895A9F4FCF
S1132B00FC0180819181FC01868197819C0140E0D8
S1132B1062E071E081E191E00E94150F80E06BC0FA
S1132B200E94F10CCE01895A9F4FFC018081918152
S1132B30FC01868197819C0140E062E071E083E1C1
S1132B4092E00E94150F80E056C00E94F10C0E9492
S1132B50D60C9C878B870E94AD0C9E878D87CE01F7
S1132B60895A9F4FFC0180819181FC012681378124
S1132B70CE010B9640E064E070E00E94150F80E007
S1132B803AC00E94F10CCE01419642E450E06FEF4E
S1132B9070E00E949317CE01895A9F4FFC018081F7
S1132BA09181FC01868197818134910510F080E444
S1132BB090E0BE01615F7F4F9E012F5E3F4F2E5F0D
S1132BC03F4FAC01C9010E94C50F8F8598898E5F64
S1132BD0898B83E08A8B8F8598899C012E5F3F4F78
S1132BE0CE014196A90160E070E00E94A81780E040
S1132BF002C0000081E0C85ADF4F0FB6F894DEBF70
S1132C000FBECDBFDF91CF9108951F920F92009018
S1132C105F000F9211242F933F938F939F93EF9311
S1132C20FF93CF93DF93CDB7DEB7809104018F5F1D
S1132C308093040180910401882F90E08F7099277C
S1132C40892B09F07DC080910001880F80930001D9
S1132C5080910001882F90E08830910509F440C0EC
S1132C60893091054CF48230910521F1843091052D
S1132C7061F1892BA1F063C08032910509F446C04B
S1132C80813291051CF44097B1F159C0803491050B
S1132C9009F447C08038910509F44EC050C085E25C
S1132CA090E025E230E0F901308120E22327FC01A5
S1132CB0208345C085E290E025E230E0F9013081CF
S1132CC020E22327FC0120833AC085E290E025E23C
S1132CD030E0F901308120E42327FC0120832FC058
S1132CE085E290E025E230E0F901308120E82327F5
S1132CF0FC01208324C085E290E025E230E0F90164
S1132D00308120E22327FC01208319C085E290E072
S1132D1025E230E0F901308120E42327FC012083FF
S1132D200EC085E290E025E230E0F901308120E830
S1132D302327FC01208303C01092000100C000007F
S1132D4080910501882391F0809105018150809341
S1132D50050180910501882349F485E290E025E28C
S1132D6030E0F90120812F7BFC0120838091060152
S1132D70882391F08091060181508093060180910F
S1132D800601882349F485E290E025E230E0F90168
S1132D9020812F77FC0120830000DF91CF91FF91E8
S1132DA0EF919F918F913F912F910F9000925F002F
S1132DB00F901F901895CF93DF9300D01F92CDB73B
S1132DC0DEB7A89584E590E0FC0180818B8384E5DF
S1132DD090E0FC0110820FB6F894A89580916000F1
S1132DE0886180936000109260000FBECE0103964C
S1132DF0FC018081882F90E088709927892B11F03D
S1132E000C94001885E290E02FE1FC01208388E215
S1132E1090E02FEFFC0120838BE290E02FE7FC0190
S1132E20208384E290E020EEFC01208387E290E09E
S1132E30FC0110828AE290E0FC011082198280E891
S1132E408A838A8199810FB6F89480936100909364
S1132E5061000FBE80E890E0FC01108281E890E000
S1132E6022E0FC01208386E390E02FEFFC01208325
S1132E708FE690E021E0FC01208380E090E00E9456
S1132E80A217019681F464E080E090E00E94B817F4
S1132E9063E081E090E00E94B81768E770E082E0A8
S1132EA090E00E94CA1700000F900F900F90DF91DE
S1132EB0CF910895CF92EF92FF920F93CF93DF9328
S1132EC0CDB7DEB7F8940E94DB16CC24C3940F2E42
S1132ED0FDE7EF2EF3E1FF2EF02D03E02AE531E0CC
S1132EE042E164EE70E082ED90E00E94D91283E545
S1132EF090E023E530E0F9012081217FFC0120836B
S1132F0083E590E023E530E0F90120812160FC01B4
S1132F10208378940E94BD11FDCFEE0FFF1F059012
S1132F20F491E02D0994DC0101C06D9341505040AF
S1132F30E0F70895F999FECF92BD81BDF89A9927DB
S1132F4080B50895A8E1B0E042E050E00C94D217B7
S1132F50DC01A40FB51F4150504048F0CB01840F51
S1132F60951F2E910E94B91741505040D0F70895F3
S1132F70262FF999FECF92BD81BDF89A019700B42E
S1132F80021639F01FBA20BD0FB6F894FA9AF99ACE
S1132F900FBE08950196272F0E94B9170C94B817F5
S1132FA0DC01CB01FC01F999FECF06C0F2BDE1BD05
S1132FB0F89A319600B40D9241505040B8F70895F4
S1072FC0F894FFCFAF
S1052FC4010006
S9030000FC
