S013000073626F786E6574327573622E7372656392
S11300000C94A5000C94D0000C94D0000C94D00057
S11300100C94D0000C94D0000C94D0000C94D0001C
S11300200C94D0000C94D0000C94D0000C94F907DC
S11300300C94D0000C94D0000C94D0000C94D000FC
S11300400C9464050C94D0000C949A0B0C94D0007E
S11300500C94D0000C94D0000C94D0000C946B023F
S11300600C94D0000C9451030C94D0000C94D00048
S11300700C94D000A208E208F6085609420A420A83
S1130080420A420A420A420A9609A709B809C9095A
S1130090420A420ADA09420A420A420A420A420A65
S11300A0420A420A420A420A420A420A420A420AEC
S11300B0420A420A420A110A081020402201DC00C6
S11300C0C2001803730062006F0078006E006500C0
S11300D07400320075007300620000004403540091
S11300E068006F006D006100730020004D00610026
S11300F069006500720020003C00620061006C0031
S113010061006700690040006A00750073007400B4
S11301106D00610069006C002E00640065003E0003
S113012000000403090409021200010100801909F6
S113013004000000FFFFFF0012011001FFFFFF4059
S113014023F102A001010102030111241FBECFEF1C
S1130150D4E0DEBFCDBF11E0A0E0B1E0E8EEF8E10D
S113016002C005900D92A230B107D9F723E0A2E0B6
S1130170B1E001C01D92A834B207E1F788E493E02E
S113018024E08F3F920740F4FC012FEF34E085EA2E
S11301908193E217F307E1F70E94000C0C94720CB0
S11301A00C940000EBE2F3E080819181019691834D
S11301B080830895E1E3F3E0808191810196918346
S11301C080830895E5E1F3E0808191810196918334
S11301D080830895E8E0F1E08085982F990F8927BE
S11301E0982F96958927982F990F990F892780879B
S11301F00895FC01948127818681890F821788F4F0
S11302009F5F94838381DF01A80FB11D18966C93BF
S11302108F5F821718F4838381E00895138281E04D
S11302200895E8E0F1E081818460818380E00895AD
S1130230FC0186819181891740F4A8E0B1E0119610
S11302409C911197926011969C939181891B86834E
S11302501182808182830895FC01818196818917AE
S113026078F48F5F81839081DF01A90FB11D189607
S11302708C919F5F90832781921740F0108208959C
S1130280E8E0F1E081818260818380E0089520913B
S1130290840030918500820F931F90938B0080938C
S11302A08A0084E086BBEFE6F0E08081846080838E
S11302B00895CF93DF93C8E0D1E08C8181110DC004
S11302C0FE01E55FFE4F8681873008F11B82CF0176
S11302D00E942C018C838823D1F08B81811117C05B
S11302E08881811114C00E94EA002A8130E0220F23
S11302F0331F28573F4F94E09CBB91E09093080133
S11303008F73A901480F511DCA010E944701DF9153
S1130310CF910895FC0123812F732A5F8FB7F8943E
S113032090911A0230911902931B30911702931B7A
S11303308FBF81E0291708F080E008958FB7F89403
S1130340E8E0F1E097852285921B8FBF81E096302B
S113035008F480E008958FB7F89490911A022091E0
S11303601902921B20911702921B8FBF81E09730D4
S113037008F480E00895882331F0E8E0F1E0818119
S1130380816081830895E8E0F1E081818E7F81833B
S11303900895CF93DF93C0910501109205010E9447
S11303A09E01811102C0D0E002C0C260D0E00E9470
S11303B0AB018111C0618C2FDF91CF910895CF9350
S11303C0DF931F92CDB7DEB7A89584B7898314BE97
S11303D00FB6F894A89580916000886180936000BE
S11303E0109260000FBE898183FF02C00C94001834
S11303F08FE185B98FEF88B99FE79BB990EE94B9E7
S113040017B81AB820E090E80FB6F89490936100FA
S1130410209361000FBE1092800092E090938100BF
S113042086BB81E080936F0080E090E00E94340CF2
S1130430019681F464E080E090E00E944A0C63E05D
S113044081E090E00E944A0C68E770E082E090E06E
S11304500E945C0C0F90DF91CF910895E8ECF0E0DE
S1130460808181608083E9ECF0E080818069808311
S11304700895E8E0F1E083E392E0DF019C011D923E
S113048021503040E1F780916600808789E18283C2
S11304908AEF808B80931A0252985A9A5B9A539AE5
S11304A0EA98E9E6F0E080818F7D80838081806135
S11304B0808384E08CBB1092CD0093E09093CC00B9
S11304C090E49093C80096E29093CA008093C90088
S11304D00E942E0208951F920F920FB60F921124BC
S11304E0EF92FF920F931F932F933F934F935F933A
S11304F06F937F938F939F93AF93BF93CF93DF9328
S1130500EF93FF93C8E0D1E01091C8009091C90027
S11305100091CE00812F8C71D1F00E94D20014FF83
S113052008C0FE01EB5DFD4F8081918101969183AE
S1130530808313FD0E94DA0012FF93C0FE01E95D7F
S1130540FD4F808191810196918380838AC091FFC0
S113055036C08D85882369F0FE01E55DFD4F8081FD
S113056091810196918380830E94D2001D868E859D
S11305708C8780910701081729F00F3F19F08981B2
S113058080FF6FC0E8ECF0E080818E7F80837E0185
S113059089E0E80EF11C60E0C7010E94F90088239D
S11305A059F0602FC7010E94F900882329F00E94A6
S11305B0E20086E08F835EC00E94DA0050C08D8521
S11305C09F81981748F4FE01E35DFD4F808191817E
S11305D001969183808343C0843021F4802F8F73EC
S11305E08A5F8F83602FCE0109960E94F9008111E2
S11305F003C00E94DA0033C00E94E2004F812D85BF
S113060030E0842F90E001962817390799F58E85FC
S1130610FE01E80FF11D418B1F82E8ECF0E08081C0
S1130620816080839F858D85482F50E0490F511D3F
S1130630288930E0241735072CF4E8E0F1E0218123
S113064024602183890F8F871D868C858E87E7E13F
S1130650F3E0808191810196918380830BC00E9495
S1130660D2001F82E8ECF0E08081816080831D86E7
S11306708E858C87FF91EF91DF91CF91BF91AF91E0
S11306809F918F917F916F915F914F913F912F91A6
S11306901F910F91FF90EF900F900FBE0F901F903E
S11306A018951F920F920FB60F9211240F931F9358
S11306B02F933F934F935F936F937F938F939F9366
S11306C0AF93BF93CF93DF93EF93FF93C8E0D1E051
S11306D08091C800482F44713091CE002D81882329
S11306E02CF441110DC0321313C068C0FE01E55E45
S11306F0FD4F80819181019691838083442341F051
S1130700FE01E35EFD4F8081918101969183808398
S1130710321741F0FE01E15EFD4F80819181019627
S1130720918380835B98E9ECF0E08081877A808311
S113073082E08883FE01E75EFD4F8081918101960E
S1130740918380838A81811105C09B818C81981754
S113075088F01CC081508A83FE01E55FFE4F118240
S113076082818083EA5EFE4F80819181019691832C
S113077080831DC08E01055F1E4FC8010E942C019D
S11307808B818F5F8B839C818917B8F31C821B82BA
S113079089E18A83CE01855F9E4F0E941801FE0184
S11307A0EF5CFD4F808191810196918380831C824F
S11307B01B8280E890E00E94470141C0E9ECF0E030
S11307C080818F7680838081806180839B818C810E
S11307D0981788F4CE01855F9E4F0E942C019B815F
S11307E09F5F9B838D83E9ECF0E090819E7F9083F3
S11307F08093CE001DC0E9ECF0E080818F7B808384
S11308001C821B82CE01855F9E4F0E941801EFE17E
S1130810F3E0808191810196918380830E942E026E
S11308208881833009F4188289E18A830E945901FE
S1130830CD5EDD4F88819981019699838883FF91EC
S1130840EF91DF91CF91BF91AF919F918F917F9164
S11308506F915F914F913F912F911F910F910F9045
S11308600FBE0F901F901895DF92EF92FF920F9397
S11308701F93CF93DF93AC01663008F473C09FB726
S1130880F894E8E0F1E037852285832F821B8730D6
S113089008F472C0231738F4E0911101F0E0E85F26
S11308A0FE4FC1896AC0E8E0F1E021812260218322
S11308B0C0E063C0EC2FF0E03196282F30E02E1713
S11308C03F070CF451C06C1708F450C0C63408F04C
S11308D04FC08A01DFB7F89481E191E00E942C01B6
S11308E0DFBFCC2309F178014FEF4C0F50E04F5F8D
S11308F05F4F040F151FDFEFDFB6F89481E191E03D
S11309000E942C01DFBE9D2F982728E03CE8969595
S113091008F493272A95D9F7D92FF70181937F01FA
S11309200E171F0749F701C0DFEF1FB7F89481E1E5
S113093091E00E9418011FBFDD2359F00E94D200EC
S1130940E7E3F3E0808191810196918380838EEFC8
S113095019C0E9E1F3E0808191810196918380835C
S11309608C2F10C08DEF0EC08FEF0CC08DEF0AC01E
S11309708CEF08C08FEF06C0C0E09FBFC63008F000
S113098099CFF8CFDF91CF911F910F91FF90EF9006
S1130990DF900895DF92EF92FF920F931F93CF930E
S11309A0DF93FC0103810F730A5F8FB7F894909172
S11309B01A0220911902921B20911702921B8FBFD9
S11309C0091708F078C07F01CFB7F894602F83E14E
S11309D092E00E94F900CFBF882309F437C010E0E9
S11309E0015011091016110634F5D12CCFEF81E016
S11309F0D81203C06091070104C0F701ED0DF11D89
S1130A0060819C2F962788E02CE8969508F492271D
S1130A108A95D9F7C92FDFB7F89483E192E00E9451
S1130A20F900DFBF882391F0D3948D2D90E08017D7
S1130A309107ECF201C0CFEFDFB7F8946C2F83E19C
S1130A4092E00E94F900DFBF81110BC08FB7F894C8
S1130A501092170290911802909316028FBF81E0B2
S1130A602BC0CFB7F8948091190290911702482FA8
S1130A7050E0490F511D20911A0230E02417350728
S1130A802CF4E8E0F1E0218124602183890F809334
S1130A9019021092170280911602809318020E9484
S1130AA05901CFBFEDE1F3E08081918101969183FB
S1130AB0808380E001C081E0DF91CF911F910F918D
S1130AC0FF90EF90DF9008951F920F920FB60F9250
S1130AD011242F933F934F935F936F937F938F933F
S1130AE09F93AF93BF93CF93EF93FF93EFE6F0E021
S1130AF080818B7F808380910801813009F05BC005
S1130B0080910C01882309F453C080910B01811159
S1130B104FC09091190280911402891738F4E09122
S1130B201302F0E0ED5EFD4FC08506C0E8E0F1E0A1
S1130B30818182608183C0E05B9AE9ECF0E080818E
S1130B4089608083E29902C04A9916C00E94EA0033
S1130B50E8E0F1E0228130E0220F331F28583F4FB4
S1130B6094E09CBB91E090838F73A901480F511DC1
S1130B70CA010E9447013EC0E9ECF0E080818F7613
S1130B808083808180658083C093CE00E8ECF0E0B0
S1130B9080818E7F808383E192E00E942C01E8E0D3
S1130BA0F1E0C58383818F5F838383E0808322C0E8
S1130BB0109208011FC0823051F45B9AC4E0C093C4
S1130BC0080180E290E00E944701CCBB13C084304E
S1130BD089F4E29909C04A9B07C00E942E02109230
S1130BE008010E94590106C084E08CBB80E290E0B9
S1130BF00E944701FF91EF91CF91BF91AF919F91D7
S1130C008F917F916F915F914F913F912F910F90B1
S1130C100FBE0F901F901895662341F0E82FF92F0F
S1130C20A1EFB0E08C9181936150E1F70895E8EE73
S1130C30F0E0ABE3B3E003C08C918C7129F08081C8
S1130C4080FFFACF80E0089583E008950E9417069C
S1130C50811107C0E8EEF0E080818E7F80830E94DE
S1130C6017060895613019F0623021F006C0FC01C6
S1130C70849108950E942C0C0895FC0180810895AC
S1130C80E091ED00E295EF70E370F0E0E854FF4F7F
S1130C90849108952F923F924F925F926F927F9228
S1130CA08F929F92AF92BF92CF92DF92EF92FF9278
S1130CB00F931F93CF93DF934C01EB01342E0E94CB
S1130CC04006482E0F2EFBE3AF2EF3E0BF2EF02D8F
S1130CD00F2EF8EECF2ED12CF02D0F2EF2EF6F2E1B
S1130CE0712CF02D0F2EF1EFEF2EF12CF02DF501DC
S1130CF080818C71A9F1F601808183FD36C08081E9
S1130D00F82FF4702F2E82FF09C0E8EEF0E0808106
S1130D108B7F80836894222421F835C0F60180817A
S1130D2080FFE5CFF3015080209711F1541418F59A
S1130D3084010F5F1F4F632DC4010E943206F70127
S1130D40808321975394209799F04801541480F399
S1130D5012C0F60180818E7F8083209741F613C0F4
S1130D600F2EF3E02F2EF02D0EC0222423940BC05F
S1130D70451421F008C04510BACFEBCFE8EEF0E0FF
S1130D8080818E7F8083822DDF91CF911F910F917F
S1130D90FF90EF90DF90CF90BF90AF909F908F9097
S1130DA07F906F905F904F903F902F900895ABE3AA
S1130DB0B3E0E8EEF0E08C918C7149F1808183FD21
S1130DC028C09081892F847092FF07C0E8EEF0E07C
S1130DD080818B7F808382E00895908190FFEBCFA8
S1130DE0E8EEF0E090819E7F9083ABE3B3E006C031
S1130DF09C919C7181F0908193FD0FC0908192FF32
S1130E00F7CFE8EEF0E090819B7F9083089583E034
S1130E10089581E0089583E0089581E008956217BC
S1130E20730708F49B01B9010E944A06811102C0AC
S1130E300E94D7060895CF93DF936330C9F4DC0191
S1130E40E8EEF0E02081277F20831696CD91DC9197
S1130E50179762E080E090E00E943206682F70E00D
S1130E609E0142E080E090E00E940F0780E001C014
S1130E7081E0DF91CF910895AF92BF92CF92DF923C
S1130E80EF92FF920F931F93CF93DF935B01EA01DD
S1130E90FB0111821082209709F441C020E030E068
S1130EA00F2EFBE3CF2EF3E0DF2EF02D0F2EF8EE06
S1130EB0EF2EF12CF02DA2EFB0E001EF10E0F601DF
S1130EC040814C7171F1F7014081642F687043FDDA
S1130ED02AC0408142FFF3CF4C91442391F02C1758
S1130EE03D0718F50196F8015081FC0131975083B4
S1130EF02F5F3F4F5C91552321F02C173D0790F352
S1130F0014C04C91411104C0F70140814B7F4083D0
S1130F102C173D07A0F2F501318320830AC060E05D
S1130F2008C063E006C061E004C04C91442361F34F
S1130F30F2CF862FDF91CF911F910F91FF90EF9009
S1130F40DF90CF90BF90AF900895E8EEF0E08081FD
S1130F508B7F80830E94260608950E943C0781119E
S1130F6002C00E94A5070895403129F0403229F0BB
S1130F70483029F406C032E105C032E203C032E34E
S1130F8001C032E0982F97709093E900ABEEB0E087
S1130F909C9191609C936295660F660F607C881F9C
S1130FA08827881F862B8093EC00E22FE170F0E005
S1130FB0EE0FFF1FEE0FFF1FE32BE093ED001092E7
S1130FC0F0000895EBE3F3E0828193816485079652
S1130FD00E94320620E0482F60E080E00E94B407BF
S1130FE008950E94E207EBE3F3E084E0808311823A
S1130FF008951F920F920FB60F9211241F932F93EF
S11310003F934F935F936F937F938F939F93AF938C
S1131010BF93EF93FF93CF93DF9300D0CDB7DEB7A9
S11310208091E10089838091E2008A831091E90034
S1131030898189818981898183FF09C08A8183FDAE
S11310400E94F107E1EEF0E08081877F808389814F
S113105089811092E1001093E9000F900F90DF91C5
S1131060CF91FF91EF91BF91AF919F918F917F911C
S11310706F915F914F913F912F911F910F900FBEF0
S11310800F901F901895CF92EF92FF920F93EBE37E
S1131090F3E05DE0DF011D925A95E9F71082938336
S11310A08283758364834683308727830187F3862D
S11310B0E286C48680E28093D8001092FB0084E02C
S11310C089BD86E089BD09B400FEFDCFE8EDF0E0FE
S11310D080EA808380E88083E2EEF0E01082109260
S11310E0E10089E080831092E00084E080933B0378
S11310F00F91FF90EF90CF900895EF92FF920F938E
S11311001F93CF93DF93CDB7DEB7C854D1090FB681
S1131110F894DEBF0FBECDBFDC019C919F77913464
S113112009F0AEC11196EC9111974E2F50E0FA01DF
S1131130F097E232F10508F0A5C18D01E65CFF4F9E
S11311400C941F0CE8EEF0E08081877F8083FFB66B
S1131150F894FD01828187FF08C0A895E0E6F0E0DD
S113116088E180838CE080838FC180FF15C0FD01FE
S11311708481809307018091060180FD07C00E944D
S1131180390280910601816080930601F801828111
S113119082700E94BB0178C18091060180FF74C1F6
S11311A08FB7F8941092080194E09093C900529874
S11311B053985B9AEA988FBF809106018E7F809343
S11311C0060162C1E8EEF0E08081877F80830E949F
S11311D0C9018983F8012681378140E061E070E02C
S11311E0CE0101960E940F0780E052C1E8EEF0E0C4
S11311F08081877F8083FD01E680F780E114F1041C
S113120009F450C00E94C90128968FAF289740E086
S113121061E070E0CE01895B9F4F0E944A06811114
S113122043C0F1E0EF1AF10822E0E216F104D0F134
S113123013E081E0E816F80618F46FEF6E0D01C0B4
S113124065E4CE0102960E943404082F898318169F
S1131250A4F48FB7F894109303012E9A8FBF698179
S1131260062E000C770B6F5F7F4F40E0CE01019696
S11312700E944A06882359F017C040E061E070E0FC
S1131280CE0101960E944A06882361F00DC0E01A3F
S1131290F10807FDF394E1E0EE1AF108F2E0EF162D
S11312A0F10438F60E94D70680E0F2C0E8EEF0E0E0
S11312B08081877F8083FD014681578146345105B3
S11312C010F045E450E0BE01695B7F4FCE0101960A
S11312D00E94AD0729968EAD9FAD29970597F8F02A
S11312E0CE0101960E948A01882399F08FB7F89461
S11312F093E0909302012F9A8FBFCE0101960E9432
S1131300CA04882389F080910501806880930501CF
S11313100BC08091050180648093050105C0809114
S1131320050180628093050180E0B2C0E8EEF0E040
S11313308081877F8083FD012681378140E066E2DA
S113134070E085E193E00E940F0780E0A1C0E8EE21
S1131350F0E08081877F8083FD012681378140E032
S113136069E070E088E091E00E940F0780E090C09F
S1131370E8EEF0E08081877F8083FD01268137815C
S113138040E062E071E081E191E00E940F0780E0BB
S11313907FC0E8EEF0E08081877F8083FD012681B5
S11313A0378140E062E071E083E192E00E940F0740
S11313B080E06EC0E8EEF0E08081877F80838FEF6D
S11313C094E0885493409A83898388E493E08F5F00
S11313D0944090F480914803853A89F489E493E039
S11313E04FEF54E004C001962081253A51F4FC01EA
S11313F048175907C1F705C0E8E4F3E002C0E8E480
S1131400F3E0E854F340FC83EB83F8012681378151
S113141040E064E070E0CE0101960E940F0780E096
S113142037C0E8EEF0E08081877F808342E450E0BB
S11314306FEF70E0CE0101960E94250CF801468101
S113144057814134510510F040E450E0BE01695B1E
S11314507F4FCE0103960E94AD0729964EAD5FAD36
S1131460299782E0840F898383E08A834E5F5F4FEC
S113147060E070E0CE0101960E943A0C80E008C062
S113148081E006C081E004C0FFBE0E94260680E021
S1131490C85BDF4F0FB6F894DEBF0FBECDBFDF9140
S11314A0CF911F910F91FF90EF900895CF92DF920B
S11314B0EF92FF920F931F93CF93DF93CDB7DEB7D5
S11314C028970FB6F894DEBF0FBECDBF1092E90087
S11314D08091E80083FF1FC168E0CE0101960E945D
S11314E00C068981982F907609F000C19A81963074
S11314F011F120F4953009F4ACC0F8C0983021F013
S1131500993009F4CBC0F2C0803809F0EFC0809163
S11315103B03887109F4EAC0E8EEF0E08081877F3C
S1131520808321E030E040E061E070E08CE393E010
S11315300E940F07EEC0803809F0D8C00B811C81CF
S1131540812F992782309105B9F08330910539F1C3
S1131550019709F0CBC0E8EEF0E08081877F8083BB
S11315602F813885EBE3F3E0448562E170E082810A
S113157093810E940F07CDC00111B8C0E8EEF0E0DE
S11315808081877F80832F813885EBE3F3E0668158
S113159070E04485848195810E940F07BAC0F02EC3
S11315A0E0914503F0914603309739F0602FCE0166
S11315B001960995882309F4ACC080914403F81678
S11315C008F094C080914703813019F0823071F0A3
S11315D01BC0C8019927880F991FE0914203F0911D
S11315E04303E80FF91F059114911AC0C801992704
S11315F0880F991F2091420330914303820F931F58
S11316000E94340C8C010CC0C8019927880F991FC3
S1131610E0914203F0914303E80FF91F0081118127
S11316200115110509F462C0E8EEF0E08081877FBE
S11316308083CF80D884F09047036F2DC8010E9427
S11316403206682F70E096014F2DC8010E940F07E3
S113165060C081114BC080913B038C7009F446C07B
S11316601B811F77E8EEF0E08081877F80830F2E57
S1131670F3EEEF2EF12CF02DF70110830E942606D5
S1131680F701808180688083112321F088E08093B2
S11316903B033FC084E080933B033BC0811126C0E1
S11316A080913B03887111F11B81111106C0EBE39A
S11316B0F3E088E08083118211C0EBE3F3E08481DE
S11316C09581648505960E94320618130FC0EBE3DA
S11316D0F3E080E1808311831092E900E8EEF0E00A
S11316E08081877F80830E94260613C0CE010196E5
S11316F00E947D081092E900882369F0E8EEF0E08A
S11317008081877F8083EBEEF0E08081806280833C
S113171002C01092E90028960FB6F894DEBF0FBEFF
S1131720CDBFDF91CF911F910F91FF90EF90DF908C
S1131730CF9008951F920F920FB60F9211248F939A
S11317409F93809104018F5F809304018F70E9F56A
S113175080910001880F80930001883011F138F4E2
S11317608230A9F08430C1F081112FC00BC08032C7
S113177009F118F48031C9F028C0803401F18038AF
S113178011F123C095B180E2892785B91EC095B1B6
S113179080E2892785B919C095B180E4892785B984
S11317A014C085B1805885B910C095B180E28927ED
S11317B085B90BC095B180E4892785B906C085B188
S11317C0805885B902C010920001809103018823DA
S11317D031F0815080930301811101C02E988091D2
S11317E00201882331F0815080930201811101C0EC
S11317F02F989F918F910F900FBE0F901F90189567
S1131800F8940E94DF01CC24C3940F2EFBE1EF2E49
S1131810F7E0FF2EF02D03E02CEB30E042E166E22E
S113182071E088E391E00E94430883B7817F83BF1E
S113183083B7816083BF78940E94560AFDCFEE0F70
S1131840FF1F0590F491E02D0994DC0101C06D9314
S113185041505040E0F70895F999FECF92BD81BD03
S1131860F89A992780B50895A8E1B0E042E050E0E5
S11318700C94640CDC01A40FB51F4150504048F097
S1131880CB01840F951F2E910E944B0C4150504068
S1131890D0F70895262FF999FECF92BD81BDF89A0D
S11318A0019700B4021639F01FBA20BD0FB6F894A0
S11318B0FA9AF99A0FBE08950196272F0E944B0CAD
S11318C00C944A0CDC01CB01FC01F999FECF06C053
S11318D0F2BDE1BDF89A319600B40D9241505040EA
S10B18E0B8F70895F894FFCF56
S10518E80100F9
S9030000FC
