S00B00007362332E7372656311
S2140000000C9404010C9427010C9427010C942701EE
S2140000100C9427010C9427010C9427010C942701BB
S2140000200C9427010C9427010C9427010C942701AB
S2140000300C9427010C9427010C9427010C9427019B
S2140000400C9427010C9427010C9427010C9427018B
S2140000500C94B0080C9427010C9427010C942701EB
S2140000600C9427010C9427010C9427010C9427016B
S2140000700C9427010C9427010C9427010C9427015B
S2140000800C9427010C9427010C9427010C9427014B
S2140000900C9427010C9427010C9427010C9427013B
S2140000A00C9427010C9427010C9427010C9427012B
S2140000B00C9427010C9427010C9427010C94676A72
S2140000C00C9427010C943F6A0C9427010C9427018A
S2140000D00C9427010C9427010C9427010C942701FB
S2140000E00C9427010C9427010C94E7030C94270129
S2140000F00C940F040C9427010C9427010C942701F0
S2140001000C9427010C9427010C9427010C942701CA
S2140001100C9427010C9427010C9427010C942701BA
S2140001200C9427010C9427010C9427010C942701AA
S2140001300C9427010C9427010C9427010C9427019A
S2140001400C9427010C9427010C9427010C9427018A
S2140001500C9427010C9427010C94A8060C942701F4
S2140001600C9427010C9427010C9427010C9427016A
S2140001700C9427010C9427010C9427010C9427015A
S2140001800C9427010C9427010C9427010C9427014A
S2140001900C9427010C9427010C9427010C9427013A
S2140001A00C9427010C9427010C9427010C9427012A
S2140001B00C9427010C9427010C9427010C9427011A
S2140001C00C9427010C9427010C9427010C9427010A
S2140001D00C9427010C9427010C9427010C942701FA
S2140001E00C9427010C9427010C9427010C942701EA
S2140001F00C9427010C9427010C9427014D6F64750D
S2140002006C5465737465720011241FBECFEFCDBFAA
S214000210DFE2DEBF8EEF9FE28DBF9EBF10E2A0E062
S214000220B0E2EEE8F3E100E00BBF02C007900D92EB
S214000230A230B107D9F721E2A2E0B0E201C01D92D8
S214000240A938B207E1F70E94F2060C94C5090C948F
S2140002500000E9E7F1E28081918101968083918335
S2140002600895EFE7F1E28081918101968083918382
S2140002700895E3E6F1E2808191810196808391837F
S2140002800895E6E1F0E284A1982F990F8927982F28
S21400029096958927982F990F990F892784A30895F3
S2140002A0FC01948127818681890F821788F49F5FDD
S2140002B094838381DF01A80FB11D18966C938F5F1E
S2140002C0821718F4838381E00895138281E00895ED
S2140002D0E6E1F0E2858D8460858F80E00895FC017C
S2140002E096818181981740F4A6E1B0E25D968C91E4
S2140002F05D9782605D968C9386819181891B86834B
S2140003001182808182830895FC01818196818917FC
S21400031078F48F5F81839081DF01A90FB11D189655
S2140003208C919F5F90832781921740F010820895EA
S214000330E6E1F0E2858D8260858F80E0089581E0B9
S2140003409091D520911180E008958091A3088F7C2C
S2140003508062E0EAFAE08383848182618483089580
S21400036087E591E0E2E3F0E2DF019C011D92215077
S2140003703040E1F7E6E1F0E2808D84A389E1868FE4
S2140003808CE884A78093D620E0E8F6E094E0928399
S2140003908289877C8861828B88E085838183A0E060
S2140003A0BAE011961C92119713961C921397149606
S2140003B01C92149722E016962C93169717961C926A
S2140003C017978FEF1C968C931C974FEF5FE39696CC
S2140003D04D935C9397979C9381858C7F81879287BA
S2140003E081E08487E0EAFAE0178287E0868380E48B
S2140003F081831382248387E2858384818860848353
S2140004000E94A50108952FB7F894E0E0FAE040A115
S21400041051A1840F951F9F7380AF91AF80E18487B1
S21400042087818C7F826087832FBF089521E0209389
S2140004308C062093322080529E4F0E94030208951D
S214000440CF92DF92EF92FF920F931F93CF93DF939B
S2140004501F92CDB7DEB702E310E2E0EAFAE0F180E1
S214000460F9829981E0808F2D8C7189838823D1F061
S2140004700E942901F4FE08C0F801E75BFE4F808168
S2140004809181019680839183F3FC0E943101F2FEF4
S21400049098C0F801E55BFE4F8081918101968083CC
S2140004A091838FC090FF36C0F8018585882369F058
S2140004B0E15BFE4F808191810196808391830E944B
S2140004C02901F80115868685848780911620E8160E
S2140004D019F0FFEFEF1275C0E0EAFAE084818D7F35
S2140004E08483680189E0C80ED11C60E0C6010E94C2
S2140004F05001882361F06E2DC6010E9450018823AA
S21400050031F00E94390186E0F801878365C00E94B9
S214000510310155C0F80185859781981740F4EF5A48
S214000520FE4F8081918101968083918348C08430FC
S21400053029F48E2D8F738A5FF80187836E2DC8018C
S21400054009960E945001811103C00E94310137C0F4
S2140005500E943901F8014781258530E0842F90E01C
S214000560019628173907C1F58685E80FF11D418BDE
S214000570F8011782E0EAFAE0848182608483F80159
S2140005802785858590E0820F911D208930E0281709
S21400059039072CF4E6E1F0E2858D8460858FF8015A
S2140005A097858585890F8787158684858687E5E6FE
S2140005B0F1E2808191810196808391830DC00E9433
S2140005C02901F8011782E0EAFAE0848182608483D8
S2140005D0F8011586868584870F90DF91CF911F914D
S2140005E00F91FF90EF90DF90CF900895CF93DF9319
S2140005F0C2E3D0E28C8181110DC0FE01E356FF4FAD
S2140006008681873000F11B82CF010E9484018C8393
S2140006108823C9F08B81811116C08881811113C08F
S2140006200E9441012A8130E0285F3F4F220F331F8E
S214000630220F331F220F331F8F77A901480F511D3A
S214000640CA010E941602DF91CF9108950F931F935F
S214000650CF93DF93C2E3D0E2E0EAFAE08181482F4D
S214000660447130812D8188232CF441110DC0321342
S21400067013C065C0FE01E15CFE4F8081918101964A
S21400068080839183442341F0FE01EF5BFE4F80811F
S2140006909181019680839183321741F0FE01ED5BD4
S2140006A0FE4F8081918101968083918388E08093BC
S2140006B0860682E08883FE01E35CFE4F808191819E
S2140006C00196808391838A81811105C09B818C81EC
S2140006D0981788F01CC081508A83FE01E356FF4FAE
S2140006E0118282818083E855FF4F80819181019637
S2140006F0808391831DC08E0103561F4FC8010E9440
S21400070084018B818F5F8B839C818917B8F31C8251
S2140007101B8289E18A83CE0183569F4F0E946F0118
S214000720FE01EB5AFE4F8081918101968083918372
S2140007301C821B8280E092E00E94030243C0E0EA33
S214000740FAE084818F7E848383818F7C8383848197
S214000750806184839B818C81981780F4CE018356B8
S2140007609F4F0E9484019B819F5F9B838D83E0EA5D
S214000770FAE094819E7F948380831DC0E0EAFAE0CD
S2140007808381837F83831C821B82CE0183569F4F87
S2140007900E946F01EDE6F1E28081918101968083EF
S2140007A091830E94A5018881833009F4188289E12B
S2140007B08A830E94F602C95CDE4F88819981019681
S2140007C088839983DF91CF911F910F9108951F928F
S2140007D00F920FB60F9211240BB60F922F933F93E2
S2140007E04F935F936F937F938F939F93AF93BF9334
S2140007F0EF93FF930E942002FF91EF91BF91AF917C
S2140008009F918F917F916F915F914F913F912F9123
S2140008100F900BBE0F900FBE0F901F9018951F9253
S2140008200F920FB60F9211240BB60F922F933F9391
S2140008304F935F936F937F938F939F93AF93BF93E3
S214000840EF93FF930E942603FF91EF91BF91AF9124
S2140008509F918F917F916F915F914F913F912F91D3
S2140008600F900BBE0F900FBE0F901F9018950F9312
S2140008701F93CF93DF931F92CDB7DEB7E0E0FAE089
S21400088087818C7F8783809132208983813009F02D
S21400089061C080913620882309F459C080913520A4
S2140008A0811155C09091D5208091D020891738F4B9
S2140008B0E091CF20F0E0E153FF4D108506C0E6E161
S2140008C0F0E2858D8260858F10E088E08093850653
S2140008D0E0EAFAE084818960848380918C0680FD5A
S2140008E004C08091880682FD13C00E9441012091B9
S2140008F0342030E0220F331F220F331F220F331F06
S2140009008F77A901480F511DCA010E9416024CC0DC
S214000910E0EAFAE084818F7E84838381837C83830C
S214000920848180618483838188608383108384814B
S2140009308D7F84838FEC90E20E948401E6E1F0E2F2
S21400094011A3878D8F5F878F83E0848F2DC01092D1
S21400095032202AC0823081F400E816E088E0F801F0
S214000960858384E08093322080E890E00E94030232
S21400097081E0F801848718C08430B1F480918C0639
S21400098080FD0BC08091880682FF07C00E94A501EB
S214000990109232200E94F60207C081E080938C06F7
S2140009A080E890E00E9403020F90DF91CF911F91A4
S2140009B00F910895DF92EF92FF920F931F93CF93BC
S2140009C0DF93AC01663008F473C09FB7F894E6E195
S2140009D0F0E233A526A1832F821B873008F472C06D
S2140009E0231738F4E0913B20F0E0EA5EFF4DC5A502
S2140009F06AC0E6E1F0E2258D2260258FC0E063C084
S214000A00EC2FF0E03196282F30E02E173F070CF43D
S214000A1051C06C1708F450C0C63408F04FC08A01A5
S214000A20DFB7F8948BE390E20E948401DFBFCC230B
S214000A3009F178014FEF4C0F50E04F5F5F4F040F06
S214000A40151FDFEFDFB6F8948BE390E20E94840177
S214000A50DFBE9D2F982728E03CE8969508F493275C
S214000A602A95D9F7D92FF70181937F010E171F0713
S214000A7049F701C0DFEF1FB7F8948BE390E20E94BE
S214000A806F011FBFDD2359F00E942901E5E8F1E25E
S214000A90808191810196808391838EEF19C0E7E66D
S214000AA0F1E2808191810196808391838C2F10C022
S214000AB08DEF0EC08FEF0CC08DEF0AC08CEF08C014
S214000AC08FEF06C0C0E09FBFC63008F099CFF8CFC2
S214000AD0DF91CF911F910F91FF90EF90DF900895D7
S214000AE0BF92CF92DF92EF92FF920F931F93CF9316
S214000AF0DF93FC0103810F730A5F8FB7F894909120
S214000B00D6202091D520921B2091D320921B8FBFF8
S214000B10091738F08091032082608093032082E0DA
S214000B2080C07F01CFB7F894602F8FEC90E20E94D0
S214000B305001CFBF882309F43EC010E001501109D0
S214000B401016110664F5B12CCFEF0F2EF6E1CF2E5E
S214000B50F0E2DF2EF02D81E0B81203C0F6016081CE
S214000B6004C0F701EB0DF11D60819C2F962788E0ED
S214000B702CE8969508F492278A95D9F7C92FDFB7FF
S214000B80F8948FEC90E20E945001DFBF8823A9F012
S214000B90B3948B2D90E080179107ECF201C0CFEF55
S214000BA0DFB7F8946C2F8FEC90E20E945001DFBF05
S214000BB081110EC003C083E001C086E09FB7F894A1
S214000BC01092D3202091D4202093D2209FBF29C0FA
S214000BD0CFB7F8948091D5209091D320482F50E03D
S214000BE0490F511D2091D62030E0241735072CF4EC
S214000BF0E6E1F0E2258D2460258F890F8093D520CD
S214000C001092D3208091D2208093D4200E94F602A6
S214000C10CFBFEBE6F1E280819181019680839183DC
S214000C2080E0DF91CF911F910F91FF90EF90DF90C2
S214000C30CF90BF900895FC0123812F732A5F8FB752
S214000C40F8949091D6203091D520931B3091D320E4
S214000C50931B8FBF81E0291708F080E008959FB7A7
S214000C60F8948FEF809316208091042088608093FC
S214000C7004209FBF8FEF08950F931F93CF93DF93AA
S214000C80863D27E0920781F0873DA7E09A0759F551
S214000C9089E891E28E3F9F42D0F4809189218111AC
S214000CA019C08AE891E20DC08EEF9FE28958914202
S214000CB0FB018083918380E046C00196208121114C
S214000CC00BC0FC018E3F2FE29207B9F705C0E9E89A
S214000CD0F1E202C0E9E8F1E2E958F142DB01ED9306
S214000CE0FC9380E030C08B01EC010E9406818823D3
S214000CF049F1CC30D10579F0CD30D105A9F0CB3013
S214000D00D105D9F48091092090910A20F8018083BA
S214000D10918380E018C080910B2090910C20D80120
S214000D208D939C9380E00FC080910D2090910E20B3
S214000D30F8018083918380E006C0B801CE010E944E
S214000D40270901C080E0DF91CF911F910F91089590
S214000D501F920F920FB60F9211240BB60F922F937D
S214000D608F939F93EF93FF932FB7F894E0E4F9E007
S214000D7080A191A18C509E4F82AF93AF2FBFE5E02C
S214000D80F0E284858F5F84878F7081F4E091142071
S214000D90F0911520309751F08281181614F4815086
S214000DA082830190F081E02D3097B1F7E091122018
S214000DB0F0911320309751F08281181614F4815068
S214000DC082830190F081E02D3097B1F7FF91EF918B
S214000DD09F918F912F910F900BBE0F900FBE0F908B
S214000DE01F901895CDB7DEB7C654D109CDBFDEBF6C
S214000DF0F8940E94C808E0E4F9E011821382148295
S214000E00168284E087838FEF84878FEF9FEF86A319
S214000E1097A380A191A18C509E4F82A793A785E0AF
S214000E20808305E010E2F8016081718185E093E03F
S214000E300E948C09F8016281738187E093E00E942A
S214000E408C09F8010285138501151105C1F00F2ED6
S214000E50F0E4EF2EF3E0FF2EF02DF801D4906D2D88
S214000E60C7010E948109DD2051F0FFEFEF1AFF0A4B
S214000E700F5F1F4F80E6E81683E0F80671F70E94C2
S214000E802F060E940881E8E4F0E08081817F80835D
S214000E9078940E942D0908E410E06894772477F887
S214000EA066246A940F2EF4E0AF2EF0E2BF2EF02DEB
S214000EB088248394912C0F2EF6E1EF2EF0E2FF2E7D
S214000EC0F02DCE0101960E94028127968FAF2797BC
S214000ED027968FAD2797811137C165E4CE0101961D
S214000EE00E940A8118160CF025C18A81811102C061
S214000EF0F7017782CE0101960E942B09882309F418
S214000F000FC18F3F09F41DC1823009F001C18D81E8
S214000F1088230CF416C1823009F4E7C0853141F00D
S214000F20813001F58A8181110CC10E942F06DEC036
S214000F30F0E2AF16B10430F4809104208064809310
S214000F40042008C09FB7F8948091042080648093A2
S214000F5004209FBF89818F3F09F4F3C08C81807C79
S214000F608C83DEC099819F3F09F4EBC0813209F47F
S214000F7040C030F4833109F492C0803241F0B0C0F2
S214000F80823209F455C0833209F46BC0A9C08C8143
S214000F908F73833009F0AFC09885903208F0ADC0EB
S214000FA02E813F81892F880F8E734C81407C842B45
S214000FB08C83992309F4B4C0915069018FEFC81A45
S214000FC0D80AC90ED11CBE016A5F7F4F1B01E2E042
S214000FD02E0E311C2901FFEF4F1A5F0AC9010E942D
S214000FE03C068111BAC0B10192014C145D0471F740
S214000FF097C02C812F73822F90E020FD80C095959E
S2140010008795582E882309F48BC06E0186E0C80E9B
S214001010D11CF601B60182E0C80ED11C80819181F8
S2140010200E943C06811199C05A945110F2CF78C0A4
S2140010308C81982F9F73963019F44A855B8506C07D
S2140010408D73843009F05DC04FEF5FEF2E813F81D6
S214001050688579859C81907C9C83C9010E942909BA
S21400106045C08C818F73833009F04DC08885982FDA
S2140010709F70A40102C0440F551F9A95E2F788237B
S2140010801CF4642F752F02C060E070E02E813F8153
S2140010909C81907C9C83C9010E94290927C04C81B1
S2140010A04F738FEF840F803280F56E819FEF960F1F
S2140010B0923068F5E7E0F0E0EC0FFD1FE80FF11D59
S2140010C0108250E0E0E26E9FB0011124605C7C4F1D
S2140010D0CE0107960E9471098C81807C8C8320C08B
S2140010E0CE0101960E94048101C0862D8F3F49F1F2
S2140010F081110EC015C083E00BC083E009C083E0F9
S21400110007C083E005C083E003C083E001C083E03E
S2140011109C81907C92609C839D819E838F837D8240
S2140011208A8189838D8180688D83CE0101960E9495
S214001130700507C08E3F29F480910320826080935B
S21400114003200E945F09BDCEF80180818160808304
S214001150889580818E7F8083B4CE8F3FC9F6F1CF8D
S2140011601F920F920FB60F9211248F93809100203A
S2140011708150809300208091002088231CF482E018
S214001180809300208F910F900FBE0F901F901895A0
S214001190A0E0B6E014961C9214978FEF11968C93ED
S2140011A01197E0EBF0E0808350961C92A0E2B6E048
S2140011B014961C92149711968C93119780835096D0
S2140011C01C92A0E4B6E014961C92149711968C9389
S2140011D01197808350961C92A0E6B6E014961C9257
S2140011E0149711968C931197808350961C92509763
S2140011F0E5E0F0E223E231EA2083318326E635E5B6
S2140012002283338320E032E02483358320E430E0F9
S21400121026833783108611862CEF31E022873387AA
S214001220E0E4F8E011821382148291E0968317823C
S214001230848781E19AE786A397A387E0808380E38B
S21400124015968C93159780EC16968C93089584E0EB
S214001250089584E0089582E00895789408958FEFC5
S214001260809304061092440680932406E0E6F6E097
S2140012708FE0868380E3858380EC868308951092D2
S21400128004068FEF8093440610922406E0E6F6E00C
S2140012908FE0858380E3868380EC858308958FE0E6
S2140012A08093040690EF9093440610922406E0E69E
S2140012B0F6E0858380E3868380EC858308957894C2
S2140012C080910020813039F0823041F0811108C0D1
S2140012D00E942F0908950E943F0908950E944F0911
S2140012E00895DC01A40FB51F4150504048F0CB01D3
S2140012F0840F951F2E910E94820941505040D0F7CE
S2140013000895262F0E94B9090080021619F00E943F
S21400131093090197019708950196272F0E94820945
S2140013200C948109262FE0ECF1E0378537FDFDCFE0
S2140013303485377F3487378531FF09C036E33287F7
S21400134038ED34BF31E03387378537FDFDCF33E3E3
S2140013503287808391831282248325E3228728EDB7
S21400136031E024BF33870196089503D08081992702
S2140013700895E0ECF1E0378537FDFDCF3485386021
S2120013803487FC01E050F04F0895F894FFCF3C
S20600138E020056
S21400D0008627082E8295807F8025092E982F829568
S21400D0108F700826869598278927880F880F880F8F
S21400D020802508959FB7F8948FEF809316208091FF
S21400D03004208860809304209FBF08954FB7F8941B
S21400D040E6E1F0E2808D918D9C01220F331F82274E
S21400D05093279C0136952795329522952F70232786
S21400D0603F702327822793279C01220F331F220F0E
S21400D070331F82279327808F918F4FBF0895CF92BB
S21400D080DF92EF92FF920F931F93CF93DF93EC0103
S21400D0908981811103C080E880931D208C818823BC
S21400D0A00CF45CC18B01823009F43FC1853141F03C
S21400D0B0813001F58981811171C10E9412686EC1AB
S21400D0C084E090E2809730F480910420806480931E
S21400D0D0042008C09FB7F894809104208064809351
S21400D0E004209FBF88818F3F09F458C18B81807CC4
S21400D0F08B8352C198819F3F09F450C1803231F032
S21400D1008132A9F1893109F00BC14FC01B811F7311
S21400D110133009F025C12F81203208F00DC18D8112
S21400D1209E81322F330F3E734B81407C342B3B83E2
S21400D130222309F431C1BE016B5F7F4F0FEF020F50
S21400D14010E00F5F1F4F080F191F6B0122E0C20E81
S21400D150D11C7C01EFEFEE1AFE0A0E9406818111B7
S21400D1601FC1B601C701E016F10679F715C12B817C
S21400D1702F73822F90E020FDF5C095958795182F88
S21400D180882309F409C17E01F5E0EF0EF11CF701D2
S21400D190B70122E0E20EF11C808191810E94068197
S21400D1A0811100C1115099F7F7C080910420867054
S21400D1B009F4DAC09B819F739350913208F0D6C071
S21400D1C02D813E814F8140FF0BC0843009F0D0C0D6
S21400D1D0A901490F511D41305E4108F0CBC00AC07D
S21400D1E0823009F0C9C0A901490F511D4130504F86
S21400D1F008F0C4C0A6E1B0E25096ED91FC915197BC
S21400D20052964D915C915397BF01640F751F261778
S21400D210370709F0B5C091116DC0452B39F040E0D5
S21400D220B801CF010E94FB878111ACC08091042019
S21400D2308670823069F4E6E1F0E2208931898289DD
S21400D2409389820F931F81159E4109F09DC010C0DF
S21400D250843071F4E6E1F0E220893189828993898D
S21400D260820F931F248935898217930709F08EC091
S21400D270E6E1F0E28689978904891589E0E0F0E026
S21400D28008C07F012FEFE21AF20A64910E9400683C
S21400D290F7010E171F07A9F7892B09F079C01EEFB3
S21400D2A054C0F70182899389AC014F5F5F4F428B70
S21400D2B0538BFE01E20FF31F2581F801E80FF91FDB
S21400D2C02083F701828993898115914089F440E093
S21400D2D0B801F701808991890E94FB8781115AC0A5
S21400D2E0F701808991899395808B918B128A138A96
S21400D2F0D3940AC00F2EF3E0DF2EF02D0F2EF6E1AA
S21400D300EF2EF0E2FF2EF02D2D2D30E08B818F7367
S21400D31090E0281739072CF28B81807C8B833CC0E9
S21400D320CE010E940481182F01C01FEF1F3FE9F1B4
S21400D330112359F01E3F49F08B81807C82608B83DD
S21400D3408C818D831E8380E88C83898188838C8181
S21400D35080688C83CE010E94700527C010E025C02F
S21400D36013E0EACF13E0E8CF15E6E6CF13E0E4CF0C
S21400D37015E6E2CF16E6E0CF15E6DECF16E6DCCF02
S21400D38017E6DACF1AE6D8CF16E6D6CF16E6D4CF0B
S21400D3901BE6D2CF1AE6D0CF10E0D7CF1FEF05C0DE
S21400D3A0182F01C0182F1F3F29F6812FDF91CF912C
S21400D3B01F910F91FF90EF90DF90CF900895CF933D
S21400D3C0DF93CDB7DEB7C654D140CDBFDEBF98EDF4
S21400D3D094BF92E49093A20024E030E2203231051C
S21400D3E030F49091042091609093042008C02FB7E9
S21400D3F0F894909104209160909304202FBF882386
S21400D40021F00E9412680E94B001E8E4F0E08081FA
S21400D410817F8083789408E410E0CE0101960E9414
S21400D4200281CA5BDE4F8883C654D140CA5BDE4F9A
S21400D4308881C654D140811119C065E4CE01019699
S21400D4400E94DA04181694F4BE016A5B7F4FCE0180
S21400D45001960E943F688E3F49F40E949F018823F0
S21400D460F1F38091042084700E94FA87F80180818D
S21400D47081608083889580818E7F8083CECF1F9247
S21400D4800F920FB60F9211240BB60F922F933F9365
S21400D4904F935F936F937F938F939F93AF93BF93B7
S21400D4A0EF93FF930E943704FF91EF91BF91AF91E6
S21400D4B09F918F917F916F915F914F913F912F91A7
S21400D4C00F900BBE0F900FBE0F901F9018951F92D7
S21400D4D00F920FB60F9211240BB60F928F939F9355
S21400D4E0EF93FF93E6E1F0E285818F5F8583868187
S21400D4F0882319F086818150868380911E20882398
S21400D50029F0E6E1F0E280858150808780911F2037
S21400D510882329F0E6E1F0E28185815081878091B9
S21400D5201D208823C1F084E090E2809730F480913B
S21400D53004208F7D8093042008C09FB7F8948091C4
S21400D54004208F7D809304209FBFE6E1F0E2878170
S21400D5508150878312C084E090E2809730F48091F7
S21400D560042080628093042008C09FB7F8948091BE
S21400D57004208062809304209FBFFF91EF919F91CB
S21400D5808F910F900BBE0F900FBE0F901F901895A7
S21400D590EF92FF920F931F93CF93DF93FC0194813A
S21400D5A0963109F400C120F4923109F4C2C005C0D6
S21400D5B0983129F0993109F428C182E03BC1838172
S21400D5C08F7324E030E22032310530F4909104204D
S21400D5D0997F9093042010C02FB7F8949091042060
S21400D5E09D7F909304202FBF2FB7F894909104202E
S21400D5F09B7F909304202FBF833209F008C12581BA
S21400D600368180859185A285B385833542E6940769
S21400D6104EE6A40742E4B407D9F4878180FDF9C03A
S21400D62021156EE1360709F0F6C084E090E2809797
S21400D63030F4809104208260809304205AC09FB703
S21400D640F894809104208260809304209FBF51C08C
S21400D65083359246AE46B14409F04BC0878180FFC1
S21400D660DCC0AFECB1E08C918823ECF3ACECB1E01D
S21400D6708C9188608C934091051350910613AFEC03
S21400D680B1E08C918823ECF3ACECB1E08C9188602F
S21400D6908C9380910713909108134F3FDFEF5D073F
S21400D6A021F48F3F6FEF960761F064857585461706
S21400D6B0570709F0B4C0468557858417950709F0C3
S21400D6C0B0C0C90101978F3F9F4E08F0ACC084E000
S21400D6D090E2809730F48091042084608093042048
S21400D6E008C09FB7F894809104208460809304203B
S21400D6F09FBF7F01EF012896E6E1F0E2108A118ACB
S21400D700128A138A248B358B8701085D1F4F8FEF93
S21400D7109FEF69910E940068C017D107D1F78093E8
S21400D7202C2090932D20F7018381807C838380E0DA
S21400D73081C083818F7390E002970CF076C083815E
S21400D7408F73813029F4C581C33008F070C001C0E2
S21400D750C0E0BF016B5F7F4F40E2C49FE001112431
S21400D7608E01005C1C4E20E0AFECB1E04CEC51E0CA
S21400D7709C919923ECF3EA01888188608883E8010C
S21400D78089918E019FEF980F9E3F30F42F5FEB013B
S21400D7908993BE01203261F72F738381807C282B0A
S21400D7A0238380E047C083818F73813009F041C0B6
S21400D7B0858180FF13C084E090E2809730F48091EA
S21400D7C004208061809304201BC09FB7F89480914A
S21400D7D004208061809304209FBF12C084E090E202
S21400D7E0809730F4809104208F7E8093042008C0B8
S21400D7F09FB7F894809104208F7E809304209FBF6B
S21400D8008381807C838380E015C085E613C083E037
S21400D81011C089E60FC086E60DC089E60BC088E613
S21400D82009C088E607C086E605C083E003C083E03B
S21400D83001C083E0DF91CF911F910F91FF90EF9091
S21400D84008958A30910509F4E8C058F584309105AA
S21400D85009F4A8C078F48130910509F470C008F482
S21400D86065C08230910509F477C08330910509F4CC
S21400D87086C031C18730910509F4AAC048F48530C6
S21400D880910509F496C08630910509F499C023C124
S21400D8908830910509F4A4C08930910509F4ABC01D
S21400D8A01AC1843D27E0920709F4D8C0B8F4813D38
S21400D8B0A7E09A0709F4BFC030F4803DE7E09E0772
S21400D8C009F4B2C008C1823DF7E09F0709F4B8C06A
S21400D8D0833D27E0920709F4BAC0FDC0873D47E0C4
S21400D8E09407B9F058F4853DB7E09B0709F4BDC02E
S21400D8F0863DE7E09E0709F4BFC0EDC08A3FF7E02B
S21400D9009F0709F4D8C08B3F27E0920709F4DBC0D5
S21400D910E2C089E891E28E3F9F4208F0C0C0809145
S21400D92089218111BFC08AE891E2B3C08091172097
S21400D93090911820DB018D939C9380E00895809150
S21400D940172090911820A0911920B0911A20FB0161
S21400D950A083B18380E00895EFECF1E08081882316
S21400D960ECF3ECECF1E08081886080838091051315
S21400D97090910613DB018D939C9380E00895EFEC65
S21400D980F1E080818823ECF3ECECF1E080818860A4
S21400D99080838091071390910813FB018083918305
S21400D9A080E0089584E090E0DB018D939C9380E016
S21400D9B0089581E091E0FB018083918380E00895E3
S21400D9C08091162090E0DB018D939C9380E0089573
S21400D9D08091042090E0FB018083918380E008958D
S21400D9E09091032080910220892B90E0DB018D939B
S21400D9F09C9380E00895EFECF1E080818823ECF3BF
S21400DA00ECECF1E08081886080838091001390E0E8
S21400DA10FB018083918380E0089583E090E0DB0142
S21400DA208D939C9380E0089586E190E0FB018083CF
S21400DA30918380E00895DB011D921C9280E008959A
S21400DA4082E390E0FB018083918380E0089580E08C
S21400DA5093E0DB018D939C9380E0089580E090E155
S21400DA60FB018083918380E0089580E098E0DB01ED
S21400DA708D939C9380E008958EEF9FE289589142A3
S21400DA80FB018083918380E0089501962081211117
S21400DA900BC0FC018E3F2FE29207B9F705C0E9E8FC
S21400DAA0F1E202C0E9E8F1E2E958F142DB01ED9368
S21400DAB0FC9380E008958091322090E0FB01808303
S21400DAC0918380E008958091332090E0DB018D9370
S21400DAD09C9380E008959C012A5D374020323105F2
S21400DAE0A0F42331310560F4880F991FFC01E1553D
S21400DAF0FE4E80819181FB018083918380E00895B2
S21400DB00DB011D921C9280E008959C01385021157F
S21400DB103840D0F49858880F991F8115E8E09E0782
S21400DB2040F5EFECF1E020812223ECF3ECECF1E0A1
S21400DB30208128602083FC01F05F80819181DB01D9
S21400DB408D939C9380E008959C01305121153041BF
S21400DB5090F49059880F991F8115E0E19E0768F4AC
S21400DB60FC01F05E80819181DB018D939C9380E0C7
S21400DB70089584E0089584E0089584E008950F935E
S21400DB801F93CF93DF93CDB7DEB72997CDBFDEBF08
S21400DB908C0180911F20811121C08091800681FD1B
S21400DBA017C0E6E1F0E28AE08187909188069695B4
S21400DBB0917081E0982782E0809381068685892788
S21400DBC02585282380958923822B8587968706C0FE
S21400DBD081E080931F2082E08093820680911E2041
S21400DBE0811174C0E6E1F0E280E28087858580FFDF
S21400DBF011C08091252080FD12C0878581608787AF
S21400DC009FB7F8942091042080E182278093042017
S21400DC109FBF05C0E6E1F0E287858E7F878780910B
S21400DC20042089878091222088879985888598177F
S21400DC3021F1898580932220898584FF07C0E6E14B
S21400DC40F0E28AEA828785E5838717C0898583FFA5
S21400DC5006C0E6E1F0E2128685E583870EC0898578
S21400DC6080FF06C0E6E1F0E28EE38287138605C0F9
S21400DC70E6E1F0E288E18287138680910320811135
S21400DC8004C080910220882319F08FEF8093212012
S21400DC90E6E1F0E28285880F811D8287882324F4DE
S21400DCA081E08093860603C081E080938506E6E1E6
S21400DCB0F0E28385880F811D8387882324F482E021
S21400DCC08093860603C082E08093850690910420A8
S21400DCD0892F807496FF0AC00E949F018823F1F363
S21400DCE088ED84BF81E080937900FFCF9091042077
S21400DCF09983998193FFC7C0EFECF1E08081882378
S21400DD00ECF3ECECF1E08081886080838091051371
S21400DD10909106138C839D83EFECF1E0808188233D
S21400DD20ECF3ECECF1E0808188608083809107134F
S21400DD30909108138A839B8365E4C8010E94DA04E5
S21400DD408F838F8118160CF063C0F80181818111D2
S21400DD505FC080911D20811106C00E941E688F71D1
S21400DD608F5F80931C2080E880931D20F8018181BE
S21400DD7081114EC080818F3F09F04AC08481813175
S21400DD8009F046C083818F73893009F041C0458110
S21400DD905681678170858091172090911820A091F8
S21400DDA01920B0911A20481759076A077B0781F592
S21400DDB08C819D81218532852817390749F58A810E
S21400DDC09B81238534852817390711F5858580932F
S21400DDD01620108281E9848312828381807C83836B
S21400DDE0C8010E94700584E090E2809738F4809124
S21400DDF00420877F8093042081E045C09FB7F89475
S21400DE0080910420877F809304209FBF81E03BC0E1
S21400DE10E6E1F0E286818E838781882379F180911E
S21400DE201C2081112DC0F801108212828381807C13
S21400DE308860838380E18483C8010E941B06882350
S21400DE4009F10E941E688F71865FE6E1F0E2868324
S21400DE5081819281A381B481F80185839683A7830B
S21400DE60B0878C819D81818792878A819B818387F9
S21400DE709487C8010E94700581E005C081E003C058
S21400DE8081E001C081E02996CDBFDEBFDF91CF9152
S21400DE901F910F910895F8946FEF80E093E00E9431
S20C00DEA0F98780E00E94DF69AB
S2140100000C94BF800C9427010C9427010C942701B3
S2140100100C9427010C9427010C9427010C942701BA
S2140100200C9427010C9427010C9427010C942701AA
S2140100300C9427010C9427010C9427010C9427019A
S2140100400C9427010C9427010C9427010C9427018A
S2140100500C94B0080C9427010C9427010C942701EA
S2140100600C9427010C9427010C9427010C9427016A
S2140100700C9427010C9427010C9427010C9427015A
S2140100800C9427010C9427010C9427010C9427014A
S2140100900C9427010C9427010C9427010C9427013A
S2140100A00C9427010C9427010C9427010C9427012A
S2140100B00C9427010C9427010C9427010C94676A71
S2140100C00C9427010C943F6A0C9427010C94270189
S2140100D00C9427010C9427010C9427010C942701FA
S2140100E00C9427010C9427010C94E7030C94270128
S2140100F00C940F040C9427010C9427010C942701EF
S2140101000C9427010C9427010C9427010C942701C9
S2140101100C9427010C9427010C9427010C942701B9
S2140101200C9427010C9427010C9427010C942701A9
S2140101300C9427010C9427010C9427010C94270199
S2140101400C9427010C9427010C9427010C94270189
S2140101500C9427010C9427010C94A8060C942701F3
S2140101600C9427010C9427010C9427010C94270169
S2140101700C9427010C9427010C942701189511243F
S2140101801FBE8EEF9FE28DBF9EBFE0E0F0E21192B0
S210010190EF3F8FE2F807D9F70C942181AD
S2140102000C944B6F0C94BF6D0C94C86A0C94216CC3
S2140102100C94B0010C94DA040C9470050C949F01B4
S2140102200C94BF800C94BF800C94BF800C94BF804C
S2140102300C94BF800C94BF800C94BF800C94BF803C
S214010242CF93DF931F92CDB7DEB7A89588ED84BF13
S21401025221E020938000A0E0B6E01C92E0EBF0E003
S2140102628FEF808390E150969C93A0E2B6E01C92B9
S214010272808350969C93A0E4B6E01C9280835096AD
S2140102829C93A0E6B6E01C92808350969C93A0E8CD
S214010292B6E01C92808388E150968C935097209307
S2140102A2B20083E08093B300E6E1F0E221E030E0C1
S2140102B2228F338F11968C93119716968C931286F2
S2140102C21386109204201092032010920220E0E579
S2140102D2F0E08081826080838091510081FD06C0BA
S2140102E2E1E5F0E00000808181FFFCCF88ED84BF6C
S2140102F281E080934000E0E5F0E080818E7F80839C
S2140103028BEC82838081886080838091510083FD9B
S2140103125FC088ECE1E5F0E003C0908193FD58C030
S2140103220000000000008150C1F710C0E1E5F0E0D6
S2140103320000808184FFFCCF88ED84BF84E0809337
S2140103424000E0E5F0E080818D7F8083EFECF1E014
S21401035280818823ECF3ECECF1E080818860808375
S2140103628091011390910213A0910313B09104138B
S21401037206E110E2F80181839283A383B4832FEF0F
S2140103822083108A118A128A138A148A158A808F08
S214010392918F0E941E68F80185831782EFECF1E0C7
S2140103A280818823ECF3ECECF1E080818860808325
S2140103B28091001389838981811107C088ED84BFEA
S2140103C287E08093A2000C94000081E00E94DF691E
S2140103D2E0E5F0E082EC8583808180618083809114
S20C0103E2510084FFA3CFA8CF50
S214010C007F928F929F92AF92BF92CF92DF92EF9296
S214010C10FF920F931F93CF93DF936C017B01742E8A
S214010C20EFECF1E090819923ECF3CC248FB7F894A4
S214010C30A0ECB1E096E21A969C931A9741E050E038
S214010C4028ED30E0F60124BF4093CB011A961C92A2
S214010C508FBFEFECF1E080818823ECF35701B3946A
S214010C608501D701C0ECD1E00F2EF3E28F2EF02DD7
S214010C7096012E193F096DE970E0772029F0FD01F4
S214010C8085919491992E04C08C9111969C90119700
S214010C909FB7F8948A86A901F901EA0FFB1F082E6F
S214010CA0192C64BFE89511241A869FBF12960A175D
S214010CB01B0719F78FB7F894A0ECB1E095E21A96E6
S214010CC09C931A972DE930E0F60124BFE8951A9611
S214010CD01C928FBFEFECF1E080818823ECF3772044
S214010CE019F0F701849102C0F7018081F701E40F42
S214010CF0F51FE4918E1308C0FFEFEF1AFF0AEA14FE
S214010D00FB0469F780E001C081E0DF91CF911F917C
S214010D100F91FF90EF90DF90CF90BF90AF909F9094
S214010D208F907F900895EFECF1E020812223ECF381
S214010D304FB7F894EFECF1E020812223ECF3ECECD2
S214010D40F1E0208128602083282F392FF901F05FF8
S214010D509081961709F1E0ECF1E09485977F9487EE
S214010D6096E3928798ED94BF91E09093CB01EFECD8
S214010D70F1E090819923ECF3E0ECF1E093E39287C4
S214010D80808331831282648385E3828788ED84BF02
S214010D9081E08093CB0112864FBFEFECF1E08081BA
S214010DA08823ECF30895F89481110AC0C0E0D0EFCF
S214010DB0BE01705F41E0CE010E94FB87D395F8CF5C
S214010DC060E080E093E00E94F98788ED84BF81E0CF
S20A010DD080937900FFCFBD
S20C010FF0FFCF99CED8CE04CE46
S804000000FB
