:100000000C9483000C94AA000C94AA000C94AA00EF
:100010000C94AA000C94AA000C94AA000C94AA00B8
:100020000C94AA000C94AA000C94AA000C948507C6
:100030000C94AA000C94AA000C94AA000C94AA0098
:100040000C9411050C94AA000C94CA0A0C94AA00F2
:100050000C94AA000C94AA000C94AA000C941B0205
:100060000C94AA000C94F1020C94AA000C94AA001F
:100070000C94AA0008102040DE0098007E001803AF
:10008000730062006F0078006E006500740032003B
:1000900075007300620000004403540068006F00A4
:1000A0006D006100730020004D0061006900650073
:1000B000720020003C00620061006C00610067007B
:1000C000690040006A007500730074006D006100F3
:1000D00069006C002E00640065003E00000004030F
:1000E000090409021200010100801909040000003E
:1000F000FFFFFF0012011001FFFFFF4023F102A0EC
:1001000001010102030111241FBECFEFD4E0DEBFC5
:10011000CDBF11E0A0E0B1E0E6ECF6E102C0059051
:100120000D92AA31B107D9F713E0AAE1B1E001C0FD
:100130001D92A036B107E1F7E0E6F3E003C085EADF
:100140008083319684E0EF3FF807C8F30E94F70AF6
:100150000C94610B0C940000E3E4F3E08081918146
:100160000196918380830895E9E4F3E08081918191
:100170000196918380830895EDE2F3E0808191817F
:100180000196918380830895E0E2F1E08085982FC5
:10019000990F8927982F96958927982F990F990F4E
:1001A000892780870895FC0186816481462F50E06D
:1001B000480F511D278130E0241735072CF490910A
:1001C0002101946090932101860F8683148283819C
:1001D00085830895CF93DF93FC0196818481980FE6
:1001E0002781921778F48F5F84838381EF01C80F92
:1001F000D11D68878F5F821710F4838301C013823B
:1002000081E006C08091210184608093210180E01B
:10021000DF91CF910895FC0186819181891728F49F
:10022000909121019260909321019181891B868395
:100230001182808182830895CF93DF93FC019681A0
:100240008181891770F48F5F81839081EF01C90FDD
:10025000D11D88859F5F90832781921740F010827F
:1002600006C08091210182608093210180E0DF91AE
:10027000CF9108952091840030918500820F931FC3
:1002800090938B0080938A0084E086BBEFE6F0E0D9
:100290008081846080830895CF93DF93C0E2D1E0B2
:1002A0008C8181110DC0FE01EF5EFE4F8081873091
:1002B00038F01B82CE01855F9E4F0E941C018C830B
:1002C0008C818823E1F08B81811119C08881811193
:1002D00016C00E94C400282F2F739A81892F90E0A6
:1002E000880F991F88579F4F34E03CBB31E0309313
:1002F0002001820F911DDF91CF910C943A01DF9183
:10030000CF910895E8EEF0E08081877F80830895A3
:10031000E8EEF0E080818E7F80830895E8EEF0E0E3
:1003200080818B7F80830895CF93DF931F92CDB719
:10033000DEB7A89584B7898314BE88E10FB6F89418
:1003400080936000109260000FBE898183FF02C01D
:100350000C9400188FE185B98FEF88B99FE79BB99E
:1003600090EE94B917B81AB890E890936100109283
:1003700061001092800092E09093810086BB81E042
:1003800080936F0080E090E00E94230B019699F427
:1003900064E080E090E00E94390B63E081E090E04F
:1003A0000E94390B68E770E082E090E00F90DF91E7
:1003B000CF910C944B0B0F90DF91CF910895E8EC07
:1003C000F0E0808181608083E9ECF0E080818069E9
:1003D00080830895E0E2F1E083E392E0DF019C0195
:1003E0001D9221503040E1F780916600808789E1BD
:1003F00082838AEF808B8093320252985A9A5B9A5A
:10040000539AEA98E9E6F0E080818F7D80838081CD
:100410008061808384E08CBB1092CD0093E0909348
:10042000CC0090E49093C80096E29093CA00809329
:10043000C9000C94DF011F920F920FB60F92112486
:10044000EF92FF920F931F932F933F934F935F93DE
:100450006F937F938F939F93AF93BF93CF93DF93CC
:10046000EF93FF93C0E2D1E00091C8009091C900E2
:100470001091CE00802F8C71D1F00E94AC0004FF4F
:1004800008C0FE01EB5DFD4F808191810196918353
:10049000808303FD0E94B40002FF83C0FE01E95D7A
:1004A000FD4F808191810196918380837AC08D85F3
:1004B00091FF32C0882369F0FE01E55DFD4F808128
:1004C00091810196918380830E94AC001D868E8568
:1004D0008C8780911F01181729F01F3F19F089811F
:1004E00080FF5FC08091C8008E7F8093C8007E012E
:1004F00089E0E80EF11C60E0C7010E94EA00882351
:1005000039F1612FC7010E94EA00882309F10E9496
:10051000BC0086E08F834EC09F81981748F4FE018F
:10052000E35DFD4F8081918101969183808337C087
:10053000843021F4812F8F738A5F8F837E0189E05D
:10054000E80EF11C612FC7010E94EA00811103C06F
:100550000E94B40024C00E94BC008D8590E04F81B1
:10056000242F30E02F5F3F4F8217930719F58E85B8
:10057000FE01E80FF11D418B1F829091C800916030
:100580009093C800C7010E94D30080912F039091DF
:10059000300301969093300380932F030BC00E9489
:1005A000AC001F828091C80081608093C8001D86C6
:1005B0008E858C87FF91EF91DF91CF91BF91AF91A5
:1005C0009F918F917F916F915F914F913F912F916B
:1005D0001F910F91FF90EF900F900FBE0F901F9003
:1005E00018951F920F920FB60F9211240F931F931D
:1005F0002F933F934F935F936F937F938F939F932B
:10060000AF93BF93CF93DF93EF93FF93C0E2D1E01B
:100610002091C800922F94714091CE003D8181E0DD
:10062000431301C080E08E01055F1E4F27FF05C008
:1006300091110EC0811117C05CC0FE01E55EFD4F37
:10064000208131812F5F3F4F31832083992349F0EF
:10065000FE01E35EFD4F208131812F5F3F4F3183EB
:100660002083882341F0FE01E15EFD4F808191816E
:100670000196918380835B988091C900877A8093EB
:10068000C90082E08883FE01E75EFD4F8081918191
:100690000196918380838A81882351F081508A83D7
:1006A000F801118282818083FE01EF5DFD4F15C04C
:1006B0009B818C81981738F4C8010E941C018B81A2
:1006C0008F5F8B83F5CF1C821B8289E18A83C801EF
:1006D0000E940B01FE01EF5CFD4F8081918101962C
:1006E000918380831C821B8280E890E00E943A0103
:1006F00041C08091C9008F768093C9008091C90064
:1007000080618093C9009B818C81981778F4C8011F
:100710000E941C019B819F5F9B838D839091C900E8
:100720009E7F9093C9008093CE001DC08091C90028
:100730008F7B8093C9001C821B82C8010E940B0121
:1007400080913703909138030196909338038093FA
:1007500037030E94DF018881833009F4188289E120
:100760008A830E944C01CD5EDD4F8881998101967C
:1007700099838883FF91EF91DF91CF91BF91AF91E2
:100780009F918F917F916F915F914F913F912F91A9
:100790001F910F910F900FBE0F901F901895EF9221
:1007A000FF920F931F93CF93DF938C01663010F469
:1007B0008DEF6CC03FB7F89490912A0120912F01E2
:1007C000822F891B873070F0921738F4E09129014D
:1007D000F0E0E85DFE4FC18506C090912101926076
:1007E00090932101C0E03FBFC63008F44CC02C2FCD
:1007F00030E090E0281739070CF045C06C17C0F2C4
:10080000C63408F042C0DFB7F89489E291E00E9454
:100810001C01DFBFF12CDFEFEFB6F89489E291E025
:100820000E941C01EFBED82798E02CE8D69508F46A
:10083000D2279A95D9F7F8018083F3940F5F1F4F61
:10084000FC1650F31FB7F89489E291E00E940B0167
:100850001FBFDD2369F00E94AC0080914F0390918F
:10086000500301969093500380934F038EEF0EC078
:1008700080913103909132030196909332038093DB
:1008800031038C2F03C08FEF01C08CEFDF91CF912C
:100890001F910F91FF90EF900895EF92FF920F93A9
:1008A0001F93CF93DF93FC01C381CF73CA5F8FB7D0
:1008B000F8949091320220913102921B20912F02E4
:1008C000921B8FBFC91708F05AC07F01DFB7F89499
:1008D0006C2F8BE292E00E94EA00DFBF81110AC018
:1008E0008FB7F89410922F029091300290932E02BD
:1008F0008FBF45C010E0DFEF212F30E08C2F90E05C
:10090000019728173907E4F4113019F460911F0199
:1009100004C0F701E20FF31F6081D62788E09CE84E
:10092000D69508F4D9278A95D9F70FB7F8948BE2B2
:1009300092E00E94EA000FBF882391F21F5FDCCF94
:10094000CFB7F8946D2F8BE292E00E94EA00CFBF00
:10095000882309F4C5CFCFB7F8948BE292E00E94C8
:10096000D3000E944C01CFBF809135039091360394
:100970000196909336038093350380E001C081E0B7
:10098000DF91CF911F910F91FF90EF900895FC019F
:1009900093819F739A5F8FB7F894209132023091C0
:1009A0003102231B30912F02231B8FBF81E092174E
:1009B00008F080E008959091310281E0911180E08B
:1009C00008958FB7F89420912A0190912F01921BDE
:1009D0008FBF81E0963008F480E008958FB7F894D7
:1009E0009091320220913102921B20912F02921B92
:1009F0008FBF81E0973008F480E00895CF93DF93B4
:100A0000C0911D0110921D010E94E1048111C2607C
:100A1000D0E00E94EE048111C0618C2FDF91CF9154
:100A200008951F920F920FB60F9211242F933F93A8
:100A30004F935F936F937F938F939F93AF93BF93E6
:100A4000CF93EF93FF9380916F008B7F80936F0024
:100A500080912001813009F05DC0809124018823BC
:100A600009F455C080912301811151C09091310248
:100A700080912C02891738F4E0912B02F0E0ED5CB4
:100A8000FD4FC08106C080912101826080932101C9
:100A9000C0E05B9A8091C90089608093C900E299A7
:100AA00002C04A9914C00E94C400482F4F7320917D
:100AB000220130E0220F331FC90188589F4F24E0E4
:100AC0002CBB21E020932001840F911D40C0809118
:100AD000C9008F768093C9008091C900806580939A
:100AE000C900C093CE008091C8008E7F8093C8005B
:100AF0008BE292E00E941C01C093250180912301AA
:100B00008F5F8093230183E08093200122C01092A5
:100B100020011FC0823051F45B9AC4E0C0932001D1
:100B200080E290E00E943A01CCBB13C0843089F48B
:100B3000E29909C04A9B07C00E94DF011092200180
:100B40000E944C0106C084E08CBB80E290E00E94D1
:100B50003A01FF91EF91CF91BF91AF919F918F910A
:100B60007F916F915F914F913F912F910F900FBEA9
:100B70000F901F901895662339F02091F100FC0129
:100B8000208361500196F7CF08958091E80080FDA1
:100B900006C0809153038C71C1F783E0089580E013
:100BA00008950E94C505811104C00E9488010C941B
:100BB000C5050895613021F0623029F40C941B0BB7
:100BC000FC0184910895FC0180810895E091ED007D
:100BD000E295E370F0E0EC58FF4F84910895CF92D6
:100BE000DF92EF92FF920F931F93CF93DF937C01DD
:100BF0008B01D42F809153038C7191F18091E80087
:100C000083FD30C08091E800C82FC47082FF04C00B
:100C10000E948E01C2E027C08091E80080FFEACFE9
:100C20000115110591F08091E80085FF0EC0670164
:100C30008FEFC81AD80A6D2FC7010E94DA0580937A
:100C4000F100015011097601EBCF0E9488019091CB
:100C5000E8009F779093E8000115110559F603C04D
:100C6000C3E001C0C1E08C2FDF91CF911F910F91A4
:100C7000FF90EF90DF90CF900895AF92BF92CF9208
:100C8000DF92EF92FF920F931F93CF93DF936C014C
:100C90008B01E42E0E94E605F82E809153038C719F
:100CA00041F18091E80083FD26C08091E800D82FB3
:100CB000D47082FF04C00E948E01D2E029C08091CE
:100CC000E80080FFEACFC091F20001151105A9F0FC
:100CD000CF15D8F456018FEFA81AB80A6E2DC601A9
:100CE0000E94DA058093F10001501109CF5F650180
:100CF000ECCFD3E00DC0D1E00BC0CF1109C00E94F2
:100D000088010115110549F603C0CF11C6CFF7CFF1
:100D10008D2FDF91CF911F910F91FF90EF90DF907A
:100D2000CF90BF90AF900895CF93809153038C7173
:100D300011F4C3E025C08091E80083FF02C0C1E048
:100D40001FC08091E800C82FC47082FF04C00E94B9
:100D50008E01C2E015C08091E80080FFE6CF0E94BE
:100D600088018091E80082FD09C0809153038C7155
:100D700001F38091E80083FFF4CFE1CF0E948E0160
:100D80008C2FCF9108956217730708F49B01B90166
:100D90000E943D06811102C00C9494060895CF93E1
:100DA000DF936330A9F4EC010E9482010E80DF81A1
:100DB000C02D62E080E090E00E94DA05682F70E0CC
:100DC0009E0142E080E090E00E94C30680E001C006
:100DD00081E0DF91CF910895AF92BF92CF92DF92E1
:100DE000EF92FF921F93CF93DF936C015B017A0127
:100DF000FB0111821082452B69F1C0E0D0E08091A7
:100E000053038C7149F18091E800182F187083FD0D
:100E100025C08091E80082FFF2CF8091F200882304
:100E200061F0CE15DF0548F48091F100F601808372
:100E30002196C60101966C01F0CF8091F2008111DC
:100E400002C00E948E01CE15DF05C8F2F501D183E4
:100E5000C08305C010E003C013E001C011E0812F82
:100E6000DF91CF911F91FF90EF90DF90CF90BF90D7
:100E7000AF9008950E948E010C94D1050E94EC065B
:100E8000811102C00C943A0708954850493130F45A
:100E9000E42FF0E0E050FF4F308101C032E3982FA3
:100EA00097709093E9009091EB0091609093EB0024
:100EB0006295660F660F607C881F8827881F862BC7
:100EC0008093EC00A22FA170B0E0AA0FBB1FAA0F65
:100ED000BB1FA32BA093ED001092F0000895E3E553
:100EE000F3E064858281938107960E94DA0520E011
:100EF000482F60E080E00C9445070E946F07E3E50F
:100F0000F3E084E08083118208951F920F920FB660
:100F10000F9211241F932F933F934F935F936F93DF
:100F20007F938F939F93AF93BF93EF93FF93CF9351
:100F3000DF9300D0CDB7DEB78091E1008A83809146
:100F4000E20089831091E9008A818A818A818A81FD
:100F500083FF09C0898183FD0E947D078091E100A4
:100F6000877F8093E1008A818A811092E10010934B
:100F7000E9000F900F90DF91CF91FF91EF91BF911A
:100F8000AF919F918F917F916F915F914F913F9121
:100F90002F911F910F900FBE0F901F901895CF9219
:100FA000EF92FF920F935DE0E3E5F3E0DF011D9226
:100FB0005A95E9F710925303909356038093550383
:100FC00070935803609357034093590330935B0326
:100FD00020935A0300935C03F0925E03E0925D035A
:100FE000C0925F0380E28093D8001092FB0084E0FF
:100FF00089BD86E089BD09B400FEFDCF80EA8093FB
:10100000D80080E88093D8001092E2001092E100AE
:1010100089E08093E2001092E00084E08093530323
:101020000F91FF90EF90CF9008950895FF920F9346
:101030001F93CF93DF93CDB7DEB7C854D1090FB656
:10104000F894DEBF0FBECDBFFC0190819F77913435
:1010500009F07BC18F0181818A3309F407C170F4E3
:10106000813309F46BC018F4803321F16EC18233EF
:1010700009F470C0833309F4C0C067C18D3309F42B
:101080000BC188F48B3309F4FCC08C3309F05DC1CB
:101090000E948201F8012681378140E062E071E020
:1010A00089E291E023C1803409F401C1813509F45A
:1010B00020C14BC10E948201FFB6F894F8019281D1
:1010C00097FF08C0A89588E1809360008CE080932A
:1010D000600030C080911E0190FF19C0F80194811A
:1010E00090931F0180FD07C00E94EA0180911E01BC
:1010F000816080931E01F80192818091210191FF0E
:1011000002C0816001C08E7F8093210113C080FFE7
:1011100011C08FB7F8941092200194E09093C90009
:10112000529853985B9AEA988FBF80911E018E7FE8
:1011300080931E01FFBE0E94D10505C10E9482015D
:101140000E94FE048983F8012681378140E061E036
:1011500070E0CAC00E948201F80106811781011562
:101160001105C9F10E94FE0428968FAF289740E030
:1011700061E070E0CE01895B9F4F0E943D068111C6
:10118000E2C00150110927C00130F1E01F0738F516
:101190006FEF600FCE0102960E94CF03898318166D
:1011A00004F5081B110987FD1395015011098FB72C
:1011B000F89493E090931B012E9A8FBF6981772753
:1011C00067FD70956F5F7F4F40E0CE0101960E94F2
:1011D0003D0681110DC002301105B0F60BC065E46B
:1011E000D9CF40E061E070E0CE0101960E943D065B
:1011F0008111A9C00E949406A6C00E948201F80134
:10120000468157814634510510F045E450E0BE0157
:10121000695B7F4FCE0101960E943E0729968EADF5
:101220009FAD29970597E0F0CE0101960E94C70473
:10123000882391F08FB7F89493E090931A012F9A36
:101240008FBFCE0101960E944D04882309F47BC014
:1012500080911D01806807C080911D01806403C0DA
:1012600080911D01806280931D016DC00E948201EA
:10127000F8012681378140E066E270E08DE293E07C
:1012800035C00E948201F8012681378140E069E083
:1012900070E080E291E02AC00E948201F80126817C
:1012A000378140E062E071E08BE292E01FC00E9473
:1012B00082018FEF94E0805693409A838983E0E621
:1012C000F3E084E0EF3FF80728F48081853A11F4D9
:1012D0003196F7CFE056F340FC83EB83F80126818B
:1012E000378140E064E070E0CE0101960E94C306C1
:1012F0002AC00E94820142E450E06FEF70E0CE010C
:1013000001960E94140BF801468157814134510522
:1013100010F040E450E0BE01695B7F4FCE010396C0
:101320000E943E0729964EAD5FAD299782E0840F5B
:10133000898383E08A834E5F5F4F60E070E0CE0177
:1013400001960E94290B80E001C081E0C85BDF4F5D
:101350000FB6F894DEBF0FBECDBFDF91CF911F91C6
:101360000F91FF900895CF92DF92FF920F931F93FA
:10137000CF93DF93CDB7DEB728970FB6F894DEBFD3
:101380000FBECDBF1092E9008091E80083FFF4C04A
:1013900068E0CE0101960E94BB058981982F907666
:1013A00009F0E5C09A819630E9F020F4953009F40F
:1013B00090C0DDC0983021F0993009F4A6C0D7C0A4
:1013C000803809F0D4C080915303887109F4CFC0EC
:1013D0000E94820121E030E040E061E070E084E5BD
:1013E00093E02CC0803809F0C2C00B811C81812F92
:1013F00090E08230910599F08330910511F10197C9
:1014000009F0B5C00E9482012F81388540915F03A9
:1014100062E170E080915503909156030FC0011175
:10142000A6C00E9482012F81388540915F036091A0
:10143000590370E080915703909158030E94C306AE
:1014400089C0F02EE0915D03F0915E03309729F49E
:1014500080915C03F81640F08AC0602FCE0101969F
:1014600009958111F5CF76C080915F03E0915A0311
:10147000F0915B031127813059F0823081F4C8016B
:10148000880F991F8E0F9F1F0E94230B8C010DC088
:10149000000F111FE00FF11F0591149106C0000FFE
:1014A000111FE00FF11F008111810115110509F4D1
:1014B0005EC00E948201CF80D884F0905F036F2DC0
:1014C000C8010E94DA05682F70E096014F2DC8010F
:1014D000B5CF81114CC0809153038C7009F447C083
:1014E0001B811F770E9482011093E3000E94D105A7
:1014F0008091E30080688093E300112311F088E07D
:1015000001C084E08093530325C0811130C08091D5
:101510005303887161F11B81111106C088E080932B
:1015200053031092540312C060915F0380915703DC
:101530009091580305960E94DA05181318C080E1AF
:1015400080935303109354031092E9000E94820188
:101550000E94D10580E01092E900882369F00E9482
:1015600082018091EB0080628093EB0005C0CE0188
:1015700001960E941608EFCF28960FB6F894DEBFAA
:101580000FBECDBFDF91CF911F910F91FF90DF90E4
:10159000CF9008951F920F920FB60F9211248F9340
:1015A0009F9380911C018F5F80931C018F7021F4A9
:1015B00095B180E2892785B980911B01882331F09C
:1015C000815080931B01811101C02E9880911A01D6
:1015D000882331F0815080931A01811101C02F9826
:1015E0009F918F910F900FBE0F901F901895F894B8
:1015F0000E949401CC24C3948FECE82E86E0F82E50
:1016000003E028E730E042E162EE70E084EF90E032
:101610000E94CF0783B7817F83BF83B7816083BF79
:1016200078940E94B309FDCFDC0101C06D93415055
:101630005040E0F70895F999FECF92BD81BDF89A28
:10164000992780B50895A8E1B0E042E050E00C94FD
:10165000530BDC01A40FB51F4150504048F0CB01A3
:10166000840F951F2E910E943A0B41505040D0F7A5
:101670000895262FF999FECF92BD81BDF89A019762
:1016800000B4021639F01FBA20BD0FB6F894FA9ACA
:10169000F99A0FBE08950196272F0E943A0B0C94D9
:1016A000390BDC01CB01FC01F999FECF06C0F2BD7C
:1016B000E1BDF89A319600B40D9241505040B8F710
:0616C0000895F894FFCF2D
:1016C6000232323232323232123232323232323244
:0A16D6003232323232323232220058
:00000001FF
