S00F000073626F786E65742E7372656312
S2140000000C9410010C943A010C943A010C943A01A9
S2140000100C943A010C943A010C943A010C943A016F
S2140000200C943A010C943A010C943A010C943A015F
S2140000300C943A010C943A010C9498050C943A01ED
S2140000400C945E060C943A010C943A010C943A0116
S2140000500C9488020C943A010C943A010C943A01E0
S2140000600C943A010C943A010C943A010C943A011F
S2140000700C943A010C943A010C943A010C943A010F
S2140000800C943A010C943A010C943A010C943A01FF
S2140000900C943A010C943A010C943A010C943A01EF
S2140000A00C943A010C943A010C943A010C943A01DF
S2140000B00C943A010C943A010C943A010D944201C6
S2140000C00C943A010C94D6860C943A010C943A019E
S2140000D00C943A010C943A010C943A010C943A01AF
S2140000E00C943A010C943A010C94B5810C943A01A4
S2140000F00C94C0820C943A010C943A010C943A0188
S2140001000C943A010C943A010C943A010C943A017E
S2140001100C943A010C943A010C943A010C943A016E
S2140001200C943A010C943A010C943A010C943A015E
S2140001300C943A010C943A010C943A010C9438024F
S2140001400C943A010C943A010C943A010C943A013E
S2140001500C943A010C943A010C943A010C943A012E
S2140001600C943A010C943A010C943A010C943A011E
S2140001700C943A010C943A010C943A010C943A010E
S2140001800C943A010C943A010C943A010C943A01FE
S2140001900C943A010C943A010C943A010C943A01EE
S2140001A00C943A010C943A010C943A010C943A01DE
S2140001B00C943A010C943A010C943A010C943A01CE
S2140001C00C943A010C943A010C943A010C943A01BE
S2140001D00C943A010C943A010C943A010C943A01AE
S2140001E00C943A010C943A010C943A010C943A019E
S2140001F00C943A010C943A010C943A0157656963E1
S21400020068656E536572766F3A31004D6F64756C33
S2140002105465737465720001020408102040800063
S21400022011241FBECFEFCDBFDFE3DEBF00E00CBF63
S21400023018BE19BE1ABE1BBE8DEF9FE38DBF9EBFB4
S21400024010E2A0E0B0E2E0EDF8E100E00BBF02C093
S21400025007900D92A230B107D9F71BBE22E2A2E0AA
S214000260B0E201C01D92AC33B207E1F70E94230A48
S2140002700C94660C0C9400009FB7F8948FEF809354
S214000280C720809103208860809303209FBF8FEF54
S21400029008953091080630953F7097E020E0E0E240
S2140002A0F6E08481887F892B8483220F000000007B
S2140002B00000808583FD2160915098F72095E2EB41
S2140002C0F0E280818327A5EAB0E29C91982380958E
S2140002D08323892B8C933083E3EBF0E280818227A3
S2140002E0A3EAB0E29C91982380958223892B8C9375
S2140002F020830895FC018381948121813281821BB1
S214000300930B880F991F658576850E94FE0B6115F5
S214000310710519F067837087089581E090E0878300
S2140003209087089523E1829FC00111248C5F9F4D22
S21400033008958091B5208823B1F08091B020811176
S21400034031C0E0919D20F0E0E95EFD4FE491A0E62B
S214000350B6E014968C911497E8271496EC938FE1E8
S2140003608093B02008959091A3208091A1208927A2
S214000370A9F02091B120222311F0982B02C080957D
S21400038098238091B02081110BC081E0211180E07C
S2140003908093B1208FE18093B02002C01092B120EC
S2140003A0909364060895E0919D20F0E0E95EFD4F8D
S2140003B0E491E09364068FE18093B0200895982F2F
S2140003C0917080FF31C09091A62090FD33C020919F
S2140003D0B52021110CC081E08093B5200E94D30186
S2140003E0E6EAF0E280818160808391E024C091603B
S2140003F09093A62083FF04C01092B52091E01BC006
S214000400EDE9F0E280818F5F8770808323E1829F31
S214000410C00111248C5F9F4D80939E2090939F2057
S2140004200E94D30191E007C0E6EAF0E280818E7F69
S214000430808301C091E0892F0895089584E008958F
S21400044084E0089582E0089508950895089584E06C
S214000450089584E0089582E0089508950895089523
S21400046084E0089584E0089582E00895089508954C
S2140004701F920F920FB60F92112408B60F9218BE55
S2140004800BB60F921BBE2F938F939F93EF93FF9302
S2140004902FB7F894E0E0F9E080A591A58C509E4F28
S2140004A080A791A72FBFE6EBF0E284858F5F848755
S2140004B08F7081F4E091C520F091C620309751F0FE
S2140004C08281181614F4815082830190F081E02D09
S2140004D03097B1F7E091C320F091C420309751F0E7
S2140004E08281181614F4815082830190F081E02DE9
S2140004F03097B1F7FF91EF919F918F912F910F90C9
S2140005000BBE0F9008BE0F900FBE0F901F90189551
S2140005101F920F920FB60F92112408B60F9218BEB4
S2140005208F9380910020815080930020809100203E
S21400053088231CF482E0809300208F910F9008BEE1
S2140005400F900FBE0F901F901895A0E0B6E014967F
S2140005501C9214978FEF11968C931197E0EBF0E0B6
S214000560808350961C92A0E2B6E014961C921497D4
S21400057098E011969C931197808350961C92A0E465
S214000580B6E014961C92149711968C93119780835C
S21400059050961C92A0E6B6E014961C9214971196FC
S2140005A08C931197808350961C925097E6EBF0E25E
S2140005B023E231EA2083318326E635E5228333833E
S2140005C020E032E02483358320E430E0268337833E
S2140005D0108611862BE032E022873387E0E4F8E0CD
S2140005E011821382148291E096831782848781E1B8
S2140005F09AE786A397A387E0808380E315968C937B
S214000600159780EC16968C9308958FEF80930406CA
S2140006101092440680932406E0E6F6E08FE0868398
S21400062080E3858380EC86830895109204068FEF1E
S2140006308093440610922406E0E6F6E08FE0858379
S21400064080E3868380EC858308958FE0809304069C
S21400065090EF9093440610922406E0E6F6E0858339
S21400066080E3868380EC85830895789480910020CB
S214000670813039F0823041F0811108C00E940503B4
S21400068008950E94150308950E9425030895843F47
S21400069021E0920738F0893E23E0920728F088EEA2
S2140006A093E002C084EF91E0845F9148880F991F21
S2140006B00895FF920F931F93CF93DF939091B520E9
S2140006C0992309F472C081FF69C09091A62091FD1C
S2140006D06CC092609093A620FFB6F894C0919E20BE
S2140006E0D0919F20982F9C7009F44DC09F85911142
S2140006F05BC09881292F247092FF09C069813A81D6
S214000700906198834B815C8108EE13E009C00B81F1
S2140007101C8198819860988349815A8164EF31E002
S21400072082FD03C08BEF9FEF02C085E090E0840F50
S214000730951F0817190730F0062F132F08171907EB
S21400074008F48C01222319F00B831C8302C0098352
S2140007501A8389819A810E94470389879A878B81A9
S2140007609C810E9447038B879C870D831E8388810C
S214000770816082FB992790F990FB81F98883CE01EE
S2140007800E947A0111C08881816081FB222720F9AE
S21400079091E0922790FB81F9888306C0E6EAF0E2B2
S2140007A080818D7F808301C0FFBEDF91CF911F9136
S2140007B00F91FF900895CF93C091A5208C2F0E9493
S2140007C0DF01811103C08C2F0E945903CF91089539
S2140007D0893E23E0920710F088EE93E09695879581
S2140007E08C509E4F08952F923F924F925F926F9239
S2140007F07F928F929F92AF92BF92CF92DF92EF92AC
S214000800FF920F931F93CF93DF930E9449010E949C
S21400081049011092A0208091A3208093A12080936C
S214000820A4200F2EF0E0CF2EF0E1DF2EF02D0F2EBD
S214000830F4E08F2EF0E29F2EF02D77247394CFEC09
S214000840D1E00F2EFCECEF2EFF24F394F02D0F2EAC
S214000850F8EE2F2EF02D0F2EF3EA4F2EF0E25F2E3D
S214000860F02D88818823ECF3F701808188608083EF
S214000870F601208131812F3FFFEF3F0711F420E979
S21400088031E098819923ECF3F7019081986090838A
S214000890F601A280B380FFEFAF16BF0639F40F2E25
S2140008A0F8E5AF2EF02D6894BB24B1F89881992313
S2140008B0ECF3F701908198609083F601848195812E
S2140008C08F3FFFEF9F0751F0893E43E0940760F4A7
S2140008D08431910578F0682E392E11C00F2EF4E67B
S2140008E06F2EF02D312C0BC0622C0F2EF3E03F2E16
S2140008F0F02D05C00F2EF4E16F2EF02D312CC9011E
S2140009000E94E8038C01C5010E94E803093EE3E06B
S2140009101E0728F4043FF1E01F0720F005C0022D53
S21400092013E002C004EF11E0893E23E0920730F4A2
S2140009305C018017910738F4580105C0A22C0F2ED1
S214000940F3E0BF2EF02DF40101831283A382B4825C
S21400095065863686C8010E944703F4018187928720
S214000960C5010E944703F401838794878081178618
S214000970817C81608083F2018081872139F0F401D7
S214000980808182608083A582B68203C0F4010583DD
S2140009901683F401118A108A128AC4010E947A0111
S2140009A0770CF3E18F0E911C20E1C20ED11C4CE9AE
S2140009B0841640E2940609F054CFDF91CF911F9140
S2140009C00F91FF90EF90DF90CF90BF90AF909F90E9
S2140009D08F907F906F905F904F903F902F900895EC
S2140009E0CF93DF93E0E6F6E014828FEF8183A0EBEF
S2140009F0B0E08C93108AE0E4F6E0148281838C9356
S214000A00108AE0E0F6E02FE8228390E791832C93AB
S214000A1028E1208B9C93108A91E090934800E0E7B1
S214000A20F0E027E0218322832CE723832483E0E081
S214000A30F8E011821382148296839783848782EE6D
S214000A4094E086A397A384EF91E080A791A785E022
S214000A508083E7EAF0E2C6EBD0E28F859889808350
S214000A6091831092A920AEEAB0E2ED93FC93119721
S214000A701092B020EAEAF0E2A083B183EF87F88B09
S214000A801092AC2080919D2023E1829FC00111240A
S214000A908C5F9F4D80939E2090939F200E94F3032F
S214000AA081E090E0888399838A839B8382E091E04B
S214000AB08C839D8380E290E08E839F8318861986C0
S214000AC08CEF91E08A879B87DF91CF910895CF9333
S214000AD0DF931F921F92CDB7DEB78091E3209091EF
S214000AE0E42089839A8389819A818330910599F0DD
S214000AF030F48130910549F0029751F014C08430EB
S214000B00910561F0059769F00EC00E94A5020BC022
S214000B100E941D0208C00E94F00405C00E94260222
S214000B2002C00E942F020F900F90DF91CF91089580
S214000B301F920F920FB60F92112408B60F9218BE8E
S214000B4009B60F9219BE0AB60F921ABE0BB60F92CE
S214000B501BBE2F933F934F935F936F937F938F9319
S214000B609F93AF93BF93CF93DF93EF93FF938091C1
S214000B70AD20882309F487C080919C200E949201B2
S214000B80DC011F968C911F97811116C08C9180FFF7
S214000B9013C08091B420823078F48F5F8093B420A5
S214000BA08FE01F968C931F978C9181FB992790F965
S214000BB090FB82F98E7F8C93E0919C20F0E0E95EBA
S214000BC0FD4FE4918FEF809344061F968C911F97FC
S214000BD0882309F452C0E09346068C9182FF12C027
S214000BE013964D915C91149715962D913C911697FE
S214000BF017968D919C911897280F391F2417350743
S214000C0098F427C011968D919C91129715962D9168
S214000C103C91169717964D915C911897241B350BAF
S214000C208217930744F415C0C0EAD0E28881E82B07
S214000C30E8839A0107C0C0EAD0E2E0952881E22363
S214000C40E8839C011F968C911F9781501F968C936A
S214000C501F9715962D933C9316971F968C9181118E
S214000C6005C0E4EBF0E28081815080838FB7F89472
S214000C7020932808309329088FBFECE9F0E28081A2
S214000C808F5F87708083FF91EF91DF91CF91BF9147
S214000C90AF919F918F917F916F915F914F913F910F
S214000CA02F910F900BBE0F900ABE0F9009BE0F90AB
S214000CB008BE0F900FBE0F901F9018951F920F92B0
S214000CC00FB60F92112408B60F9218BE8F9380911C
S214000CD0AD20882319F08FEF809344068F910F90F4
S214000CE008BE0F900FBE0F901F9018958E3191057D
S214000CF0F1F038F48431910559F08531910579F099
S214000D0030C08F319105D1F083329105F9F029C0BA
S214000D1088E090E0FB018083918380E008958091D5
S214000D20A32090E0FB018083918380E0089588E013
S214000D3090E0FB018083918380E008958091A1205C
S214000D4090E0FB018083918380E008959091A1203C
S214000D508091A020892790E0FB018083918380E02A
S214000D6008959C012054310920343105A0F53695AC
S214000D70279536952795369527958770813089F083
S214000D8018F08230D9F029C083E1289FF0011124A1
S214000D90EC5FFF4D81859285FB018083918380E027
S214000DA0089583E1289FF0011124EC5FFF4D8385B1
S214000DB09485FB018083918380E0089583E1289FDA
S214000DC0F0011124EC5FFF4D85859685FB0180833D
S214000DD0918380E0089584E0089584E0089520914A
S214000DE0E3203091E4202330310579F020F42230DE
S214000DF0310541F013C02430310551F0253031055E
S214000E0051F00CC00E941E0208950E9476060895B6
S214000E100E94270208950E943002089584E00895F3
S214000E200F931F93CF93DF93863D27E0920781F0C1
S214000E30873DA7E09A0759F58CE392E28D3F9F43E2
S214000E40D0F480913C22811119C08DE392E20DC04E
S214000E508DEF9FE38C539242FB018083918380E069
S214000E6046C00196208121110BC0FC018D3F2FE367
S214000E709207B9F705C0ECE3F2E202C0ECE3F2E257
S214000E80EC53F242DB01ED93FC9380E030C08B0123
S214000E90EC010F940601882349F1CC30D10579F096
S214000EA0CD30D105A9F0CB30D105D9F48091BA2048
S214000EB09091BB20F8018083918380E018C08091D8
S214000EC0BC209091BD20D8018D939C9380E00FC0EC
S214000ED08091BE209091BF20F8018083918380E0AE
S214000EE006C0B801CE010E94EF0601C080E0DF9187
S214000EF0CF911F910F910895EF92FF920F931F933A
S214000F00CF93DF93EB017A018F31910501F5E1EA8A
S214000F10F0E28081962F982794238927808310E01B
S214000F20E0FE0CC0812F0E949201FC018FB7F8945E
S214000F309081C0FB91F9916090838FBFF694E794FF
S214000F40D695C7951F5F183059F780E07AC08C0198
S214000F50005411090034110508F070C01695079565
S214000F601695079516950795E3E10E9F80011124C7
S214000F700C5F1F4D8770813001F120F0823009F43C
S214000F803FC05EC0FFB6F894F80183859485681765
S214000F90790708F4CB01F801818792870E94E8035D
S214000FA0F80181839283C8010E947A01F80180814A
S214000FB088608083FFBE80E044C0FFB6F894F801E6
S214000FC021853285693EF3E07F0730F4CB01621756
S214000FD0730720F4C90102C088EE93E0F801838706
S214000FE094870E94E803F80183839483C8010E94D3
S214000FF07A01F801808180618083FFBE80E021C095
S214001000FFB6F894693EF3E07F0730F4643171056B
S21400101030F0962F8D2F05C098EE83E002C094E145
S21400102080E0F80195878687C8010E947A01F8015A
S214001030808180628083FFBE80E003C084E001C0C0
S21400104084E0DF91CF911F910F91FF90EF9008956C
S2140010502091E3203091E4202330310579F020F40C
S2140010602230310541F013C02430310551F02530CF
S214001070310551F00CC00E94200208950E947C07A2
S21400108008950E94290208950E943202089584E07D
S21400109008958091A2208F5F8A3008F58AE01FC0ED
S2140010A0292F30E0529FF001539FF00D1124EC5F82
S2140010B0FF4D4189442369F0529FF001539FF00D84
S2140010C01124EC5FFF4D2289281303C08F5F91E047
S2140010D0E7CF9F5F983020F38093A220089590E09A
S2140010E053E1DECFCF93DF93DC018C918F3FF9F095
S2140010F014968C911497803BE1F413968C91139779
S2140011008F73C9F4E4E0F0E22CE930E29189992388
S21400111041F012969C9112978289981302C0118A08
S214001120128A7396E217F30789F78FEF05C082E0FD
S21400113003C082E001C083E0DF91CF910895209143
S214001140E3203091E4202330310579F020F422307A
S214001150310541F013C02430310551F025303105FA
S21400116051F00CC00E94220208950E947208089551
S2140011700E942B0208950E943402089582E008958A
S21400118087E08093A92085E08093AC200895809125
S214001190E3209091E4208330910591F030F4813083
S2140011A0910549F0029749F008958430910559F069
S2140011B0059761F00895789408950E942402089592
S2140011C00E94C00808950E942D0208950E943602CB
S2140011D008959F92AF92BF92CF92DF92EF92FF92C6
S2140011E00F931F93CF93DF93CDB7DEB7C554D109C6
S2140011F0CDBFDEBF8091AC20811126C085E08093F4
S214001200AC200E9449018091AD208823E9F08091AE
S214001210A320E4EAF0E2208128278083E4E0F0E2DD
S2140012204CE950E281E031E0922F982319F0318B9F
S214001230108A05C09089992311F09150908B880FE1
S2140012407396E417F50781F70E94DB030E94990165
S2140012508091AD20811191C08091A92081118DC00F
S21400126081E08093AD2089C00F2EF4E0EF2EF0E2EF
S214001270FF2EF02D00E010E00F2EF0E8CF2EF0E06D
S214001280DF2EF02D0F2EFFECAF2EBB24B394F02DE7
S214001290F7019FB6F894808184FF0FC0D5018C912A
S2140012A088230CF46FC080818F7E8083638574856D
S2140012B0C80102960E942D0C65C083FF0EC0D501A2
S2140012C08C9188230CF45EC08081877F8083618543
S2140012D07285C8010E942D0C55C085FF53C0D501EC
S2140012E08C9188230CF44EC080818F7D8083658529
S2140012F07685C80104960E942D0C44C08091032078
S21400130085FD39C0E4E0F0E280E090E011E0082FCF
S214001310AC012089211129C02189222331F1D090E6
S214001320A32023E1249FC001259F900D1124FC01DA
S214001330EC5FFF4D7F0182E3808B19820E94490893
S214001340D70152968C938B838C81807C81608C83B2
S21400135080E38D831D2119F000680E8301C00E8383
S214001360CE0101960F940C0106C0110F01967396DC
S2140013708830910561F6889510C08091B52081115E
S214001380BDCF72CF9FBEB3E1EB0EF11C005F1F4FC7
S214001390C016D10609F07CCFB1CFCB5BDF4FCDBFF7
S2140013A0DEBFDF91CF911F910F91FF90EF90DF90FE
S2140013B0CF90BF90AF909F9008958091E32090913A
S2140013C0E4208330910599F030F48130910549F09E
S2140013D0029751F008958430910561F0059769F001
S2140013E008950E94350308950E94250208950E94DC
S2140013F0E90808950E942E0208950E943702089573
S2140014008091E3209091E4208330910599F030F4A8
S2140014108130910549F0029751F008958430910586
S21400142061F0059769F008950E94350308950E94BB
S214001430250208950E94E90808950E942E02089544
S2140014400E9437020895CDB7DEB7C754D109CDBF85
S214001450DEBFF8940F9428020F94FA010E946705E5
S214001460E0E0F9E0118213821482168281E087831D
S2140014708FEF84878FEF9FEF86A397A385E0808307
S21400148006EB10E2F8016081718185E093E00E942E
S2140014902D0CF8016281738187E093E00E942D0C89
S2140014A0F8010285138501151105C1F00F2EF0E431
S2140014B0EF2EF3E0FF2EF02DF801D4906D2DC7012E
S2140014C00E94220CDD2051F0FFEFEF1AFF0A0F5F9B
S2140014D01F4F80E6E81683E0F80671F70E943C018D
S2140014E00F94080178940E94C708A12C6894BB2426
S2140014F0B3F833243A946894CC24C6F8DD24D3F8A1
S2140015000F2EE12CF9E0FF2EF02D00E419E0689490
S214001510222427F80F2EF7EC8F2EF0E29F2EF02DC8
S214001520CE0101960F940201811162C165E4CE01DD
S21400153001960F940A0118160CF02EC18A818111AB
S21400154002C0F4012782CE0101960E949F088823DC
S21400155009F418C18F3F09F426C1823009F00AC188
S2140015608D8188230CF41FC1823009F4F0C08531C8
S21400157041F0813001F58A81811115C10E943C013C
S214001580E7C083E090E2809730F480910320806487
S2140015908093032008C09FB7F8948091032080644E
S2140015A0809303209FBF89818F3F09F4FCC08C8104
S2140015B0807C8C83E7C099819F3F09F4F4C0813218
S2140015C009F445C030F4833109F498C0803241F004
S2140015D0B9C0823209F45AC0833209F470C0B2C06E
S2140015E08C818F73833009F0B8C09885903208F0EC
S2140015F0B6C02E813F81892F880F8E734C81407C28
S214001600842B8C83992309F4BDC091503901EFEFE8
S2140016106E1A7E0A690E711CBE016A5F7F4FCB018F
S214001620029628968EAF9FAF289729019FEF491AFA
S214001630590AC9010E9410078111DCC028966EADB8
S2140016407FAD289792014614570449F79BC02C811A
S2140016502F73822F90E020FD84C095958795582E95
S214001660882309F48FC03E01E6E06E0E711CF3017C
S214001670B30182E0680E711C808191810E94100780
S2140016808111B8C05A945110F2CF7CC08C81982F2B
S2140016909F73963019F44A855B8506C08D73843037
S2140016A009F061C04FEF5FEF2E813F816885798535
S2140016B09C81907C9C83C9010E94280849C08C812B
S2140016C08F73833009F051C08885982F9F7041E052
S2140016D050E002C0440F551F9A95E2F788231CF489
S2140016E0642F752F02C060E070E02E813F819C81E0
S2140016F0907C9C83C9010E9428082AC08C818F7325
S2140017004FEF480F413298F56E819FEF960F92305B
S21400171080F5403240F4E7E0F0E0EC0FFD1FE40F08
S214001720F11D1082482F50E090E2699FB00111240D
S214001730605C7C4FCE0107960E94120C8C81807CE8
S2140017408C8320C0CE0101960F94040101C0832D26
S2140017508F3F49F181110EC015C083E00BC083E0B6
S21400176009C083E007C083E005C083E003C083E0D0
S21400177001C083E09C81907C92609C839D819E83C7
S2140017808F832D828A8189838D8180688D83CE01A7
S21400179001960F940C0107C08E3F29F48091022019
S2140017A0826080930220809103208670F1F00F946F
S2140017B00E018823E1F3F8940E94000AF5011682D0
S2140017C0178210823486F6011682178210823486BB
S2140017D0F7011682178210823486F8011682178265
S2140017E0108234860F9400019BCE0E94DD0998CEAD
S2140017F0889596CE8F3F09F0BDCFD5CFAA1BBB1BD1
S21400180051E107C0AA1FBB1FA617B70710F0A61BFB
S214001810B70B881F991F5A95A9F780959095BC011C
S214001820CD010895DC01A40FB51F4150504048F08B
S214001830CB01840F951F2E910E94230C41505040DF
S214001840D0F70895262F0E945A0C0080021619F031
S2140018500E94340C0197019708950196272F0E9445
S214001860230C0C94220C262FE0ECF1E0378537FD94
S214001870FDCF3485377F3487378531FF09C036E39F
S214001880328738ED34BF31E03387378537FDFDCFFB
S21400189033E33287808391831282248325E3228771
S2140018A028ED31E024BF33870196089503D0808168
S2140018B099270895E0ECF1E0378537FDFDCF3485B4
S2140018C038603487FC01E050F04F0895F894FFCF5D
S2060018D002000F
S214010100ECE2F2E2808191810196808391830895E9
S214010110E2E3F2E2808191810196808391830895E2
S214010120E6E1F2E2808191810196808391830895D0
S214010130E7ECF0E286A1982F990F8927982F9695DC
S2140101408927982F990F990F892786A30895FC016F
S214010150948127818681890F821788F49F5F948313
S2140101608381DF01A80FB11D18966C938F5F8217EC
S21401017018F4838381E00895138281E00895E7EC03
S214010180F0E2878D8460878F80E00895FC01968178
S2140101908181981740F4A7ECB0E25F968C915F9747
S2140101A082605F968C9386819181891B86831182FA
S2140101B0808182830895FC0181819681891778F474
S2140101C08F5F81839081DF01A90FB11D18968C91F5
S2140101D09F5F90832781921740F010820895E7EC85
S2140101E0F0E2878D8260878F80E008954FB7F8949C
S2140101F0E0E0FAE020A131A14FBF820F931F9F7369
S2140102002FB7F89480A791A72FBF80E184878781B5
S2140102108C7F826087830895CF93DF93C5EED0E20B
S2140102208C8181110DC0FE01E356FF4F8681873018
S21401023018F11B82CF010E94DB808C838823E1F0BA
S2140102408B81811119C08881811116C00E94988006
S2140102502A8130E0220F331F220F331F205F3E4FCB
S21401026091E090938C069093E5208F77A901480F33
S214010270511DCA010E94F680DF91CF910895FC01BD
S21401028023812F732A5F8FB7F8949091892130913B
S2140102908821931B30918621931B8FBF81E02917FC
S2140102A008F080E0089581E090918821911180E026
S2140102B008958627082E8295807F8025092E982FFF
S2140102C082958F700826869598278927880F880F2C
S2140102D0880F802508959FB7F8948FEF8093C720E5
S2140102E0809103208860809303209FBF0895E0EAF1
S2140102F0FAE083818F7C8062838384818261848338
S214010300089587E591E0E5EEF0E2DF019C011D929C
S21401031021503040E1F7E7ECF0E2808D86A389E1D9
S21401032080A38CE886A780938921E0E8F6E094E034
S21401033092838289877C8861828B88E0858381832A
S21401034081858C7F8187928781E08487E0EAFAE065
S214010350178287E0868380E48183138282E0848328
S21401036087E285830E94778108951F920F920FB6C8
S2140103700F92112408B60F9218BE09B60F9219BE35
S2140103800AB60F921ABE0BB60F921BBECF92DF9221
S214010390EF92FF920F931F932F933F934F935F9389
S2140103A06F937F938F939F93AF93BF93EF93FF9337
S2140103B0CF93DF931F92CDB7DEB705EE10E2E0EAEA
S2140103C0FAE0F180F9829981E0808F2D8C71898322
S2140103D08823D1F00E948080F4FE08C0F801E75B14
S2140103E0FE4F80819181019680839183F3FC0E9468
S2140103F08880F2FE98C0F801E55BFE4F808191810E
S2140104000196808391838FC090FF36C0F801858561
S214010410882369F0E15BFE4F80819181019680839C
S21401042091830E948080F801158686858487809155
S214010430C720E81619F0FFEFEF1275C0E0EAFAE000
S21401044084818D7F8483680189E0C80ED11C60E0B9
S214010450C6010E94A780882361F06E2DC6010E9406
S214010460A780882331F00E94908086E0F801878378
S21401047065C00E94888055C0F801858597819817C8
S21401048040F4EF5AFE4F80819181019680839183DB
S21401049048C0843029F48E2D8F738A5FF8018783D4
S2140104A06E2DC80109960E94A780811103C00E9483
S2140104B0888037C00E949080F8014781258530E00A
S2140104C0842F90E0019628173907C1F58685E80F35
S2140104D0F11D418BF8011782E0EAFAE0848182601F
S2140104E08483F8012785858590E0820F911D2089F8
S2140104F030E0281739072CF4E7ECF0E2878D8460AA
S214010500878FF80197858585890F87871586848566
S2140105108687E8E1F2E2808191810196808391836A
S2140105200DC00E948080F8011782E0EAFAE084811B
S21401053082608483F8011586868584870F90DF9113
S214010540CF91FF91EF91BF91AF919F918F917F9145
S2140105506F915F914F913F912F911F910F91FF9056
S214010560EF90DF90CF900F900BBE0F900ABE0F90CA
S21401057009BE0F9008BE0F900FBE0F901F901895E2
S2140105801F920F920FB60F92112408B60F9218BE43
S21401059009B60F9219BE0AB60F921ABE0BB60F9283
S2140105A01BBE0F931F932F933F934F935F936F93AE
S2140105B07F938F939F93AF93BF93CF93DF93EF93E5
S2140105C0FF93C5EED0E2E0EAFAE08181482F44715C
S2140105D030812D8188232CF441110DC0321313C0B4
S2140105E06DC0FE01E15CFE4F8081918101968083A2
S2140105F09183442341F0FE01EF5BFE4F80819181A0
S214010600019680839183321741F0FE01ED5BFE4F28
S2140106108081918101968083918388E0809386060C
S214010620E0EAFAE08481877E84838381837F838303
S21401063082E08883FE01E35CFE4F80819181019612
S214010640808391838A81811105C09B818C81981753
S21401065088F01CC081508A83FE01E356FF4F118249
S21401066082818083E855FF4F808191810196808346
S21401067091831DC08E0103561F4FC8010E94DB8067
S2140106808B818F5F8B839C818917B8F31C821B82B9
S21401069089E18A83CE0183569F4F0E94C680FE0160
S2140106A0EB5AFE4F808191810196808391831C8253
S2140106B01B8280E091E00E94F68043C0E0EAFAE007
S2140106C084818F7E848383818F7C83838481806110
S2140106D084839B818C81981780F4CE0183569F4F2B
S2140106E00E94DB809B819F5F9B838D83E0EAFAE01B
S2140106F094819E7F948380831DC0E0EAFAE0838123
S214010700837F83831C821B82CE0183569F4F0E9468
S214010710C680E0E2F2E28081918101968083918336
S2140107200E9477818881833009F4188289E18A835F
S2140107300E940C81C95CDE4F88819981019688836D
S2140107409983FF91EF91DF91CF91BF91AF919F91E7
S2140107508F917F916F915F914F913F912F911F9153
S2140107600F910F900BBE0F900ABE0F9009BE0F900F
S21401077008BE0F900FBE0F901F901895DF92EF9254
S214010780FF920F931F93CF93DF93AC01663008F46B
S21401079073C09FB7F894E7ECF0E235A520A5832F48
S2140107A0821B873008F472C0231738F4E091EE20DC
S2140107B0F0E0E953FF4DC7A56AC0E7ECF0E2278DEC
S2140107C02260278FC0E063C0EC2FF0E03196282F1F
S2140107D030E02E173F070CF451C06C1708F450C0D8
S2140107E0C63408F04FC08A01DFB7F8948EEE90E267
S2140107F00E94DB80DFBFCC2309F178014FEF4C0F5D
S21401080050E04F5F5F4F040F151FDFEFDFB6F89420
S2140108108EEE90E20E94DB80DFBE9D2F982728E0B7
S2140108203CE8969508F493272A95D9F7D92FF7012E
S21401083081937F010E171F0749F701C0DFEF1FB72E
S214010840F8948EEE90E20E94C6801FBFDD2359F019
S2140108500E948080E8E3F2E28081918101968083A4
S21401086091838EEF19C0EAE1F2E2808191810196CF
S214010870808391838C2F10C08DEF0EC08FEF0CC03C
S2140108808DEF0AC08CEF08C08FEF06C0C0E09FBF97
S214010890C63008F099CFF8CFDF91CF911F910F9115
S2140108A0FF90EF90DF900895BF92CF92DF92EF9284
S2140108B0FF920F931F93CF93DF93FC0103810F7376
S2140108C00A5F8FB7F8949091892120918821921B15
S2140108D020918621921B8FBF091708F07EC07F01E9
S2140108E0CFB7F894602F82E891E20E94A780CFBF2D
S2140108F0882309F43DC010E00150110910161106B5
S21401090064F5B12CCFEF0F2EF7ECCF2EF0E2DF2EF1
S214010910F02D81E0B81203C0F601608104C0F70132
S214010920EB0DF11D60819C2F962788E02CE89695AB
S21401093008F492278A95D9F7C92FDFB7F89482E889
S21401094091E20E94A780DFBF882391F0B3948B2D9C
S21401095090E080179107ECF201C0CFEFDFB7F89473
S2140109606C2F82E891E20E94A780DFBF81110BC045
S2140109708FB7F894109286219091872190938521C4
S2140109808FBF81E02BC0CFB7F894809188219091DA
S2140109908621482F50E0490F511D2091892130E0D2
S2140109A0241735072CF4E7ECF0E2278D2460278F17
S2140109B0890F8093882110928621809185218093CA
S2140109C087210E940C81CFBFEEE1F2E28081918106
S2140109D001968083918380E001C081E0DF91CF9111
S2140109E01F910F91FF90EF90DF90CF90BF900895E9
S2140109F0CF92DF92EF92FF920F931F93CF93DF93E5
S214010A00EC018981811103C080E88093CE208C811E
S214010A1088230CF454C18B01823009F437C1853127
S214010A2041F0813001F58981811167C10E946B8196
S214010A3064C183E090E2809730F480910320806463
S214010A408093032008C09FB7F894809103208064A8
S214010A50809303209FBF88818F3F09F44EC18B810D
S214010A60807C8B8348C198819F3F09F446C18032C0
S214010A7031F08132A9F1893109F003C14FC01B81E0
S214010A801F73133009F01DC12F81203208F005C1F4
S214010A908D819E81322F330F3E734B81407C342BE8
S214010AA03B83222309F427C1BE016B5F7F4F0FEF03
S214010AB0020F10E00F5F1F4F080F191F6B0122E096
S214010AC0C20ED11C7C01EFEFEE1AFE0A0F9406014E
S214010AD0811115C1B601C701E016F10679F70BC100
S214010AE02B812F73822F90E020FDEDC09595879581
S214010AF0182F882309F4FFC07E01F5E0EF0EF11CE4
S214010B00F701B70122E0E20EF11C808191810F947A
S214010B1006018111F6C0115099F7EDC080910320AE
S214010B20867009F4D2C09B819F739350913208F06E
S214010B30CEC02D813E814F8140FF0BC0843009F02D
S214010B40C8C0A901490F511D4130504208F0C3C029
S214010B5003C0823009F0C1C0E7ECF0E26089718918
S214010B6042895389FB01E40FF51F2E173F0709F051
S214010B70B6C0911170C0452B41F080E090E020E0B6
S214010B80A8010F94FE0F8111ACC0809103208670DE
S214010B90823069F4E7ECF0E2208931898289938911
S214010BA0820F931F8115904209F09DC010C08430BA
S214010BB071F4E7ECF0E22089318982899389820F0A
S214010BC0931F248935898217930709F08EC0E7ECB5
S214010BD0F0E28689978904891589E0E0F0E008C08B
S214010BE07F012FEFE21AF20A64910E945981F70100
S214010BF00E171F07A9F7892B09F079C01EEF56C0FB
S214010C00F70182899389AC014F5F5F4F428B538B0B
S214010C10FE01E20FF31F2581F801E80FF91F20837B
S214010C20F701828993898115914099F4F7016089CA
S214010C30718980E090E020E0A8010F94FE0F8111F9
S214010C4058C0F701808991899395808B918B128A80
S214010C50138AD3940AC00F2EF3E0DF2EF02D0F2E49
S214010C60F7ECEF2EF0E2FF2EF02D2D2D30E08B81EC
S214010C708F7390E0281739071CF28B81807C8B8359
S214010C803AC0CE010F940401182F01C01FEF1F3F79
S214010C90D9F1112359F01E3F49F08B81807C826087
S214010CA08B838C818D831E8380E88C8389818883E6
S214010CB08C8180688C83CE010E94548425C010E00C
S214010CC023C013E0EACF13E0E8CF15E6E6CF13E042
S214010CD0E4CF15E6E2CF16E6E0CF15E6DECF17E65F
S214010CE0DCCF1AE6DACF16E6D8CF16E6D6CF1BE665
S214010CF0D4CF1AE6D2CF10E0D9CF1FEF05C0182FF8
S214010D0001C0182F1F3F39F6812FDF91CF911F9118
S214010D100F91FF90EF90DF90CF900895CF93DF93E0
S214010D20CDB7DEB7C554D140CDBFDEBF98ED94BF79
S214010D3092E49093A20023E030E22032310530F4B1
S214010D409091032091609093032008C02FB7F894E8
S214010D50909103209160909303202FBF882321F068
S214010D600E946B810E9481817894CE0101960F9436
S214010D700201811119C065E4CE0101960E94BE836D
S214010D80181694F4BE016A5B7F4FCE0101960E944D
S214010D90F8848E3F49F40E9453818823F1F38091B1
S214010DA0032084700F94FD0F8895DFCF1F920F925A
S214010DB00FB60F92112408B60F9218BE09B60F92FD
S214010DC019BE0AB60F921ABE0BB60F921BBE2F9310
S214010DD03F934F935F936F937F938F939F93AF93BD
S214010DE0BF93CF93DF93EF93FF93E0E0FAE0878121
S214010DF08C7F87838091E520813009F066C08091E1
S214010E00E920882309F45EC08091E82081115AC048
S214010E109091882180918321891738F4E09182216D
S214010E20F0E0EE57FE4DC08506C0E7ECF0E2878D98
S214010E308260878FC0E088E080938506E0EAFAE06A
S214010E4084818960848380918C0680FD04C08091B2
S214010E50880682FD18C00E949880E7ECF0E220A187
S214010E6030E0220F331F220F331F20513F4F91E0F6
S214010E7090938C06968F8F77A901480F511DCA0152
S214010E800E94F6804AC0E0EAFAE084818F7E84837D
S214010E908381837C8383848180618483838188606A
S214010EA08383C08384818D7F848382E891E20E945C
S214010EB0DB80E7ECF0E2C3A381A18F5F81A383E02F
S214010EC0868F2BC01092E52028C0823071F4C0E8CE
S214010ED0D6E088E08D8384E08093E52080E490E08E
S214010EE00E94F68081E08C8718C08430B1F480912E
S214010EF08C0680FD0BC08091880682FF07C00E9489
S214010F0077811092E5200E940C8107C081E08093D2
S214010F108C0680E490E00E94F680FF91EF91DF91CD
S214010F20CF91BF91AF919F918F917F916F915F917B
S214010F304F913F912F910F900BBE0F900ABE0F90CD
S214010F4009BE0F9008BE0F900FBE0F901F90189508
S214010F50EF92FF920F931F93CF93DF93FC0194813F
S214010F60963109F4FEC020F4923109F4C0C005C0E0
S214010F70983129F0993109F426C182E039C183817B
S214010F808F7323E030E22032310530F49091032054
S214010F90997F9093032010C02FB7F8949091032067
S214010FA09D7F909303202FBF2FB7F8949091032035
S214010FB09B7F909303202FBF833209F006C12581C2
S214010FC0368180859185A285B385833542E694076F
S214010FD04EE6A40742E4B407D9F4878180FDF7C042
S214010FE0211560E2360709F0F4C083E090E28097AD
S214010FF030F48091032082608093032058C09FB70D
S214011000F894809103208260809303209FBF4FC095
S21401101083359246AE46B14409F049C0878180FFC8
S214011020DAC0AFECB1E08C918823ECF3ACECB1E024
S2140110308C9188608C934091051350910613AFEC08
S214011040B1E08C918823ECF3ACECB1E08C91886034
S2140110508C9380910713909108134F3FDFEF5D0744
S21401106021F48F3F6FEF960761F06485758546170B
S214011070570709F0B2C0468557858417950709F0CA
S214011080AEC02115310509F4ACC083E090E280972B
S21401109030F48091032084608093032008C09FB7BA
S2140110A0F894809103208460809303209FBF7F0182
S2140110B0EF012896E7ECF0E2108A118A128A138A69
S2140110C0248B358B8701085D1F4F8FEF9FEF69914A
S2140110D00E945981C017D107D1F78093DD209093E4
S2140110E0DE20E7018B81807C8B8380E081C0838159
S2140110F08F7390E002970CF076C083818F738130F6
S21401110029F4C581C33008F070C001C0C0E0BF013A
S2140111106B5F7F4F40E2C49FE00111248E01005CAB
S2140111201C4E20E0AFECB1E04CEC51E09C919923D1
S214011130ECF3EA01888188608883E80189918E0151
S2140111409FEF980F9E3F30F42F5FEB018993BE010E
S214011150203261F72F738381807C282B238380E0E4
S21401116047C083818F73813009F041C0858180FF3C
S21401117013C083E090E2809730F480910320806171
S214011180809303201BC09FB7F89480910320806151
S214011190809303209FBF12C083E090E2809730F4D3
S2140111A0809103208F7E8093032008C09FB7F89418
S2140111B0809103208F7E809303209FBF8381807C54
S2140111C0838380E015C085E613C083E011C089E6FD
S2140111D00FC086E60DC089E60BC088E609C088E622
S2140111E007C086E605C083E003C083E001C083E054
S2140111F0DF91CF911F910F91FF90EF9008958A3064
S214011200910509F4E5C058F58430910509F4A8C0A4
S21401121078F48130910509F470C008F465C0823015
S214011220910509F477C08330910509F486C02EC173
S2140112308730910509F4AAC048F48530910509F470
S21401124096C08630910509F499C020C18830910571
S21401125009F4A4C08930910509F4A8C017C1843DDA
S21401126027E0920709F4D5C0B8F4813DA7E09A07B4
S21401127009F4BCC030F4803DE7E09E0709F4AFC036
S21401128005C1823DF7E09F0709F4B5C0833D27E01D
S214011290920709F4B7C0FAC0873D47E09407B9F052
S2140112A058F4853DB7E09B0709F4BAC0863DE7E0F0
S2140112B09E0709F4BCC0EAC08A3FF7E09F0709F41D
S2140112C0D5C08B3F27E0920709F4D8C0DFC08CE376
S2140112D092E28D3F9F4308F0BDC080913C22811170
S2140112E0BCC08DE392E2B0C08091C8209091C92025
S2140112F0DB018D939C9380E008958091C8209091A6
S214011300C920A091CA20B091CB20FB01A083B18354
S21401131080E00895EFECF1E080818823ECF3ECECBB
S214011320F1E0808188608083809105139091061397
S214011330DB018D939C9380E00895EFECF1E08081D2
S2140113408823ECF3ECECF1E0808188608083809167
S214011350071390910813FB018083918380E0089521
S21401136084E090E0DB018D939C9380E0089581E01A
S21401137091E0FB018083918380E008958091C720EE
S21401138090E0DB018D939C9380E00895809103208B
S21401139090E0FB018083918380E008958091022094
S2140113A090E0DB018D939C9380E00895EFECF1E0F3
S2140113B080818823ECF3ECECF1E080818860808307
S2140113C08091001390E0FB018083918380E0089573
S2140113D083E090E0DB018D939C9380E0089587EC99
S2140113E090E0FB018083918380E00895DB011D92EC
S2140113F01C9280E0089585EE90E0FB018083918346
S21401140080E0089580E093E0DB018D939C9380E07B
S214011410089580E090E2FB018083918380E0089547
S21401142080E098E0DB018D939C9380E008958DEF3A
S2140114309FE38C539242FB018083918380E0089561
S2140114400196208121110BC0FC018D3F2FE39207ED
S214011450B9F705C0ECE3F2E202C0ECE3F2E2EC53CA
S214011460F242DB01ED93FC9380E008958091E52044
S21401147090E0FB018083918380E008958091E620CF
S21401148090E0DB018D939C9380E008959C012A5D9A
S214011490374020323105A0F42331310560F4880F3E
S2140114A0991FFC01EE59FD4E80819181FB018083DD
S2140114B0918380E00895DB011D921C9280E00895DF
S2140114C09C01385021153840D0F49858880F991F40
S2140114D08115E8E09E0740F5EFECF1E0208122233C
S2140114E0ECF3ECECF1E0208128602083FC01F05F56
S2140114F080819181DB018D939C9380E008959C010E
S21401150030512115304190F49059880F991F81155B
S214011510E0E29E0768F4FC01F05E80819181DB01C8
S2140115208D939C9380E0089584E0089584E0089567
S21401153084E00895CF92DF92EF92FF920F931F936C
S214011540CF93DF931F92CDB7DEB78C018091D02069
S214011550811121C08091800681FD17C0E7ECF0E281
S2140115608AE08187909188069695917081E0982708
S21401157082E08093810686858927258528238095A4
S2140115808923822B8587968706C081E08093D020A9
S21401159082E0809382068091CF2081117CC0E7ECA7
S2140115A0F0E280E28087858580FF11C08091D62099
S2140115B080FD12C08785816087879FB7F894209148
S2140115C0032080E18227809303209FBF05C0E7ECBC
S2140115D0F0E287858E7F87878091032089839091AB
S2140115E0D320891799F18093D320998194FF07C05E
S2140115F0E7ECF0E28AEA828785E583871FC0998156
S21401160093FF06C0E7ECF0E212868CEC838716C0E7
S214011610867031F0E7ECF0E28AEA828713860EC024
S214011620898180FF06C0E7ECF0E28EE382871386AD
S21401163005C0E7ECF0E288E182871386898185FDA3
S21401164005C0E7ECF0E282858068828780910220FF
S214011650882319F08FEF8093D220E7ECF0E28285A1
S214011660880F811D8287882324F481E08093860673
S21401167003C081E080938506E7ECF0E28385880F5E
S214011680811D8387882324F482E08093860603C025
S21401169082E0809385068091032086FF0AC00E941F
S2140116A053818823F1F388ED84BF81E0809379002C
S2140116B0FFCF90910320892F887093FFB5C0EFEC80
S2140116C0F1E080818823ECF3ECECF1E08081886026
S2140116D08083C0900513D0900613EFECF1E0808173
S2140116E08823ECF3ECECF1E0808188608083E09065
S2140116F00713F090081365E4C8010E94BE8318160C
S2140117000CF05EC0F801818181115AC08091CE2013
S214011710811106C00F9421018F718F5F8093CD20B8
S21401172080E88093CE20F8018181811149C08081B3
S2140117308F3F09F045C08481813109F041C0838122
S2140117408F738930E9F5458156816781708580916F
S214011750C8209091C920A091CA20B091CB204817EB
S21401176059076A077B0761F581859285C816D906F0
S21401177039F583859485E816F90611F585858093F4
S214011780C720108281E9848312828381807C8383CF
S214011790C8010E94548483E090E2809738F48091D7
S2140117A00320877F8093032081E03EC09FB7F89493
S2140117B080910320877F809303209FBF81E034C000
S2140117C08091CE20882359F18091CD20811129C0A6
S2140117D0F801108212828381807C8860838380E195
S2140117E08483C8010E943F818823E9F00F94210178
S2140117F08F71865FE7ECF0E2868381819281A38117
S214011800B481F80185839683A783B087C186D28683
S214011810E386F486C8010E94548481E005C081E015
S21401182003C081E001C081E00F90DF91CF911F914D
S2140118300F91FF90EF90DF90CF900895F8946FEF9F
S21201184080E093E00F94FC0F80E00E948E86FD
S2140200000D94BF000C943A010C943A010C943A01F8
S2140200100C943A010C943A010C943A010C943A016D
S2140200200C943A010C943A010C943A010C943A015D
S2140200300C943A010C943A010C9498050C943A01EB
S2140200400C945E060C943A010C943A010C943A0114
S2140200500C9488020C943A010C943A010C943A01DE
S2140200600C943A010C943A010C943A010C943A011D
S2140200700C943A010C943A010C943A010C943A010D
S2140200800C943A010C943A010C943A010C943A01FD
S2140200900C943A010C943A010C943A010C943A01ED
S2140200A00C943A010C943A010C943A010C943A01DD
S2140200B00C943A010C943A010C943A010D944201C4
S2140200C00C943A010C94D6860C943A010C943A019C
S2140200D00C943A010C943A010C943A010C943A01AD
S2140200E00C943A010C943A010C94B5810C943A01A2
S2140200F00C94C0820C943A010C943A010C943A0186
S2140201000C943A010C943A010C943A010C943A017C
S2140201100C943A010C943A010C943A010C943A016C
S2140201200C943A010C943A010C943A010C943A015C
S2140201300C943A010C943A010C943A010C9438024D
S2140201400C943A010C943A010C943A010C943A013C
S2140201500C943A010C943A010C943A010C943A012C
S2140201600C943A010C943A010C943A010C943A011C
S2140201700C943A010C943A010C943A011895112405
S2140201801FBE8DEF9FE38DBF9EBFE0E0F0E21192AF
S210020190EF3F8FE3F807D9F70D94470203
S2140202000C941E8C0C949A8A0C94A8870C94FF88E3
S2140202100C9481810C94BE830C9454840C94538168
S2140202200D94BF000D94BF000D94BF000D94BF0047
S2140202300D94BF000D94BF000D94BF000D94BF0037
S2140202424FB7F894E7ECF0E2808D918D9C01220F75
S214020252331F822793279C0136952795329522953E
S2140202622F7023273F702327822793279C01220F72
S214020272331F220F331F82279327808F918F4FBF00
S21402028208951F920F920FB60F92112408B60F927C
S21402029218BE0BB60F921BBE8F939F93EF93FF93DC
S2140202A2E7ECF0E285818F5F85838681882319F0E9
S2140202B28681815086838091CF20882329F0E7ECBD
S2140202C2F0E28085815080878091D020882329F0B1
S2140202D2E7ECF0E28185815081878091CE208823E7
S2140202E2C1F083E090E2809730F4809103208F7D04
S2140202F28093032008C09FB7F894809103208F7DD5
S214020302809303209FBFE7ECF0E2878181508783C8
S21402031212C083E090E2809730F4809103208062DC
S2140203228093032008C09FB7F894809103208062CE
S214020332809303209FBFFF91EF919F918F910F9021
S2140203420BBE0F9008BE0F900FBE0F901F9018950F
S214020352A0E0B6E01C92E0EBF0E09FEF908380E133
S21402036250968C93A0E2B6E01C92908350968C93A1
S214020372A0E4B6E01C92908350968C93A0E6B6E078
S2140203821C92908350968C93A0E8B6E01C929083BF
S21402039298E150969C9350978093B20082E38093A2
S2140203A2B30083E011968C93119716968C93E7EC22
S2140203B2F0E282871386089510920320109202209A
S2140203C20895E0E7F0E084E580838EE6858308956B
S2140203D2E0E0FAE011821382148282E086831782B8
S2140203E28FEF84878FEF9FE386A397A384E08083B1
S2140203F20895CF93DF93EFECF1E080818823ECF34C
S214020402ECECF1E080818860808380910113909108
S2140204120213A0910313B0910413C7ECD0E28983AE
S2140204229A83AB83BC832FEF2883188A198A1A8A87
S2140204321B8A1C8A1D8A888F998F0F9421018D83AD
S21402044281E090E08A8F9B8FDF91CF910895CF93C0
S214020452DF9300D0CDB7DEB7E0E2F6E088E0808335
S2140204628FEF8093B00088E1808B808590E089834D
S2140204729A8389819A818093E3209093E4201B8257
S2140204822396CDBFDEBFDF91CF910895A89588ED62
S21402049284BF81E0809380000F94A9010F94280202
S2140204A20F94DD01E0E5F0E0808182608083809136
S2140204B2510081FD06C0E1E5F0E00000808181FF87
S2140204C2FCCF88ED84BF81E080934000E0E5F0E057
S2140204D280818E7F80838BEC82838081886080839A
S2140204E28091510083FD3DC088ECE1E5F0E003C057
S2140204F2908193FD36C00000000000008150C1F7D3
S21402050210C0E1E5F0E00000808184FFFCCF88EDB8
S21402051284BF84E080934000E0E5F0E080818D7F36
S21402052280830F94E2010F94E9010F94FA0110926C
S214020532CE20EFECF1E080818823ECF3ECECF1E0E4
S21402054280818860808380910013811107C088EDC4
S21402055284BF87E08093A2000C94000081E00E9490
S2140205628E86E0E5F0E082EC85838081806180837E
S20E0205728091510084FFC5CFCACF66
S214021B007F928F929F92AF92BF92CF92DF92EF9286
S214021B10FF920F931F93CF93DF936C017B01742E7A
S214021B20EFECF1E090819923ECF3CC248FB7F89494
S214021B30A0ECB1E096E21A969C931A9741E050E028
S214021B4028ED30E0F60124BF4093CB011A961C9292
S214021B508FBFEFECF1E080818823ECF35701B3945A
S214021B608501D701C0ECD1E00F2EF3E28F2EF02DC7
S214021B7096012E193F096DE970E0772029F0FD01E4
S214021B8085919491992E04C08C9111969C901197F0
S214021B909FB7F8948A86A901F901EA0FFB1F082E5F
S214021BA0192C64BFE89511241A869FBF12960A174D
S214021BB01B0719F78FB7F894A0ECB1E095E21A96D6
S214021BC09C931A972DE930E0F60124BFE8951A9601
S214021BD01C928FBFEFECF1E080818823ECF3772034
S214021BE019F0F701849102C0F7018081F701E40F32
S214021BF0F51FE4918E1308C0FFEFEF1AFF0AEA14EE
S214021C00FB0469F780E001C081E0DF91CF911F916C
S214021C100F91FF90EF90DF90CF90BF90AF909F9084
S214021C208F907F900895EFECF1E020812223ECF371
S214021C304FB7F894EFECF1E020812223ECF3ECECC2
S214021C40F1E0208128602083282F392FF901F05FE8
S214021C509081961709F1E0ECF1E09485977F9487DE
S214021C6096E3928798ED94BF91E09093CB01EFECC8
S214021C70F1E090819923ECF3E0ECF1E093E39287B4
S214021C80808331831282648385E3828788ED84BFF2
S214021C9081E08093CB0112864FBFEFECF1E08081AA
S214021CA08823ECF30895D82FF89481111AC0C12C1A
S214021CB0D12C76016894E1F8C0E021E0A601C701C4
S214021CC0B6010F94FE0FC82B8FEFD81AE80AF80A4F
S214021CD0C11480E2D80682E0E806F10471F7C11169
S214021CE005C061E0D11160E0619501C06EEF80E051
S214021CF093E00F94FC0F88ED84BF81E08093790017
S206021D00FFCF0C
S20C021FF6FFCF16CE55CE81CDB9
S804000000FB
