:100000000C9488000C94A5000C94A5000C94A500F9
:100010000C94A5000C94A5000C94A5000C94A500CC
:100020000C94A5000C94A5000C94A5000C949302CC
:100030000C94A5000C94A5000C94A5000C941A0334
:100040000C94A5000C94A5000C94560E0C94A500DD
:100050000C94A5000C94A5000C94A5000C94A5008C
:100060000C94A5000C94A5000C94A5000C94A5007C
:100070000C94A50008102040E800A2008E0080002B
:100080000C035600200031002E0032000000120345
:100090006700700069006F002D007500730062003A
:1000A00000004403540068006F006D00610073009D
:1000B00020004D00610069006500720020003C00D6
:1000C000620061006C0061006700690040006A0026
:1000D0007500730074006D00610069006C002E00F3
:1000E000640065003E0000000403090409021200D8
:1000F00001010080190904000000FFFFFF00120148
:100100001001FFFFFF4023F101A0000101020301E4
:1001100011241FBECFEFD2E0DEBFCDBF11E0A0E0C3
:10012000B1E0E4E5FDE102C005900D92AA31B1070E
:10013000D9F711E0AAE1B1E001C01D92AE32B107DA
:10014000E1F70E94710E0C94A80E0C940000E8EEEA
:10015000F0E08081877F80830895E8EEF0E0808181
:100160008E7F80830895E8EEF0E080818B7F80832E
:100170000895A89588E10FB6F894809360001092D6
:1001800060000FBE8FEF85B988B98BB914B817B866
:100190001AB8E1E6F0E090E890831082259A2D9855
:1001A00020918400309185002153384F309389008D
:1001B00020938800109282001092800092E0909329
:1001C000810086BB83E080936F000895662339F039
:1001D0002091F100FC01208361500196F7CF089532
:1001E0008091E80080FD06C0809123018C71C1F7E9
:1001F00083E0089580E008950E94F000811104C01A
:100200000E94AD000C94F0000895613021F062303E
:1002100029F40C948A0EFC0184910895FC018081DC
:100220000895E091ED00E295E370F0E0EC58FF4FA7
:1002300084910895CF92DF92EF92FF920F931F93D4
:10024000CF93DF937C018B01D42F809123018C719C
:1002500091F18091E80083FD30C08091E800C82FC3
:10026000C47082FF04C00E94B300C2E027C0809126
:10027000E80080FFEACF0115110591F08091E800B8
:1002800085FF0EC067018FEFC81AD80A6D2FC7010E
:100290000E9405018093F100015011097601EBCF16
:1002A0000E94AD009091E8009F779093E8000115BF
:1002B000110559F603C0C3E001C0C1E08C2FDF91E6
:1002C000CF911F910F91FF90EF90DF90CF90089505
:1002D000AF92BF92CF92DF92EF92FF920F931F9354
:1002E000CF93DF936C018B01E42E0E941101F82E55
:1002F000809123018C7141F18091E80083FD26C03B
:100300008091E800D82FD47082FF04C00E94B3000F
:10031000D2E029C08091E80080FFEACFC091F200CE
:1003200001151105A9F0CF15D8F456018FEFA81AC1
:10033000B80A6E2DC6010E9405018093F10001509C
:100340001109CF5F6501ECCFD3E00DC0D1E00BC048
:10035000CF1109C00E94AD000115110549F603C077
:10036000CF11C6CFF7CF8D2FDF91CF911F910F9176
:10037000FF90EF90DF90CF90BF90AF900895CF9314
:10038000809123018C7111F4C3E025C08091E800B5
:1003900083FF02C0C1E01FC08091E800C82FC47075
:1003A00082FF04C00E94B300C2E015C08091E80043
:1003B00080FFE6CF0E94AD008091E80082FD09C079
:1003C000809123018C7101F38091E80083FFF4CFC9
:1003D000E1CF0E94B3008C2FCF910895621773076D
:1003E00008F49B01B9010E946801811102C00C94BC
:1003F000BF010895AF92BF92CF92DF92EF92FF922A
:100400001F93CF93DF936C015B017A01FB01118293
:100410001082452B69F1C0E0D0E0809123018C71FE
:1004200049F18091E800182F187083FD25C0809154
:10043000E80082FFF2CF8091F200882361F0CE15B0
:10044000DF0548F48091F100F60180832196C60112
:1004500001966C01F0CF8091F200811102C00E94E0
:10046000B300CE15DF05C8F2F501D183C08305C006
:1004700010E003C013E001C011E0812FDF91CF91A4
:100480001F91FF90EF90DF90CF90BF90AF900895B5
:100490000E94B3000C94FC000E94FA01811102C07A
:1004A0000C94480208954850493130F4E42FF0E0AC
:1004B000E050FF4F308101C032E3982F9770909346
:1004C000E9009091EB0091609093EB006295660FCC
:1004D000660F607C881F8827881F862B8093EC001E
:1004E000A22FA170B0E0AA0FBB1FAA0FBB1FA32BA6
:1004F000A093ED001092F0000895E3E2F1E0628530
:100500008281938107960E94050120E0482F60E0D8
:1005100080E00C9453020E947D02E3E2F1E084E06B
:100520008083118208951F920F920FB60F921124AB
:100530001F932F933F934F935F936F937F938F936B
:100540009F93AF93BF93EF93FF93CF93DF9300D02D
:10055000CDB7DEB78091E1008A838091E200898384
:100560001091E9008A818A818A818A8183FF09C08A
:10057000898183FD0E948B028091E100877F8093B7
:10058000E1008A818A811092E1001093E9000F90C6
:100590000F90DF91CF91FF91EF91BF91AF919F911C
:1005A0008F917F916F915F914F913F912F911F910B
:1005B0000F900FBE0F901F901895EF920F935BE076
:1005C000E3E2F1E0DF011D925A95E9F71092230171
:1005D0009093260180932501709328016093270151
:1005E0004093290130932B0120932A0100932C0181
:1005F000E0922D0180E28093D8001092FB0019BC9C
:1006000082E089BD09B400FEFDCF80EA8093D80066
:1006100080E88093D8001092E2001092E10089E017
:100620008093E2001092E00084E0809323010F9118
:10063000EF9008951F920F920FB60F9211248F938F
:100640009F9380918800909189008153984F909357
:1006500089008093880080911E01882329F0809171
:100660001E01815080931E0180911D01882329F075
:1006700080911D01815080931D0180911C01882370
:1006800029F080911C01815080931C019F918F91D2
:100690000F900FBE0F901F90189580911F019DE045
:1006A0009A95F1F700009FEF980F882311F0892F9A
:1006B000F6CF08951F93CF93DF93182F80912101D8
:1006C000C82FC27081FF15C02998D0E0C0E017FF85
:1006D00002C02A9A01C02A98110F0E944D03CC0F24
:1006E0001B99C160299A0E944D032998DF5FD83079
:1006F00071F78C2FDF91CF911F91089584B1807E87
:1007000084B985B1807F85B92C9A84B1876184B919
:1007100080912101817F8160809321010C94FC00F4
:1007200084B1807E84B985B18F6185B980912101C2
:10073000807F809321010C94FC00CF93DF931F9264
:10074000CDB7DEB789839A018091210180FF1CC05B
:10075000898181FF15C060931F0180912101982F2D
:10076000917F89818E70892B8093210185B1887F4B
:1007700085B92C9A8AE18A95F1F700C02C980BC0B4
:100780002C9A85B1887F85B980912101817F8093E2
:10079000210110921F0140E061E070E081E291E0F0
:1007A0000E94EE010F90DF91CF910895DF92EF92BA
:1007B000FF920F931F93CF93DF9300D01F92CDB77B
:1007C000DEB7D82EF62EE72E8A01892F0E945A0313
:1007D0008D2D0E945A0389838E2D0E945A038A838D
:1007E0008F2D0E945A038B83980140E063E070E0F4
:1007F000CE0101960E94EE010F900F900F90DF91B5
:10080000CF911F910F91FF90EF90DF900895FF928D
:100810000F931F93CF93DF93D82FC62F142FF22E51
:100820000E945A038C2F0E945A03082F812F0E9486
:100830005A03182F8F2D0E945A03D01302C0C117DC
:1008400029F090912001916090932001DF91CF9148
:100850001F910F91FF900895EF92FF920F931F93B6
:10086000CF93DF9300D0CDB7DEB78C017B01E114CD
:10087000F104E9F020E0402F612F80E20E9407049C
:10088000898320E0402F612F88E20E9407048A8339
:1008900040E062E070E0CE0101960E9468018111A3
:1008A00008C00F5F1F4F82E0E81AF108E0CF0E94F6
:1008B000BF010F900F90DF91CF911F910F91FF908B
:1008C000EF900895EF92FF920F931F93CF93DF93D2
:1008D0001F92CDB7DEB78C017B01E114F104B1F0BA
:1008E00020E0402F612F80EA0E940704898340E0C6
:1008F00061E070E0CE0101960E946801811108C09C
:100900000F5F1F4F81E0E81AF108E7CF0E94BF0197
:100910000F90DF91CF911F910F91FF90EF9008956D
:10092000809121018C708430C9F08830C9F0811128
:1009300019C08CE080931E0120E040E060E080EF71
:100940000E94070480FF17C080911E018111F4CF1F
:1009500080912001826080932001089585E003C08A
:1009600089E001C081E280931E0180911E018823ED
:1009700011F08895FACF0895CF92DF92EF92FF920F
:100980000F931F93CF93DF9300D000D0CDB7DEB786
:100990006C017B0100E010E082E0E816F104E8F071
:1009A00042E050E0BE016F5F7F4FCE0103960E9490
:1009B000FA0181111CC02B81402F612F80E40E941D
:1009C00007042C81402F612F88E40E94070482E0F5
:1009D000E81AF1080F5F1F4FDFCF20E04C2D6D2D7F
:1009E0008CE40E9407040E9490040E9448020F9029
:1009F0000F900F900F90DF91CF911F910F91FF906B
:100A0000EF90DF90CF900895CF92DF92EF92FF9218
:100A10000F931F93CF93DF9300D01F92CDB7DEB714
:100A20006C017B0100E010E0E114F104B9F041E059
:100A300050E0BE016F5F7F4FCE0103960E94FA0126
:100A4000811116C02B81402F612F81EC0E94070479
:100A500081E0E81AF1080F5F1F4FE6CF20E04C2D30
:100A60006D2D82EC0E9407040E9490040E944802AF
:100A70000F900F900F90DF91CF911F910F91FF90EA
:100A8000EF90DF90CF9008951092C8001092C900A7
:100A90001092CA001092CB0052985A98539A5B98C1
:100AA000559A5D9A08950C9444051092C8001092CE
:100AB000C9001092CA001092CB0055985D9A5298C6
:100AC0005A9A53985B9A08950E9444055B9A85E868
:100AD0008A95F1F7000087E290E09093CD00809333
:100AE000CC001092C800E9ECF0E010828FE6809311
:100AF000CA001092CB008081806180838FE891E0F2
:100B00000197F1F700C000000895EF92FF920F9354
:100B10001F93CF93DF9300D01F92CDB7DEB78C0128
:100B20007B018091C80087FF03C08091CE00F9CF80
:100B30008091C90088608093C9008091C80085FFBA
:100B4000FCCF8091C80080648093C8000115110516
:100B500031F0F80180818B830F5F1F4F11C041E09E
:100B600050E0BE016F5F7F4FCE0103960E94FA01F5
:100B7000811104C089819A81019711F085E118C023
:100B80008B818093CE008091C80086FFFCCF80913E
:100B9000C80080648093C80085E080931D01809127
:100BA000C80087FD16C080911D018111F8CF8AE031
:100BB0009091C900977F9093C90053985B980F90CC
:100BC0000F900F90DF91CF911F910F91FF90EF90B9
:100BD00008958091C8002091CE009B8129130BC0FD
:100BE0008C7149F4E114F10421F0F1E0EF1AF108FD
:100BF000A4CF80E0DDCF84E0DBCFFC0185E08093F3
:100C00001D018091C80087FD06C080911D018111E2
:100C1000F8CF8BE008959091C8002091CE00892FE5
:100C20008C7111F42083089585E00895DF92EF928E
:100C3000FF920F931F93CF93DF93D62F662309F470
:100C4000C3C0FC01D0802115310511F0F9011082DB
:100C5000CD2DC07EC03609F473C089017A01FC0134
:100C6000C13648F4C03209F44CC0C03409F43DC068
:100C7000C111ACC00FC0C03A09F489C020F4C0381B
:100C800009F46FC0A3C0C03C09F47CC0C03E09F4A5
:100C90008DC09CC02D2D2C70269526952F5F30E0A1
:100CA000C90101966D2F70E08617970709F092C071
:100CB000B901CF010E94850581118AC06D2D637035
:100CC000DD24D394D60ED0E0C7018D0F911D0E9474
:100CD000FD0581117DC0DF5FDD15B0F30115110544
:100CE00009F44EC0F801D08276C08D2D8C708695A7
:100CF00086958F5F6D2D63706F5F70E0680F711D5B
:100D00004CC0D13009F066C060E070E00E948505FB
:100D100081115EC06D2D6370DD24D394D60ED0E0BA
:100D2000C7018D0F911D0E94FD05811151C0DF5F2C
:100D3000DD15B0F30115110519F1F801D08220C0BD
:100D40006D2D6370DD24D394D60E2D2D30E0A901D6
:100D50004F5F5F4F6D2F70E046175707D9F5B90108
:100D60002AC0D130B9F560E070E00E94850581119C
:100D70002FC0C7010E94FD0581112AC0F801D08350
:100D8000C0E029C0D23031F561E070E013C06D2DB4
:100D9000637091E0960F692F70E09B012F5F3F4FCA
:100DA0008D2F90E028173907A9F404C0D93091F4A9
:100DB00068E070E0CF01DF91CF911F910F91FF901C
:100DC000EF90DF900C948505C1E005C0C2E003C040
:100DD000C82F01C0C3E08C2FDF91CF911F910F91DD
:100DE000FF90EF90DF900895CF93DF9300D000D075
:100DF00000D0CDB7DEB72CE029836A837B838C8358
:100E00009D8320E030E065E0CE0101960E94160649
:100E100026960FB6F894DEBF0FBECDBFDF91CF91FF
:100E20000895CF93DF9300D000D000D0CDB7DEB7C8
:100E30002CE429836A837B838C839D834E8320E00B
:100E400030E040E050E066E0CE0101960E941606D8
:100E500026960FB6F894DEBF0FBECDBFDF91CF91BF
:100E60000895CF93DF9300D000D01F92CDB7DEB7A7
:100E70002BE629836A837B838C839D8320E030E08B
:100E800040E050E065E0CE0101960E9416060F900A
:100E90000F900F900F900F90DF91CF910895CF9307
:100EA000DF9300D0CDB7DEB78F70806C89836A8303
:100EB00020E030E040E050E062E0CE0101960E9488
:100EC00016060F900F90DF91CF910895CF93DF9387
:100ED00000D0CDB7DEB7AB018F708068898320E08A
:100EE00030E061E0CE0101960E9416060F900F904F
:100EF000DF91CF910895CF93DF93CDB7DEB72997D8
:100F00000FB6F894DEBF0FBECDBF80EE89838FEFA2
:100F10008A8388E88B8388ED8C838DEC8D8385E4D0
:100F20008E838BEA8F8389E8888782E1898720E036
:100F300030E040E050E069E0CE0101960E941606E4
:100F400029960FB6F894DEBF0FBECDBFDF91CF91CB
:100F50000895CF93DF9300D01F92CDB7DEB721EA7B
:100F600029838A839B8320E030E040E050E063E007
:100F7000CE0101960E9416060F900F900F90DF9100
:100F8000CF910895EF92FF920F931F93CF93DF932A
:100F900000D0CDB7DEB77A0189010E9431078111F7
:100FA00033C0C8010E94A90781112EC084E2898341
:100FB00060E070E0CE0101960E948505811124C099
:100FC000E114F10449F0C7010E94FD059FEFE91A01
:100FD000F90A882381F018C0CE0101960E94FD0510
:100FE000811112C040E061E070E0CE0101960E94E4
:100FF0006801811108C00115110519F0015011098E
:10100000DFCF80E001C084E10F900F90DF91CF919E
:101010001F910F91FF90EF900895EF92FF920F9321
:101020001F93CF93DF9300D0CDB7DEB77A0189014C
:101030000E943107811113C0C8010E94A9078111C4
:101040000EC084E6898360E070E0CE0101960E94C4
:101050008505811104C0B801C7010E9485050F9064
:101060000F90DF91CF911F910F91FF90EF90089516
:101070001F93CF93DF931F92CDB7DEB769E581E071
:101080000E944F07182F811131C08AE18A95F1F72C
:1010900000C0BE016F5F7F4F81E00E946607182F7E
:1010A000811124C0898180FF20C00E947B07182FF6
:1010B00081111CC08FEC97E00197F1F700C0000090
:1010C00084E680931C01BE016F5F7F4F80E00E9429
:1010D0006607182F81110AC0898181FD0BC080919C
:1010E0001C018111F0CF1CE001C013E60E944405F1
:1010F000812F01C080E00F90DF91CF911F91089563
:1011000060E080E00E944F0760E081E00C944F07B0
:10111000482F6AEC71E080E091E00C94110741E007
:101120006BEC71E080E091E00C941107CF93DF93BA
:101130001F92CDB7DEB78AE080931C0187EC90E068
:101140000197F1F700C00000AE014F5F5F4F6FECF9
:1011500071E080E091E00E94F40681110AC089816B
:1011600087FF06C080911C018111E8CF8EE001C08D
:1011700080E00F90DF91CF910895CF92DF92EF92B0
:10118000FF92CF93DF936B017C01EA0183E40E941D
:10119000880881110DC09E0140E050E0C701B601F2
:1011A000DF91CF91FF90EF90DF90CF900C94C2072A
:1011B000DF91CF91FF90EF90DF90CF9008951F9334
:1011C000CF93DF931F92CDB7DEB7823029F030F096
:1011D000833081F590E303C098E601C090E4182FB6
:1011E000892F0E948808811126C00E948F088111D2
:1011F00022C011111CC082E380931C0187EE93E092
:101200000197F1F700C00000BE016F5F7F4F80E0E3
:101210000E94660781110FC0898181FD06C08091FF
:101220001C018111EBCF8DE006C080E004C00E945C
:10123000960801C08FE00F90DF91CF911F91089524
:10124000CF92DF92EF92FF92CF93DF936B017C01FD
:10125000EA0186E20E948808811131C00E948F084D
:1012600081112DC00E949608811129C083E20E943D
:101270008808811124C080E4E80EF11CCC0CDD1C30
:10128000EE1CFF1C9E0140E050E0C701B6010E9429
:101290000D08811114C08FE20E94880881110FC0CF
:1012A00045E5C701B6010E941107811108C0DF9111
:1012B000CF91FF90EF90DF90CF900C949608DF9144
:1012C000CF91FF90EF90DF90CF900895DC01CB019C
:1012D000A05CBF4FBC01CD01660F771F881F991F0F
:1012E0000C94BD08CF92DF92EF92FF92CF93DF93E1
:1012F0006B017C01EA0186E30E94880881112DC000
:101300000E948F08811129C00E949608811125C072
:1013100083E30E948808811120C08CE8E80EF11C4C
:101320009E0140E050E0C701B6010E940D08811106
:1013300014C085E30E94880881110FC045E5C701EC
:10134000B6010E941107811108C0DF91CF91FF9073
:10135000EF90DF90CF900C949608DF91CF91FF90A3
:10136000EF90DF90CF90089584579F4F0C94BD0865
:101370001F93CF93DF93EC01162F8CE40E94880813
:10138000811113C0CE01A0E0B0E0BC01CD01605ED0
:101390007F4F80479F4F412F0E941107811105C049
:1013A000DF91CF911F910C949608DF91CF911F91FF
:1013B0000895A0E0B0E0BC01CD01605E7F4F8047A2
:1013C0009F4F40E050E00C94BD08AB01A0E0B0E0BE
:1013D000BC01CD017E5F81479F4F0C94BD089C01ED
:1013E00040E050E060E970E080E091E00C94C207DA
:1013F000CF92DF92EF92FF920F931F93CF93DF93E1
:10140000CDB7DEB765970FB6F894DEBF0FBECDBF80
:10141000FC01E280F380A481B5810681178121E07F
:1014200020931B019181923509F423C1C0F49534B6
:1014300009F498C040F4933409F450C008F06CC02B
:10144000923461F1A1C1973409F4CAC008F4B3C061
:10145000983409F4D6C0993409F4E3C095C197359E
:1014600009F47BC160F4943509F41BC108F441C14F
:10147000953509F45AC1963509F42BC185C19935C2
:1014800009F4DBC008F42BC1903609F46BC1913626
:1014900009F07AC18E2D0E94DF0872C1A8010530C3
:1014A000110510F044E050E0042F411101C001E0AB
:1014B0008FEF800F8C608983AA83BB83EC82FD82CF
:1014C0009E012B5E3F4FAE01435F5F4F65E0CE0153
:1014D00001960E94160680931B013AC01C8A1B8A43
:1014E000A8010530110510F044E050E0411101C0A1
:1014F00041E08FEF840F8C648983AA83BB83EC82E5
:10150000FD8250E0BE016D5E7F4FCE0106960E94C7
:101510004C026B896B5F42C0A8010530110510F0C9
:1015200044E050E0042F411101C001E0EE2DEC70C9
:101530009FEF900FE062E92BE9839E012B5E3F4F06
:10154000AE01435F5F4F61E0CE0101960E94160637
:10155000202F30E06D8970E040E0CE010D960E94B2
:10156000EE0112C11C8A1B8AA8010530110510F07A
:1015700044E050E0411101C041E0EE2DEC709FEFDE
:10158000940FE066E92BE98350E0BE016D5E7F4F6A
:10159000CE0102960E944C026B896F5F9E012B5E0A
:1015A0003F4FAE01435F5F4FCE0101960E9416068A
:1015B00080931B01E9C0EE2DEF70E068E9839E0186
:1015C0002B5E3F4FAE01435F5F4F61E0CE0101965E
:1015D0000E94160680931B016D8970E09801BCCFB4
:1015E000EE2DEF70E06CE983AA839E012B5E3F4FE6
:1015F000AE01435F5F4F62E0CE0101960E94160686
:10160000BFC01C8A1B8AA8010530110510F044E0F8
:1016100050E0411101C041E08FEF840F806A89835F
:10162000B3CF1C8A1B8A80EE8983A801093011057B
:1016300008F4ABCF48E050E0A8CF01151105B1F098
:10164000A80141505109870120E030E07801DD24F4
:10165000CC248D0120E030E0C701B601602B712B56
:10166000822B932B0E94BD0880931B010E94BF0117
:101670008BC001151105D1F3A80141505109870113
:1016800020E030E07801DD24CC248D0120E030E042
:10169000C701B601602B712B822B932B0E94660928
:1016A000E3CF0115110511F3A8014150510987013C
:1016B00020E030E07801DD24CC248D0120E030E012
:1016C000C701B601602B712B822B932B0E94B409AA
:1016D000CBCF012B59F2C7010E94D909C5CF011503
:1016E000110521F2B80161507109C7010E94E50995
:1016F000BBCF01151105B1F0A80141505109870177
:1017000020E030E07801DD24CC248D0120E030E0C1
:10171000C701B601602B712B822B932B0E942009ED
:1017200080931B010E9448022FC001151105D1F3BF
:10173000A80141505109870120E030E07801DD2403
:10174000CC248D0120E030E0C701B601602B712B65
:10175000822B932B0E947209E3CF6A2FC7010E944C
:10176000B8090EC00115110509F480CFC801019711
:101770008430910510F083E090E00E94EF0974CF6F
:1017800080931B010E94FC0065960FB6F894DEBFA3
:101790000FBECDBFDF91CF911F910F91FF90EF90C2
:1017A000DF90CF9008950895EF92FF921F93CF930B
:1017B000DF9300D0CDB7DEB7FC012081322F3F7719
:1017C000313409F063C17C01918127FDCEC09A3488
:1017D00018F5973408F0AFC0953109F450C068F49B
:1017E0009930E9F1943109F440C0983009F04EC1C4
:1017F0000E94A7000E947E0336C0913409F48DC078
:1018000020F4903409F44CC041C1933409F493C0DE
:10181000953409F490C03AC1913509F47EC080F442
:101820009C34B9F1903509F44FC09B3409F02EC1B6
:101830000E94A7000E94440580911A0181603FC068
:10184000953509F478C020F4933509F474C01EC1AD
:10185000973509F470C0913609F46DC017C10E9424
:10186000A7000E94900310E012C10E94A700F70198
:1018700066817781828193810E94BC04F4CF0E94AB
:10188000A700F70166817781828193810E94040518
:10189000EACF0E94A70010921A010E9455051DC0B0
:1018A0000E94A70080911A0180FF14C080911A0144
:1018B00081FD07C00E94640580911A0182608093B7
:1018C0001A0110921B0109C00E94A70080911A0101
:1018D00080FD06C084E680931B010E94FC00C3CFFC
:1018E00010921B0180911A0182FDF7CF80911A019D
:1018F00081FD07C00E94640580911A018260809377
:101900001A010E94380880931B018111E6CF809153
:101910001A01846080931A01E0CF0E94A700809191
:101920001A0180FFD7CF0E9480080E944405809151
:101930001A01897FC4CF0E94A70080911A01182F35
:10194000117080FF0CC080911A01182F127081FF56
:1019500004C0C7010E94F80986CF85E601C084E66D
:1019600080931B010E94FC0092C0963409F478C059
:1019700080F5933109F465C090F4913109F44BC0BE
:1019800008F055C0903109F081C00E94A700F7010E
:1019900046815781628183810E949D0364CF923486
:1019A00009F45EC0943409F45BC0903209F06EC053
:1019B0000E94A700809121018983809120018A8360
:1019C00010922001F7012681378140E062E070E04B
:1019D00042C0963509F444C0B0F4923509F440C0D1
:1019E0009435F1F19A3409F051C00E94A70080911A
:1019F0001B01898310921B01F7012681378140E08A
:101A000061E070E028C0983508F440C09A3540F194
:101A1000903631F13BC00E94A700F7014681578103
:101A200064817581828193810E94D6031CCF0E94BC
:101A3000A700F70166817781828193810E942C043F
:101A400012CF0E94A700F70166817781828193817E
:101A50000E94620408CFCE0101960E94EE0103CFDE
:101A60000E94A70080911A01182F117080FF08C0F2
:101A700080911A01182F127081FD6BCF85E601C08D
:101A800084E680931B010E94BF0101C011E0812FF9
:101A90000F900F90DF91CF911F91FF90EF900895DD
:101AA000CF92DF92FF920F931F93CF93DF93CDB727
:101AB000DEB728970FB6F894DEBF0FBECDBF1092E9
:101AC000E9008091E80083FFE3C068E0CE01019661
:101AD0000E94E6008981982F907609F0C7C09A810C
:101AE0009630E9F020F4953009F47FC0BFC09830FB
:101AF00021F0993009F494C0B9C0803809F0B6C01B
:101B000080912301887109F4B1C00E94A70021E0EF
:101B100030E040E061E070E084E291E02CC0803889
:101B200009F0A4C00B811C81812F90E082309105C7
:101B300099F08330910511F1019709F097C00E9447
:101B4000A7002F81388540912D0162E170E08091DE
:101B50002501909126010FC0011188C00E94A700A5
:101B60002F81388540912D016091290170E080918D
:101B70002701909128010E94EE0188C080912C01DC
:101B8000081708F073C00E94A700F0902D01809103
:101B90002A0190912B01112721E0F21659F022E041
:101BA000F21210C0000F111F800F911F0E94920EA1
:101BB0008C010FC0000F111FFC01E00FF11F0591F8
:101BC000149107C0000F111FFC01E00FF11F0081ED
:101BD0001181CF80D8846F2DC8010E940501682F24
:101BE00070E096014F2DC801C6CF81113FC0809192
:101BF00023018C70D9F11B811F770E94A7001093DD
:101C0000E3000E94FC008091E30080688093E30081
:101C1000112311F088E001C084E08093230136C0D5
:101C2000811124C080912301887101F11B81111160
:101C300006C088E0809323011092240112C06091B5
:101C40002D01809127019091280105960E940501A0
:101C500018130CC080E1809323011093240110928B
:101C6000E9000E94A7000E94FC0010C0CE0101966E
:101C70000E94D40B1092E900882351F00E94A70023
:101C80008091EB0080628093EB0002C080E0F2CF95
:101C900028960FB6F894DEBF0FBECDBFDF91CF916F
:101CA0001F910F91FF90DF90CF9008951F920F9298
:101CB0000FB60F9211248F939F93809122018F5F13
:101CC000809322018A3030F095B180E2892785B96E
:101CD000109222019F918F910F900FBE0F901F9035
:101CE0001895F8940E94B900EE24E39404E028E7E4
:101CF00030E042E16CEE70E08EEF90E00E94DD0299
:101D000083B7817F83BF83B7816083BF78940E944C
:101D1000500DFDCFF999FECF92BD81BDF89A99275C
:101D200080B50895A8E1B0E042E050E00C949A0E2E
:101D3000DC01CB01FC01F999FECF06C0F2BDE1BD8B
:101D4000F89A319600B40D9241505040B8F708957A
:041D5000F894FFCF35
:101D540002323232323232321232323232323232AF
:0A1D640032323232323232322200C3
:00000001FF
